{
  "contractName": "Exchange",
  "abi": [
    {
      "inputs": [
        {
          "internalType": "address",
          "name": "_feeAccount",
          "type": "address"
        },
        {
          "internalType": "uint256",
          "name": "_feePercent",
          "type": "uint256"
        }
      ],
      "stateMutability": "nonpayable",
      "type": "constructor"
    },
    {
      "anonymous": false,
      "inputs": [
        {
          "indexed": false,
          "internalType": "uint256",
          "name": "_id",
          "type": "uint256"
        },
        {
          "indexed": false,
          "internalType": "address",
          "name": "_user",
          "type": "address"
        },
        {
          "indexed": false,
          "internalType": "address",
          "name": "_tokenGet",
          "type": "address"
        },
        {
          "indexed": false,
          "internalType": "uint256",
          "name": "_amountGet",
          "type": "uint256"
        },
        {
          "indexed": false,
          "internalType": "address",
          "name": "_tokenGive",
          "type": "address"
        },
        {
          "indexed": false,
          "internalType": "uint256",
          "name": "_amountGive",
          "type": "uint256"
        },
        {
          "indexed": false,
          "internalType": "uint256",
          "name": "_timestamp",
          "type": "uint256"
        }
      ],
      "name": "Cancel",
      "type": "event"
    },
    {
      "anonymous": false,
      "inputs": [
        {
          "indexed": false,
          "internalType": "address",
          "name": "_token",
          "type": "address"
        },
        {
          "indexed": false,
          "internalType": "address",
          "name": "_user",
          "type": "address"
        },
        {
          "indexed": false,
          "internalType": "uint256",
          "name": "_amount",
          "type": "uint256"
        },
        {
          "indexed": false,
          "internalType": "uint256",
          "name": "_balance",
          "type": "uint256"
        }
      ],
      "name": "Deposit",
      "type": "event"
    },
    {
      "anonymous": false,
      "inputs": [
        {
          "indexed": false,
          "internalType": "uint256",
          "name": "_id",
          "type": "uint256"
        },
        {
          "indexed": false,
          "internalType": "address",
          "name": "_user",
          "type": "address"
        },
        {
          "indexed": false,
          "internalType": "address",
          "name": "_tokenGet",
          "type": "address"
        },
        {
          "indexed": false,
          "internalType": "uint256",
          "name": "_amountGet",
          "type": "uint256"
        },
        {
          "indexed": false,
          "internalType": "address",
          "name": "_tokenGive",
          "type": "address"
        },
        {
          "indexed": false,
          "internalType": "uint256",
          "name": "_amountGive",
          "type": "uint256"
        },
        {
          "indexed": false,
          "internalType": "uint256",
          "name": "_timestamp",
          "type": "uint256"
        }
      ],
      "name": "Order",
      "type": "event"
    },
    {
      "anonymous": false,
      "inputs": [
        {
          "indexed": false,
          "internalType": "uint256",
          "name": "_id",
          "type": "uint256"
        },
        {
          "indexed": false,
          "internalType": "address",
          "name": "_user",
          "type": "address"
        },
        {
          "indexed": false,
          "internalType": "address",
          "name": "_tokenGet",
          "type": "address"
        },
        {
          "indexed": false,
          "internalType": "uint256",
          "name": "_amountGet",
          "type": "uint256"
        },
        {
          "indexed": false,
          "internalType": "address",
          "name": "_tokenGive",
          "type": "address"
        },
        {
          "indexed": false,
          "internalType": "uint256",
          "name": "_amountGive",
          "type": "uint256"
        },
        {
          "indexed": false,
          "internalType": "address",
          "name": "_userFill",
          "type": "address"
        },
        {
          "indexed": false,
          "internalType": "uint256",
          "name": "_timestamp",
          "type": "uint256"
        }
      ],
      "name": "Trade",
      "type": "event"
    },
    {
      "anonymous": false,
      "inputs": [
        {
          "indexed": false,
          "internalType": "address",
          "name": "_token",
          "type": "address"
        },
        {
          "indexed": false,
          "internalType": "address",
          "name": "_user",
          "type": "address"
        },
        {
          "indexed": false,
          "internalType": "uint256",
          "name": "_amount",
          "type": "uint256"
        },
        {
          "indexed": false,
          "internalType": "uint256",
          "name": "_balance",
          "type": "uint256"
        }
      ],
      "name": "Withdraw",
      "type": "event"
    },
    {
      "inputs": [],
      "name": "admin",
      "outputs": [
        {
          "internalType": "address",
          "name": "",
          "type": "address"
        }
      ],
      "stateMutability": "view",
      "type": "function",
      "constant": true
    },
    {
      "inputs": [],
      "name": "feeAccount",
      "outputs": [
        {
          "internalType": "address payable",
          "name": "",
          "type": "address"
        }
      ],
      "stateMutability": "view",
      "type": "function",
      "constant": true
    },
    {
      "inputs": [],
      "name": "feePercent",
      "outputs": [
        {
          "internalType": "uint256",
          "name": "",
          "type": "uint256"
        }
      ],
      "stateMutability": "view",
      "type": "function",
      "constant": true
    },
    {
      "inputs": [
        {
          "internalType": "uint256",
          "name": "",
          "type": "uint256"
        }
      ],
      "name": "orderCancelled",
      "outputs": [
        {
          "internalType": "bool",
          "name": "",
          "type": "bool"
        }
      ],
      "stateMutability": "view",
      "type": "function",
      "constant": true
    },
    {
      "inputs": [],
      "name": "orderCancelledCount",
      "outputs": [
        {
          "internalType": "uint256",
          "name": "",
          "type": "uint256"
        }
      ],
      "stateMutability": "view",
      "type": "function",
      "constant": true
    },
    {
      "inputs": [],
      "name": "orderCount",
      "outputs": [
        {
          "internalType": "uint256",
          "name": "",
          "type": "uint256"
        }
      ],
      "stateMutability": "view",
      "type": "function",
      "constant": true
    },
    {
      "inputs": [
        {
          "internalType": "uint256",
          "name": "",
          "type": "uint256"
        }
      ],
      "name": "orderFilled",
      "outputs": [
        {
          "internalType": "bool",
          "name": "",
          "type": "bool"
        }
      ],
      "stateMutability": "view",
      "type": "function",
      "constant": true
    },
    {
      "inputs": [
        {
          "internalType": "uint256",
          "name": "",
          "type": "uint256"
        }
      ],
      "name": "orders",
      "outputs": [
        {
          "internalType": "uint256",
          "name": "id",
          "type": "uint256"
        },
        {
          "internalType": "address",
          "name": "user",
          "type": "address"
        },
        {
          "internalType": "address",
          "name": "tokenGet",
          "type": "address"
        },
        {
          "internalType": "uint256",
          "name": "amountGet",
          "type": "uint256"
        },
        {
          "internalType": "address",
          "name": "tokenGive",
          "type": "address"
        },
        {
          "internalType": "uint256",
          "name": "amountGive",
          "type": "uint256"
        },
        {
          "internalType": "uint256",
          "name": "timestamp",
          "type": "uint256"
        }
      ],
      "stateMutability": "view",
      "type": "function",
      "constant": true
    },
    {
      "inputs": [
        {
          "internalType": "address",
          "name": "",
          "type": "address"
        },
        {
          "internalType": "address",
          "name": "",
          "type": "address"
        }
      ],
      "name": "tokens",
      "outputs": [
        {
          "internalType": "uint256",
          "name": "",
          "type": "uint256"
        }
      ],
      "stateMutability": "view",
      "type": "function",
      "constant": true
    },
    {
      "inputs": [],
      "name": "isAdmin",
      "outputs": [
        {
          "internalType": "bool",
          "name": "",
          "type": "bool"
        }
      ],
      "stateMutability": "view",
      "type": "function",
      "constant": true
    },
    {
      "inputs": [],
      "name": "fetchCanceledOrders",
      "outputs": [
        {
          "components": [
            {
              "internalType": "uint256",
              "name": "id",
              "type": "uint256"
            },
            {
              "internalType": "address",
              "name": "user",
              "type": "address"
            },
            {
              "internalType": "address",
              "name": "tokenGet",
              "type": "address"
            },
            {
              "internalType": "uint256",
              "name": "amountGet",
              "type": "uint256"
            },
            {
              "internalType": "address",
              "name": "tokenGive",
              "type": "address"
            },
            {
              "internalType": "uint256",
              "name": "amountGive",
              "type": "uint256"
            },
            {
              "internalType": "uint256",
              "name": "timestamp",
              "type": "uint256"
            }
          ],
          "internalType": "struct Exchange._Order[]",
          "name": "",
          "type": "tuple[]"
        }
      ],
      "stateMutability": "view",
      "type": "function",
      "constant": true
    },
    {
      "inputs": [],
      "name": "fetchOrders",
      "outputs": [
        {
          "components": [
            {
              "internalType": "uint256",
              "name": "id",
              "type": "uint256"
            },
            {
              "internalType": "address",
              "name": "user",
              "type": "address"
            },
            {
              "internalType": "address",
              "name": "tokenGet",
              "type": "address"
            },
            {
              "internalType": "uint256",
              "name": "amountGet",
              "type": "uint256"
            },
            {
              "internalType": "address",
              "name": "tokenGive",
              "type": "address"
            },
            {
              "internalType": "uint256",
              "name": "amountGive",
              "type": "uint256"
            },
            {
              "internalType": "uint256",
              "name": "timestamp",
              "type": "uint256"
            }
          ],
          "internalType": "struct Exchange._Order[]",
          "name": "",
          "type": "tuple[]"
        }
      ],
      "stateMutability": "view",
      "type": "function",
      "constant": true
    },
    {
      "inputs": [
        {
          "internalType": "uint256",
          "name": "_id",
          "type": "uint256"
        }
      ],
      "name": "fillOrder",
      "outputs": [],
      "stateMutability": "payable",
      "type": "function",
      "payable": true
    },
    {
      "inputs": [
        {
          "internalType": "address",
          "name": "_tokenGet",
          "type": "address"
        },
        {
          "internalType": "uint256",
          "name": "_amountGet",
          "type": "uint256"
        },
        {
          "internalType": "address",
          "name": "_tokenGive",
          "type": "address"
        },
        {
          "internalType": "uint256",
          "name": "_amountGive",
          "type": "uint256"
        }
      ],
      "name": "makeOrder",
      "outputs": [],
      "stateMutability": "nonpayable",
      "type": "function"
    },
    {
      "inputs": [
        {
          "internalType": "uint256",
          "name": "_id",
          "type": "uint256"
        }
      ],
      "name": "cancelOrder",
      "outputs": [
        {
          "internalType": "bool",
          "name": "",
          "type": "bool"
        }
      ],
      "stateMutability": "nonpayable",
      "type": "function"
    },
    {
      "inputs": [
        {
          "internalType": "address",
          "name": "_tokenAddress",
          "type": "address"
        },
        {
          "internalType": "uint256",
          "name": "_amount",
          "type": "uint256"
        }
      ],
      "name": "depositToken",
      "outputs": [],
      "stateMutability": "nonpayable",
      "type": "function"
    },
    {
      "inputs": [
        {
          "internalType": "address",
          "name": "_tokenAddress",
          "type": "address"
        },
        {
          "internalType": "uint256",
          "name": "_amount",
          "type": "uint256"
        }
      ],
      "name": "withdrawToken",
      "outputs": [],
      "stateMutability": "nonpayable",
      "type": "function"
    },
    {
      "inputs": [],
      "name": "depositEther",
      "outputs": [],
      "stateMutability": "payable",
      "type": "function",
      "payable": true
    },
    {
      "inputs": [
        {
          "internalType": "uint256",
          "name": "_amount",
          "type": "uint256"
        }
      ],
      "name": "withdrawEther",
      "outputs": [],
      "stateMutability": "nonpayable",
      "type": "function"
    },
    {
      "inputs": [
        {
          "internalType": "address",
          "name": "_tokenAddress",
          "type": "address"
        },
        {
          "internalType": "address",
          "name": "_user",
          "type": "address"
        }
      ],
      "name": "balanceOf",
      "outputs": [
        {
          "internalType": "uint256",
          "name": "",
          "type": "uint256"
        }
      ],
      "stateMutability": "view",
      "type": "function",
      "constant": true
    }
  ],
  "bytecode": "0x60806040523480156200001157600080fd5b506040516200339c3803806200339c8339818101604052810190620000379190620000fe565b600160008190555033600160006101000a81548173ffffffffffffffffffffffffffffffffffffffff021916908373ffffffffffffffffffffffffffffffffffffffff16021790555081600260006101000a81548173ffffffffffffffffffffffffffffffffffffffff021916908373ffffffffffffffffffffffffffffffffffffffff160217905550806003819055505050620001b1565b600081519050620000e1816200017d565b92915050565b600081519050620000f88162000197565b92915050565b600080604083850312156200011257600080fd5b60006200012285828601620000d0565b92505060206200013585828601620000e7565b9150509250929050565b60006200014c8262000153565b9050919050565b600073ffffffffffffffffffffffffffffffffffffffff82169050919050565b6000819050919050565b62000188816200013f565b81146200019457600080fd5b50565b620001a28162000173565b8114620001ae57600080fd5b50565b6131db80620001c16000396000f3fe60806040526004361061011f5760003560e01c80637fd6f15c116100a0578063b6db75a011610064578063b6db75a0146103bf578063c71a2456146103ea578063e9c1896614610415578063f7888aec14610452578063f851a4401461048f5761011f565b80637fd6f15c146102f557806398ea5fca146103205780639a5c90aa1461032a5780639e281a9814610353578063a85c38ef1461037c5761011f565b80634c7ce449116100e75780634c7ce44914610209578063508493bc14610234578063514fcac71461027157806365e17c9d146102ae57806367b830ad146102d95761011f565b806308097549146101245780632453ffa81461014f578063338b5dea1461017a5780633bed33ce146101a35780634a93e0da146101cc575b600080fd5b34801561013057600080fd5b506101396104ba565b6040516101469190612c5b565b60405180910390f35b34801561015b57600080fd5b50610164610733565b6040516101719190612df8565b60405180910390f35b34801561018657600080fd5b506101a1600480360381019061019c91906125ff565b610739565b005b3480156101af57600080fd5b506101ca60048036038101906101c591906126c7565b610a43565b005b3480156101d857600080fd5b506101f360048036038101906101ee91906126c7565b610d15565b6040516102009190612c7d565b60405180910390f35b34801561021557600080fd5b5061021e610d35565b60405161022b9190612c5b565b60405180910390f35b34801561024057600080fd5b5061025b600480360381019061025691906125c3565b610fd5565b6040516102689190612df8565b60405180910390f35b34801561027d57600080fd5b50610298600480360381019061029391906126c7565b610ffa565b6040516102a59190612c7d565b60405180910390f35b3480156102ba57600080fd5b506102c361120e565b6040516102d09190612b9b565b60405180910390f35b6102f360048036038101906102ee91906126c7565b611234565b005b34801561030157600080fd5b5061030a61146a565b6040516103179190612df8565b60405180910390f35b610328611470565b005b34801561033657600080fd5b50610351600480360381019061034c919061263b565b61163b565b005b34801561035f57600080fd5b5061037a600480360381019061037591906125ff565b61182e565b005b34801561038857600080fd5b506103a3600480360381019061039e91906126c7565b611bf5565b6040516103b69796959493929190612e91565b60405180910390f35b3480156103cb57600080fd5b506103d4611c97565b6040516103e19190612c7d565b60405180910390f35b3480156103f657600080fd5b506103ff611d00565b60405161040c9190612df8565b60405180910390f35b34801561042157600080fd5b5061043c600480360381019061043791906126c7565b611d06565b6040516104499190612c7d565b60405180910390f35b34801561045e57600080fd5b50610479600480360381019061047491906125c3565b611d26565b6040516104869190612df8565b60405180910390f35b34801561049b57600080fd5b506104a4611dad565b6040516104b19190612b80565b60405180910390f35b6060600060085490506000808267ffffffffffffffff811115610506577f4e487b7100000000000000000000000000000000000000000000000000000000600052604160045260246000fd5b60405190808252806020026020018201604052801561053f57816020015b61052c612505565b8152602001906001900390816105245790505b50905060005b83811015610729576000600560006001846105609190612f4a565b81526020019081526020016000206000015490506000600560008381526020019081526020016000209050806040518060e0016040529081600082015481526020016001820160009054906101000a900473ffffffffffffffffffffffffffffffffffffffff1673ffffffffffffffffffffffffffffffffffffffff1673ffffffffffffffffffffffffffffffffffffffff1681526020016002820160009054906101000a900473ffffffffffffffffffffffffffffffffffffffff1673ffffffffffffffffffffffffffffffffffffffff1673ffffffffffffffffffffffffffffffffffffffff168152602001600382015481526020016004820160009054906101000a900473ffffffffffffffffffffffffffffffffffffffff1673ffffffffffffffffffffffffffffffffffffffff1673ffffffffffffffffffffffffffffffffffffffff168152602001600582015481526020016006820154815250508486815181106106fa577f4e487b7100000000000000000000000000000000000000000000000000000000600052603260045260246000fd5b60200260200101819052506001856107129190612f4a565b945050508080610721906130b9565b915050610545565b5080935050505090565b60085481565b600073ffffffffffffffffffffffffffffffffffffffff168273ffffffffffffffffffffffffffffffffffffffff1614156107a9576040517f08c379a00000000000000000000000000000000000000000000000000000000081526004016107a090612c98565b60405180910390fd5b8173ffffffffffffffffffffffffffffffffffffffff166323b872dd3330846040518463ffffffff1660e01b81526004016107e693929190612bb6565b602060405180830381600087803b15801561080057600080fd5b505af1158015610814573d6000803e3d6000fd5b505050506040513d601f19601f82011682018060405250810190610838919061269e565b610877576040517f08c379a000000000000000000000000000000000000000000000000000000000815260040161086e90612d38565b60405180910390fd5b61090681600460008573ffffffffffffffffffffffffffffffffffffffff1673ffffffffffffffffffffffffffffffffffffffff16815260200190815260200160002060003373ffffffffffffffffffffffffffffffffffffffff1673ffffffffffffffffffffffffffffffffffffffff16815260200190815260200160002054611dd390919063ffffffff16565b600460008473ffffffffffffffffffffffffffffffffffffffff1673ffffffffffffffffffffffffffffffffffffffff16815260200190815260200160002060003373ffffffffffffffffffffffffffffffffffffffff1673ffffffffffffffffffffffffffffffffffffffff168152602001908152602001600020819055507fdcbc1c05240f31ff3ad067ef1ee35ce4997762752e3a095284754544f4c709d7823383600460008773ffffffffffffffffffffffffffffffffffffffff1673ffffffffffffffffffffffffffffffffffffffff16815260200190815260200160002060003373ffffffffffffffffffffffffffffffffffffffff1673ffffffffffffffffffffffffffffffffffffffff16815260200190815260200160002054604051610a379493929190612bed565b60405180910390a15050565b80600460008073ffffffffffffffffffffffffffffffffffffffff1673ffffffffffffffffffffffffffffffffffffffff16815260200190815260200160002060003373ffffffffffffffffffffffffffffffffffffffff1673ffffffffffffffffffffffffffffffffffffffff168152602001908152602001600020541015610b02576040517f08c379a0000000000000000000000000000000000000000000000000000000008152600401610af990612d58565b60405180910390fd5b610b9181600460008073ffffffffffffffffffffffffffffffffffffffff1673ffffffffffffffffffffffffffffffffffffffff16815260200190815260200160002060003373ffffffffffffffffffffffffffffffffffffffff1673ffffffffffffffffffffffffffffffffffffffff16815260200190815260200160002054611de990919063ffffffff16565b600460008073ffffffffffffffffffffffffffffffffffffffff1673ffffffffffffffffffffffffffffffffffffffff16815260200190815260200160002060003373ffffffffffffffffffffffffffffffffffffffff1673ffffffffffffffffffffffffffffffffffffffff168152602001908152602001600020819055503373ffffffffffffffffffffffffffffffffffffffff166108fc829081150290604051600060405180830381858888f19350505050158015610c57573d6000803e3d6000fd5b507ff341246adaac6f497bc2a656f546ab9e182111d630394f0c57c710a59a2cb56760003383600460008073ffffffffffffffffffffffffffffffffffffffff1673ffffffffffffffffffffffffffffffffffffffff16815260200190815260200160002060003373ffffffffffffffffffffffffffffffffffffffff1673ffffffffffffffffffffffffffffffffffffffff16815260200190815260200160002054604051610d0a9493929190612bed565b60405180910390a150565b60076020528060005260406000206000915054906101000a900460ff1681565b6060600060085490506000808267ffffffffffffffff811115610d81577f4e487b7100000000000000000000000000000000000000000000000000000000600052604160045260246000fd5b604051908082528060200260200182016040528015610dba57816020015b610da7612505565b815260200190600190039081610d9f5790505b50905060005b83811015610fcb57600060056000600184610ddb9190612f4a565b81526020019081526020016000206000015490506006600082815260200190815260200160002060009054906101000a900460ff1615610fb7576000600560008381526020019081526020016000209050806040518060e0016040529081600082015481526020016001820160009054906101000a900473ffffffffffffffffffffffffffffffffffffffff1673ffffffffffffffffffffffffffffffffffffffff1673ffffffffffffffffffffffffffffffffffffffff1681526020016002820160009054906101000a900473ffffffffffffffffffffffffffffffffffffffff1673ffffffffffffffffffffffffffffffffffffffff1673ffffffffffffffffffffffffffffffffffffffff168152602001600382015481526020016004820160009054906101000a900473ffffffffffffffffffffffffffffffffffffffff1673ffffffffffffffffffffffffffffffffffffffff1673ffffffffffffffffffffffffffffffffffffffff16815260200160058201548152602001600682015481525050848681518110610f9b577f4e487b7100000000000000000000000000000000000000000000000000000000600052603260045260246000fd5b6020026020010181905250600185610fb39190612f4a565b9450505b508080610fc3906130b9565b915050610dc0565b5080935050505090565b6004602052816000526040600020602052806000526040600020600091509150505481565b6000806005600084815260200190815260200160002090503373ffffffffffffffffffffffffffffffffffffffff168160010160009054906101000a900473ffffffffffffffffffffffffffffffffffffffff1673ffffffffffffffffffffffffffffffffffffffff16146110a4576040517f08c379a000000000000000000000000000000000000000000000000000000000815260040161109b90612cf8565b60405180910390fd5b806000015483146110ea576040517f08c379a00000000000000000000000000000000000000000000000000000000081526004016110e190612cb8565b60405180910390fd5b60016006600085815260200190815260200160002060006101000a81548160ff02191690831515021790555060096000815480929190611129906130b9565b91905055507f77de1da0be5f2d3b110d05c6694e5c4ff2d9da7cd23d84353ecf78c7b5acec61838260010160009054906101000a900473ffffffffffffffffffffffffffffffffffffffff168360020160009054906101000a900473ffffffffffffffffffffffffffffffffffffffff1684600301548560040160009054906101000a900473ffffffffffffffffffffffffffffffffffffffff168660050154426040516111dd9796959493929190612e91565b60405180910390a16006600084815260200190815260200160002060009054906101000a900460ff16915050919050565b600260009054906101000a900473ffffffffffffffffffffffffffffffffffffffff1681565b6002600054141561127a576040517f08c379a000000000000000000000000000000000000000000000000000000000815260040161127190612d98565b60405180910390fd5b600260008190555060008111801561129457506008548111155b6112d3576040517f08c379a00000000000000000000000000000000000000000000000000000000081526004016112ca90612d78565b60405180910390fd5b6006600082815260200190815260200160002060009054906101000a900460ff1615611334576040517f08c379a000000000000000000000000000000000000000000000000000000000815260040161132b90612db8565b60405180910390fd5b6007600082815260200190815260200160002060009054906101000a900460ff1615611395576040517f08c379a000000000000000000000000000000000000000000000000000000000815260040161138c90612dd8565b60405180910390fd5b600060056000838152602001908152602001600020905061143281600001548260010160009054906101000a900473ffffffffffffffffffffffffffffffffffffffff168360020160009054906101000a900473ffffffffffffffffffffffffffffffffffffffff1684600301548560040160009054906101000a900473ffffffffffffffffffffffffffffffffffffffff168660050154611dff565b60016007600084815260200190815260200160002060006101000a81548160ff02191690831515021790555050600160008190555050565b60035481565b6114ff34600460008073ffffffffffffffffffffffffffffffffffffffff1673ffffffffffffffffffffffffffffffffffffffff16815260200190815260200160002060003373ffffffffffffffffffffffffffffffffffffffff1673ffffffffffffffffffffffffffffffffffffffff16815260200190815260200160002054611dd390919063ffffffff16565b600460008073ffffffffffffffffffffffffffffffffffffffff1673ffffffffffffffffffffffffffffffffffffffff16815260200190815260200160002060003373ffffffffffffffffffffffffffffffffffffffff1673ffffffffffffffffffffffffffffffffffffffff168152602001908152602001600020819055507fdcbc1c05240f31ff3ad067ef1ee35ce4997762752e3a095284754544f4c709d760003334600460008073ffffffffffffffffffffffffffffffffffffffff1673ffffffffffffffffffffffffffffffffffffffff16815260200190815260200160002060003373ffffffffffffffffffffffffffffffffffffffff1673ffffffffffffffffffffffffffffffffffffffff168152602001908152602001600020546040516116319493929190612bed565b60405180910390a1565b6116516001600854611dd390919063ffffffff16565b6008819055506040518060e0016040528060085481526020013373ffffffffffffffffffffffffffffffffffffffff1681526020018573ffffffffffffffffffffffffffffffffffffffff1681526020018481526020018373ffffffffffffffffffffffffffffffffffffffff168152602001828152602001428152506005600060085481526020019081526020016000206000820151816000015560208201518160010160006101000a81548173ffffffffffffffffffffffffffffffffffffffff021916908373ffffffffffffffffffffffffffffffffffffffff16021790555060408201518160020160006101000a81548173ffffffffffffffffffffffffffffffffffffffff021916908373ffffffffffffffffffffffffffffffffffffffff1602179055506060820151816003015560808201518160040160006101000a81548173ffffffffffffffffffffffffffffffffffffffff021916908373ffffffffffffffffffffffffffffffffffffffff16021790555060a0820151816005015560c082015181600601559050507f9d33853d43e3607b4cc01fdc78338ff2dca6fef7db9232dae6d3eb55fbc3b1096008543386868686426040516118209796959493929190612e91565b60405180910390a150505050565b600073ffffffffffffffffffffffffffffffffffffffff168273ffffffffffffffffffffffffffffffffffffffff16141561189e576040517f08c379a000000000000000000000000000000000000000000000000000000000815260040161189590612c98565b60405180910390fd5b80600460008473ffffffffffffffffffffffffffffffffffffffff1673ffffffffffffffffffffffffffffffffffffffff16815260200190815260200160002060003373ffffffffffffffffffffffffffffffffffffffff1673ffffffffffffffffffffffffffffffffffffffff16815260200190815260200160002054101561195d576040517f08c379a000000000000000000000000000000000000000000000000000000000815260040161195490612cd8565b60405180910390fd5b6119ec81600460008573ffffffffffffffffffffffffffffffffffffffff1673ffffffffffffffffffffffffffffffffffffffff16815260200190815260200160002060003373ffffffffffffffffffffffffffffffffffffffff1673ffffffffffffffffffffffffffffffffffffffff16815260200190815260200160002054611de990919063ffffffff16565b600460008473ffffffffffffffffffffffffffffffffffffffff1673ffffffffffffffffffffffffffffffffffffffff16815260200190815260200160002060003373ffffffffffffffffffffffffffffffffffffffff1673ffffffffffffffffffffffffffffffffffffffff168152602001908152602001600020819055508173ffffffffffffffffffffffffffffffffffffffff1663a9059cbb33836040518363ffffffff1660e01b8152600401611aa7929190612c32565b602060405180830381600087803b158015611ac157600080fd5b505af1158015611ad5573d6000803e3d6000fd5b505050506040513d601f19601f82011682018060405250810190611af9919061269e565b611b38576040517f08c379a0000000000000000000000000000000000000000000000000000000008152600401611b2f90612d38565b60405180910390fd5b7ff341246adaac6f497bc2a656f546ab9e182111d630394f0c57c710a59a2cb567823383600460008773ffffffffffffffffffffffffffffffffffffffff1673ffffffffffffffffffffffffffffffffffffffff16815260200190815260200160002060003373ffffffffffffffffffffffffffffffffffffffff1673ffffffffffffffffffffffffffffffffffffffff16815260200190815260200160002054604051611be99493929190612bed565b60405180910390a15050565b60056020528060005260406000206000915090508060000154908060010160009054906101000a900473ffffffffffffffffffffffffffffffffffffffff16908060020160009054906101000a900473ffffffffffffffffffffffffffffffffffffffff16908060030154908060040160009054906101000a900473ffffffffffffffffffffffffffffffffffffffff16908060050154908060060154905087565b60003373ffffffffffffffffffffffffffffffffffffffff16600160009054906101000a900473ffffffffffffffffffffffffffffffffffffffff1673ffffffffffffffffffffffffffffffffffffffff161415611cf85760019050611cfd565b600090505b90565b60095481565b60066020528060005260406000206000915054906101000a900460ff1681565b6000600460008473ffffffffffffffffffffffffffffffffffffffff1673ffffffffffffffffffffffffffffffffffffffff16815260200190815260200160002060008373ffffffffffffffffffffffffffffffffffffffff1673ffffffffffffffffffffffffffffffffffffffff16815260200190815260200160002054905092915050565b600160009054906101000a900473ffffffffffffffffffffffffffffffffffffffff1681565b60008183611de19190612f4a565b905092915050565b60008183611df7919061302b565b905092915050565b600460008373ffffffffffffffffffffffffffffffffffffffff1673ffffffffffffffffffffffffffffffffffffffff16815260200190815260200160002060008673ffffffffffffffffffffffffffffffffffffffff1673ffffffffffffffffffffffffffffffffffffffff16815260200190815260200160002054811115611ebe576040517f08c379a0000000000000000000000000000000000000000000000000000000008152600401611eb590612d18565b60405180910390fd5b6000611ee86064611eda600354876124d990919063ffffffff16565b6124ef90919063ffffffff16565b9050611f8b611f008286611dd390919063ffffffff16565b600460008873ffffffffffffffffffffffffffffffffffffffff1673ffffffffffffffffffffffffffffffffffffffff16815260200190815260200160002060003373ffffffffffffffffffffffffffffffffffffffff1673ffffffffffffffffffffffffffffffffffffffff16815260200190815260200160002054611de990919063ffffffff16565b600460008773ffffffffffffffffffffffffffffffffffffffff1673ffffffffffffffffffffffffffffffffffffffff16815260200190815260200160002060003373ffffffffffffffffffffffffffffffffffffffff1673ffffffffffffffffffffffffffffffffffffffff1681526020019081526020016000208190555061209a84600460008873ffffffffffffffffffffffffffffffffffffffff1673ffffffffffffffffffffffffffffffffffffffff16815260200190815260200160002060008973ffffffffffffffffffffffffffffffffffffffff1673ffffffffffffffffffffffffffffffffffffffff16815260200190815260200160002054611dd390919063ffffffff16565b600460008773ffffffffffffffffffffffffffffffffffffffff1673ffffffffffffffffffffffffffffffffffffffff16815260200190815260200160002060008873ffffffffffffffffffffffffffffffffffffffff1673ffffffffffffffffffffffffffffffffffffffff168152602001908152602001600020819055506121cb81600460008873ffffffffffffffffffffffffffffffffffffffff1673ffffffffffffffffffffffffffffffffffffffff1681526020019081526020016000206000600260009054906101000a900473ffffffffffffffffffffffffffffffffffffffff1673ffffffffffffffffffffffffffffffffffffffff1673ffffffffffffffffffffffffffffffffffffffff16815260200190815260200160002054611dd390919063ffffffff16565b600460008773ffffffffffffffffffffffffffffffffffffffff1673ffffffffffffffffffffffffffffffffffffffff1681526020019081526020016000206000600260009054906101000a900473ffffffffffffffffffffffffffffffffffffffff1673ffffffffffffffffffffffffffffffffffffffff1673ffffffffffffffffffffffffffffffffffffffff168152602001908152602001600020819055506122fc82600460008673ffffffffffffffffffffffffffffffffffffffff1673ffffffffffffffffffffffffffffffffffffffff16815260200190815260200160002060008973ffffffffffffffffffffffffffffffffffffffff1673ffffffffffffffffffffffffffffffffffffffff16815260200190815260200160002054611de990919063ffffffff16565b600460008573ffffffffffffffffffffffffffffffffffffffff1673ffffffffffffffffffffffffffffffffffffffff16815260200190815260200160002060008873ffffffffffffffffffffffffffffffffffffffff1673ffffffffffffffffffffffffffffffffffffffff1681526020019081526020016000208190555061240b82600460008673ffffffffffffffffffffffffffffffffffffffff1673ffffffffffffffffffffffffffffffffffffffff16815260200190815260200160002060003373ffffffffffffffffffffffffffffffffffffffff1673ffffffffffffffffffffffffffffffffffffffff16815260200190815260200160002054611dd390919063ffffffff16565b600460008573ffffffffffffffffffffffffffffffffffffffff1673ffffffffffffffffffffffffffffffffffffffff16815260200190815260200160002060003373ffffffffffffffffffffffffffffffffffffffff1673ffffffffffffffffffffffffffffffffffffffff168152602001908152602001600020819055507f0dddf4182dc0fc1a311cb75f049c97403c6b8a99cf6b2229a36e7c526acb3f8187878787878733426040516124c8989796959493929190612e13565b60405180910390a150505050505050565b600081836124e79190612fd1565b905092915050565b600081836124fd9190612fa0565b905092915050565b6040518060e0016040528060008152602001600073ffffffffffffffffffffffffffffffffffffffff168152602001600073ffffffffffffffffffffffffffffffffffffffff16815260200160008152602001600073ffffffffffffffffffffffffffffffffffffffff16815260200160008152602001600081525090565b60008135905061259381613160565b92915050565b6000815190506125a881613177565b92915050565b6000813590506125bd8161318e565b92915050565b600080604083850312156125d657600080fd5b60006125e485828601612584565b92505060206125f585828601612584565b9150509250929050565b6000806040838503121561261257600080fd5b600061262085828601612584565b9250506020612631858286016125ae565b9150509250929050565b6000806000806080858703121561265157600080fd5b600061265f87828801612584565b9450506020612670878288016125ae565b935050604061268187828801612584565b9250506060612692878288016125ae565b91505092959194509250565b6000602082840312156126b057600080fd5b60006126be84828501612599565b91505092915050565b6000602082840312156126d957600080fd5b60006126e7848285016125ae565b91505092915050565b60006126fc8383612ad4565b60e08301905092915050565b61271181613071565b82525050565b6127208161305f565b82525050565b61272f8161305f565b82525050565b600061274082612f10565b61274a8185612f28565b935061275583612f00565b8060005b8381101561278657815161276d88826126f0565b975061277883612f1b565b925050600181019050612759565b5085935050505092915050565b61279c81613083565b82525050565b60006127af602983612f39565b91507f4e616f206520706f73736976656c20656e7669617220455448206e657374612060008301527f6f7065726163616f2e00000000000000000000000000000000000000000000006020830152604082019050919050565b6000612815601283612f39565b91507f4e6f742076616c6964206f7264657220696400000000000000000000000000006000830152602082019050919050565b6000612855601a83612f39565b91507f4e616f20686120746f6b656e7320737566696369656e7465732e0000000000006000830152602082019050919050565b6000612895602c83612f39565b91507f45737461206f7264656d20736f20706f64207365722072656d6f76696461207060008301527f656c6f2063726961646f722e00000000000000000000000000000000000000006020830152604082019050919050565b60006128fb602a83612f39565b91507f4e616f20686120746f6b656e7320737566696369656e746520646f20646f6e6f60008301527f206461206f7264656d2e000000000000000000000000000000000000000000006020830152604082019050919050565b6000612961601c83612f39565b91507f4e616f20666f6920706f73736976656c207472616e7366657269722e000000006000830152602082019050919050565b60006129a1601583612f39565b91507f4e616f2068612045544820737566696369656e746500000000000000000000006000830152602082019050919050565b60006129e1601983612f39565b91507f4e756d65726f206465206f7264656d20696e76616c6964612e000000000000006000830152602082019050919050565b6000612a21601f83612f39565b91507f5265656e7472616e637947756172643a207265656e7472616e742063616c6c006000830152602082019050919050565b6000612a61601b83612f39565b91507f4f726465722063616e63656c6c6564206265666f72652066696c6c00000000006000830152602082019050919050565b6000612aa1601483612f39565b91507f4f726465722066696c6c656420616c72656164790000000000000000000000006000830152602082019050919050565b60e082016000820151612aea6000850182612b62565b506020820151612afd6020850182612717565b506040820151612b106040850182612717565b506060820151612b236060850182612b62565b506080820151612b366080850182612717565b5060a0820151612b4960a0850182612b62565b5060c0820151612b5c60c0850182612b62565b50505050565b612b6b816130af565b82525050565b612b7a816130af565b82525050565b6000602082019050612b956000830184612726565b92915050565b6000602082019050612bb06000830184612708565b92915050565b6000606082019050612bcb6000830186612726565b612bd86020830185612726565b612be56040830184612b71565b949350505050565b6000608082019050612c026000830187612726565b612c0f6020830186612726565b612c1c6040830185612b71565b612c296060830184612b71565b95945050505050565b6000604082019050612c476000830185612726565b612c546020830184612b71565b9392505050565b60006020820190508181036000830152612c758184612735565b905092915050565b6000602082019050612c926000830184612793565b92915050565b60006020820190508181036000830152612cb1816127a2565b9050919050565b60006020820190508181036000830152612cd181612808565b9050919050565b60006020820190508181036000830152612cf181612848565b9050919050565b60006020820190508181036000830152612d1181612888565b9050919050565b60006020820190508181036000830152612d31816128ee565b9050919050565b60006020820190508181036000830152612d5181612954565b9050919050565b60006020820190508181036000830152612d7181612994565b9050919050565b60006020820190508181036000830152612d91816129d4565b9050919050565b60006020820190508181036000830152612db181612a14565b9050919050565b60006020820190508181036000830152612dd181612a54565b9050919050565b60006020820190508181036000830152612df181612a94565b9050919050565b6000602082019050612e0d6000830184612b71565b92915050565b600061010082019050612e29600083018b612b71565b612e36602083018a612726565b612e436040830189612726565b612e506060830188612b71565b612e5d6080830187612726565b612e6a60a0830186612b71565b612e7760c0830185612726565b612e8460e0830184612b71565b9998505050505050505050565b600060e082019050612ea6600083018a612b71565b612eb36020830189612726565b612ec06040830188612726565b612ecd6060830187612b71565b612eda6080830186612726565b612ee760a0830185612b71565b612ef460c0830184612b71565b98975050505050505050565b6000819050602082019050919050565b600081519050919050565b6000602082019050919050565b600082825260208201905092915050565b600082825260208201905092915050565b6000612f55826130af565b9150612f60836130af565b9250827fffffffffffffffffffffffffffffffffffffffffffffffffffffffffffffffff03821115612f9557612f94613102565b5b828201905092915050565b6000612fab826130af565b9150612fb6836130af565b925082612fc657612fc5613131565b5b828204905092915050565b6000612fdc826130af565b9150612fe7836130af565b9250817fffffffffffffffffffffffffffffffffffffffffffffffffffffffffffffffff04831182151516156130205761301f613102565b5b828202905092915050565b6000613036826130af565b9150613041836130af565b92508282101561305457613053613102565b5b828203905092915050565b600061306a8261308f565b9050919050565b600061307c8261308f565b9050919050565b60008115159050919050565b600073ffffffffffffffffffffffffffffffffffffffff82169050919050565b6000819050919050565b60006130c4826130af565b91507fffffffffffffffffffffffffffffffffffffffffffffffffffffffffffffffff8214156130f7576130f6613102565b5b600182019050919050565b7f4e487b7100000000000000000000000000000000000000000000000000000000600052601160045260246000fd5b7f4e487b7100000000000000000000000000000000000000000000000000000000600052601260045260246000fd5b6131698161305f565b811461317457600080fd5b50565b61318081613083565b811461318b57600080fd5b50565b613197816130af565b81146131a257600080fd5b5056fea264697066735822122072c83103e84bf63f60b7f81b1befc6f19e2f5a6858dc5a281268f5b2287dedd364736f6c63430008000033",
  "immutableReferences": {},
  "source": "// SPDX-License-Identifier: MIT\npragma solidity ^0.8.0;\n\nimport \"@openzeppelin/contracts/token/ERC20/IERC20.sol\";\nimport \"@openzeppelin/contracts/utils/math/SafeMath.sol\";\nimport \"@openzeppelin/contracts/security/ReentrancyGuard.sol\";\n\ncontract Exchange is ReentrancyGuard  {\n\n    using SafeMath for uint256;\n\n    //vars\n    address public admin;\n    address constant ETHER = address(0);\n    address payable public feeAccount;\n    uint256 public feePercent;\n    mapping(address => mapping(address => uint256)) public tokens;\n    mapping(uint256 => _Order) public orders;\n    mapping(uint256 => bool) public orderCancelled;\n    mapping(uint256 => bool) public orderFilled;\n    uint256 public orderCount;\n    uint256 public orderCancelledCount;\n    //structs\n    struct _Order {\n        uint256 id;\n        address user;\n        address tokenGet;\n        uint256 amountGet;\n        address tokenGive;\n        uint256 amountGive;\n        uint256 timestamp;\n    }\n\n    //events\n    event Deposit(address _token, address _user, uint256 _amount, uint256 _balance);\n    event Withdraw(address _token, address _user, uint256 _amount, uint256 _balance);\n    event Order(uint256 _id, address _user, address _tokenGet, uint256 _amountGet,\n        address _tokenGive, uint256 _amountGive, uint256 _timestamp);\n    event Cancel(uint256 _id, address _user, address _tokenGet, uint256 _amountGet, address _tokenGive, uint256 _amountGive,\n        uint256 _timestamp);\n    event Trade(uint256 _id, address _user, address _tokenGet, uint256 _amountGet, address _tokenGive, uint256 _amountGive,\n        address _userFill, uint256 _timestamp);\n\n\n    //constructor\n    constructor (address  _feeAccount, uint256 _feePercent)  \n     {\n        admin = msg.sender;\n        feeAccount =  payable(_feeAccount);\n        feePercent = _feePercent;\n    }\n\n    modifier onlyOwner {\n       require(msg.sender == admin);\n       _;\n    }\n    function isAdmin() public view  returns (bool){\n        if(admin == msg.sender){\n            return true;\n        } else {\n            return false;\n        }\n    }\n\n    function fetchCanceledOrders() public view returns (_Order[] memory) {\n        uint256 itemCount = orderCount;\n        //uint unsoldItemCount = _itemIds.current() - _itemsSold.current();\n        uint currentIndex = 0;\n\n        _Order[] memory items = new _Order[](itemCount);\n        for (uint i = 0; i < itemCount; i++) {\n            \n            uint currentId = orders[i+1].id;\n            if (orderCancelled[currentId])\n            {\n                _Order storage currentItem = orders[currentId];\n                items[currentIndex] = currentItem;\n                currentIndex += 1;\n            }\n            \n        \n        }\n    \n        return items;\n    }\n\n    function fetchOrders() public view returns (_Order[] memory) {\n        uint256 itemCount = orderCount;\n        //uint unsoldItemCount = _itemIds.current() - _itemsSold.current();\n        uint currentIndex = 0;\n\n        _Order[] memory items = new _Order[](itemCount);\n        for (uint i = 0; i < itemCount; i++) {\n        \n            uint currentId = orders[i+1].id;\n            _Order storage currentItem = orders[currentId];\n            items[currentIndex] = currentItem;\n            currentIndex += 1;\n        \n        }\n    \n        return items;\n    }\n    \n    function fillOrder(uint256 _id) public payable nonReentrant{\n        //require order is valid, not filled or cancelled already\n        require(_id > 0 && _id <= orderCount, \"Numero de ordem invalida.\");\n        require(!orderCancelled[_id], \"Order cancelled before fill\");\n        require(!orderFilled[_id], \"Order filled already\");\n        //fetch order\n        _Order storage _order = orders[_id];\n        //do trade\n        _trade(_order.id, _order.user, _order.tokenGet, _order.amountGet, _order.tokenGive, _order.amountGive);\n        //mark order as filled\n        orderFilled[_id] = true;\n    }\n\n    function _trade(uint256 _id, address _user, address _tokenGet, uint256 _amountGet, address _tokenGive, uint256 _amountGive) internal {\n        //charge fees - taken from filler of order (msg.sender)\n        require(_amountGive <= tokens[_tokenGive][_user], \"Nao ha tokens suficiente do dono da ordem.\");\n\n        uint256 _feeAmount = _amountGet.mul(feePercent).div(100);\n        //DO TRADE\n        //msg.sender is the person filling order, _user the person who made the order\n        //move order fillers tokens to order maker, whilst subtracting fees from filler\n        tokens[_tokenGet][msg.sender] = tokens[_tokenGet][msg.sender].sub(_amountGet.add(_feeAmount));\n        tokens[_tokenGet][_user] = tokens[_tokenGet][_user].add(_amountGet);\n        //take fees to fee account\n        tokens[_tokenGet][feeAccount] = tokens[_tokenGet][feeAccount].add(_feeAmount);\n        //move order makers tokens to order filler\n        tokens[_tokenGive][_user] = tokens[_tokenGive][_user].sub(_amountGive);\n        tokens[_tokenGive][msg.sender] = tokens[_tokenGive][msg.sender].add(_amountGive);\n        //emit event\n        emit Trade(_id, _user, _tokenGet, _amountGet, _tokenGive, _amountGive, msg.sender, block.timestamp);\n    }\n\n    //make order\n    function makeOrder(address _tokenGet, uint256 _amountGet, address _tokenGive, uint256 _amountGive) public {\n        //increment ordercount\n        orderCount = orderCount.add(1);\n        //add order to orders mapping by creating new struct\n        orders[orderCount] = _Order(orderCount, msg.sender, _tokenGet, _amountGet, _tokenGive, _amountGive, block.timestamp);\n        //emit event\n        emit Order(orderCount, msg.sender, _tokenGet, _amountGet, _tokenGive, _amountGive, block.timestamp);\n    }\n\n    //cancel order\n    function cancelOrder(uint256 _id) public returns (bool){\n        //retrieve order\n        _Order storage _order = orders[_id];\n        //require user is owner of order\n        require(address(_order.user) == msg.sender, \"Esta ordem so pod ser removida pelo criador.\");\n        //require valid order id\n        require(_id == _order.id, \"Not valid order id\");\n        //add to cancelled orders mapping\n        orderCancelled[_id] = true;\n        orderCancelledCount++;\n        //emit event\n        emit Cancel(_id, _order.user, _order.tokenGet, _order.amountGet, _order.tokenGive, _order.amountGive, block.timestamp);\n        //return true for cancelled order\n        return orderCancelled[_id];\n    }\n\n    //deposit erc20 tokens\n    function depositToken(address _tokenAddress, uint256 _amount) public {\n        //don't allow ether deposits\n        require(_tokenAddress != ETHER, \"Nao e possivel enviar ETH nesta operacao.\");\n        //require this so we only continue if transfer occurs\n        require(IERC20(_tokenAddress).transferFrom(msg.sender, address(this), _amount), \"Nao foi possivel transferir.\");\n        //add to balance\n        tokens[_tokenAddress][msg.sender] = tokens[_tokenAddress][msg.sender].add(_amount);\n        //emit event\n        emit Deposit(_tokenAddress, msg.sender, _amount, tokens[_tokenAddress][msg.sender]);\n    }\n\n    //withdraw erc20 tokens\n    function withdrawToken(address _tokenAddress, uint256 _amount) public {\n        //dont allow ether\n        require(_tokenAddress != ETHER, \"Nao e possivel enviar ETH nesta operacao.\");\n        //require balance to be greater than amount\n        require(tokens[_tokenAddress][msg.sender] >= _amount, \"Nao ha tokens suficientes.\");\n        //subtract tokens\n        tokens[_tokenAddress][msg.sender] = tokens[_tokenAddress][msg.sender].sub(_amount);\n        //send tokens and require the transfer goes through\n        require(IERC20(_tokenAddress).transfer(msg.sender, _amount), \"Nao foi possivel transferir.\");\n        //emit event\n        emit Withdraw(_tokenAddress, msg.sender, _amount, tokens[_tokenAddress][msg.sender]);\n    }\n\n    //deposit ether\n    function depositEther() public payable {\n        //use tokens mapping to store ether\n        tokens[ETHER][msg.sender] = tokens[ETHER][msg.sender].add(msg.value);\n        //emit event\n        emit Deposit(ETHER, msg.sender, msg.value, tokens[ETHER][msg.sender]);\n    }\n\n    //withdraw ether\n    function withdrawEther(uint256 _amount) public {\n        //require balance to be greater than amount\n        require(tokens[ETHER][msg.sender] >= _amount, \"Nao ha ETH suficiente\");\n        //subtract ether\n        tokens[ETHER][msg.sender] = tokens[ETHER][msg.sender].sub(_amount);\n        //send ether\n        payable(msg.sender).transfer(_amount);\n        //emit event\n        emit Withdraw(ETHER, msg.sender, _amount, tokens[ETHER][msg.sender]);\n    }\n\n    //balance of user\n    function balanceOf(address _tokenAddress, address _user) public view returns (uint256){\n        return tokens[_tokenAddress][_user];\n    }\n\n}",
  "sourcePath": "D:\\projetos\\blockchain\\dex-next\\src\\contracts\\Exchange.sol",
  "compiler": {
    "name": "solc",
    "version": "0.8.0+commit.c7dfd78e.Emscripten.clang"
  },
  "schemaVersion": "3.4.3",
  "updatedAt": "2022-08-13T14:55:53.696Z",
  "networkType": "ethereum",
  "devdoc": {
    "kind": "dev",
    "methods": {},
    "version": 1
  },
  "userdoc": {
    "kind": "user",
    "methods": {},
    "version": 1
  }
}