{
  "contractName": "Exchange",
  "abi": [
    {
      "inputs": [
        {
          "internalType": "address",
          "name": "_feeAccount",
          "type": "address"
        },
        {
          "internalType": "uint256",
          "name": "_feePercent",
          "type": "uint256"
        }
      ],
      "stateMutability": "nonpayable",
      "type": "constructor"
    },
    {
      "anonymous": false,
      "inputs": [
        {
          "indexed": false,
          "internalType": "uint256",
          "name": "_id",
          "type": "uint256"
        },
        {
          "indexed": false,
          "internalType": "address",
          "name": "_user",
          "type": "address"
        },
        {
          "indexed": false,
          "internalType": "address",
          "name": "_tokenGet",
          "type": "address"
        },
        {
          "indexed": false,
          "internalType": "uint256",
          "name": "_amountGet",
          "type": "uint256"
        },
        {
          "indexed": false,
          "internalType": "address",
          "name": "_tokenGive",
          "type": "address"
        },
        {
          "indexed": false,
          "internalType": "uint256",
          "name": "_amountGive",
          "type": "uint256"
        },
        {
          "indexed": false,
          "internalType": "uint256",
          "name": "_timestamp",
          "type": "uint256"
        }
      ],
      "name": "Cancel",
      "type": "event"
    },
    {
      "anonymous": false,
      "inputs": [
        {
          "indexed": false,
          "internalType": "address",
          "name": "_token",
          "type": "address"
        },
        {
          "indexed": false,
          "internalType": "address",
          "name": "_user",
          "type": "address"
        },
        {
          "indexed": false,
          "internalType": "uint256",
          "name": "_amount",
          "type": "uint256"
        },
        {
          "indexed": false,
          "internalType": "uint256",
          "name": "_balance",
          "type": "uint256"
        }
      ],
      "name": "Deposit",
      "type": "event"
    },
    {
      "anonymous": false,
      "inputs": [
        {
          "indexed": false,
          "internalType": "uint256",
          "name": "_id",
          "type": "uint256"
        },
        {
          "indexed": false,
          "internalType": "address",
          "name": "_user",
          "type": "address"
        },
        {
          "indexed": false,
          "internalType": "address",
          "name": "_tokenGet",
          "type": "address"
        },
        {
          "indexed": false,
          "internalType": "uint256",
          "name": "_amountGet",
          "type": "uint256"
        },
        {
          "indexed": false,
          "internalType": "address",
          "name": "_tokenGive",
          "type": "address"
        },
        {
          "indexed": false,
          "internalType": "uint256",
          "name": "_amountGive",
          "type": "uint256"
        },
        {
          "indexed": false,
          "internalType": "uint256",
          "name": "_timestamp",
          "type": "uint256"
        }
      ],
      "name": "Order",
      "type": "event"
    },
    {
      "anonymous": false,
      "inputs": [
        {
          "indexed": false,
          "internalType": "uint256",
          "name": "_id",
          "type": "uint256"
        },
        {
          "indexed": false,
          "internalType": "address",
          "name": "_user",
          "type": "address"
        },
        {
          "indexed": false,
          "internalType": "address",
          "name": "_tokenGet",
          "type": "address"
        },
        {
          "indexed": false,
          "internalType": "uint256",
          "name": "_amountGet",
          "type": "uint256"
        },
        {
          "indexed": false,
          "internalType": "address",
          "name": "_tokenGive",
          "type": "address"
        },
        {
          "indexed": false,
          "internalType": "uint256",
          "name": "_amountGive",
          "type": "uint256"
        },
        {
          "indexed": false,
          "internalType": "address",
          "name": "_userFill",
          "type": "address"
        },
        {
          "indexed": false,
          "internalType": "uint256",
          "name": "_timestamp",
          "type": "uint256"
        }
      ],
      "name": "Trade",
      "type": "event"
    },
    {
      "anonymous": false,
      "inputs": [
        {
          "indexed": false,
          "internalType": "address",
          "name": "_token",
          "type": "address"
        },
        {
          "indexed": false,
          "internalType": "address",
          "name": "_user",
          "type": "address"
        },
        {
          "indexed": false,
          "internalType": "uint256",
          "name": "_amount",
          "type": "uint256"
        },
        {
          "indexed": false,
          "internalType": "uint256",
          "name": "_balance",
          "type": "uint256"
        }
      ],
      "name": "Withdraw",
      "type": "event"
    },
    {
      "inputs": [],
      "name": "feeAccount",
      "outputs": [
        {
          "internalType": "address payable",
          "name": "",
          "type": "address"
        }
      ],
      "stateMutability": "view",
      "type": "function"
    },
    {
      "inputs": [],
      "name": "feePercent",
      "outputs": [
        {
          "internalType": "uint256",
          "name": "",
          "type": "uint256"
        }
      ],
      "stateMutability": "view",
      "type": "function"
    },
    {
      "inputs": [
        {
          "internalType": "uint256",
          "name": "",
          "type": "uint256"
        }
      ],
      "name": "orderCancelled",
      "outputs": [
        {
          "internalType": "bool",
          "name": "",
          "type": "bool"
        }
      ],
      "stateMutability": "view",
      "type": "function"
    },
    {
      "inputs": [],
      "name": "orderCancelledCount",
      "outputs": [
        {
          "internalType": "uint256",
          "name": "",
          "type": "uint256"
        }
      ],
      "stateMutability": "view",
      "type": "function"
    },
    {
      "inputs": [],
      "name": "orderCount",
      "outputs": [
        {
          "internalType": "uint256",
          "name": "",
          "type": "uint256"
        }
      ],
      "stateMutability": "view",
      "type": "function"
    },
    {
      "inputs": [
        {
          "internalType": "uint256",
          "name": "",
          "type": "uint256"
        }
      ],
      "name": "orderFilled",
      "outputs": [
        {
          "internalType": "bool",
          "name": "",
          "type": "bool"
        }
      ],
      "stateMutability": "view",
      "type": "function"
    },
    {
      "inputs": [
        {
          "internalType": "uint256",
          "name": "",
          "type": "uint256"
        }
      ],
      "name": "orders",
      "outputs": [
        {
          "internalType": "uint256",
          "name": "id",
          "type": "uint256"
        },
        {
          "internalType": "address",
          "name": "user",
          "type": "address"
        },
        {
          "internalType": "address",
          "name": "tokenGet",
          "type": "address"
        },
        {
          "internalType": "uint256",
          "name": "amountGet",
          "type": "uint256"
        },
        {
          "internalType": "address",
          "name": "tokenGive",
          "type": "address"
        },
        {
          "internalType": "uint256",
          "name": "amountGive",
          "type": "uint256"
        },
        {
          "internalType": "uint256",
          "name": "timestamp",
          "type": "uint256"
        }
      ],
      "stateMutability": "view",
      "type": "function"
    },
    {
      "inputs": [
        {
          "internalType": "address",
          "name": "",
          "type": "address"
        },
        {
          "internalType": "address",
          "name": "",
          "type": "address"
        }
      ],
      "name": "tokens",
      "outputs": [
        {
          "internalType": "uint256",
          "name": "",
          "type": "uint256"
        }
      ],
      "stateMutability": "view",
      "type": "function"
    },
    {
      "inputs": [],
      "name": "fetchCanceledOrders",
      "outputs": [
        {
          "components": [
            {
              "internalType": "uint256",
              "name": "id",
              "type": "uint256"
            },
            {
              "internalType": "address",
              "name": "user",
              "type": "address"
            },
            {
              "internalType": "address",
              "name": "tokenGet",
              "type": "address"
            },
            {
              "internalType": "uint256",
              "name": "amountGet",
              "type": "uint256"
            },
            {
              "internalType": "address",
              "name": "tokenGive",
              "type": "address"
            },
            {
              "internalType": "uint256",
              "name": "amountGive",
              "type": "uint256"
            },
            {
              "internalType": "uint256",
              "name": "timestamp",
              "type": "uint256"
            }
          ],
          "internalType": "struct Exchange._Order[]",
          "name": "",
          "type": "tuple[]"
        }
      ],
      "stateMutability": "view",
      "type": "function"
    },
    {
      "inputs": [],
      "name": "fetchOrders",
      "outputs": [
        {
          "components": [
            {
              "internalType": "uint256",
              "name": "id",
              "type": "uint256"
            },
            {
              "internalType": "address",
              "name": "user",
              "type": "address"
            },
            {
              "internalType": "address",
              "name": "tokenGet",
              "type": "address"
            },
            {
              "internalType": "uint256",
              "name": "amountGet",
              "type": "uint256"
            },
            {
              "internalType": "address",
              "name": "tokenGive",
              "type": "address"
            },
            {
              "internalType": "uint256",
              "name": "amountGive",
              "type": "uint256"
            },
            {
              "internalType": "uint256",
              "name": "timestamp",
              "type": "uint256"
            }
          ],
          "internalType": "struct Exchange._Order[]",
          "name": "",
          "type": "tuple[]"
        }
      ],
      "stateMutability": "view",
      "type": "function"
    },
    {
      "inputs": [
        {
          "internalType": "uint256",
          "name": "_id",
          "type": "uint256"
        }
      ],
      "name": "fillOrder",
      "outputs": [],
      "stateMutability": "payable",
      "type": "function"
    },
    {
      "inputs": [
        {
          "internalType": "address",
          "name": "_tokenGet",
          "type": "address"
        },
        {
          "internalType": "uint256",
          "name": "_amountGet",
          "type": "uint256"
        },
        {
          "internalType": "address",
          "name": "_tokenGive",
          "type": "address"
        },
        {
          "internalType": "uint256",
          "name": "_amountGive",
          "type": "uint256"
        }
      ],
      "name": "makeOrder",
      "outputs": [],
      "stateMutability": "nonpayable",
      "type": "function"
    },
    {
      "inputs": [
        {
          "internalType": "uint256",
          "name": "_id",
          "type": "uint256"
        }
      ],
      "name": "cancelOrder",
      "outputs": [
        {
          "internalType": "bool",
          "name": "",
          "type": "bool"
        }
      ],
      "stateMutability": "nonpayable",
      "type": "function"
    },
    {
      "inputs": [
        {
          "internalType": "address",
          "name": "_tokenAddress",
          "type": "address"
        },
        {
          "internalType": "uint256",
          "name": "_amount",
          "type": "uint256"
        }
      ],
      "name": "depositToken",
      "outputs": [],
      "stateMutability": "nonpayable",
      "type": "function"
    },
    {
      "inputs": [
        {
          "internalType": "address",
          "name": "_tokenAddress",
          "type": "address"
        },
        {
          "internalType": "uint256",
          "name": "_amount",
          "type": "uint256"
        }
      ],
      "name": "withdrawToken",
      "outputs": [],
      "stateMutability": "nonpayable",
      "type": "function"
    },
    {
      "inputs": [],
      "name": "depositEther",
      "outputs": [],
      "stateMutability": "payable",
      "type": "function"
    },
    {
      "inputs": [
        {
          "internalType": "uint256",
          "name": "_amount",
          "type": "uint256"
        }
      ],
      "name": "withdrawEther",
      "outputs": [],
      "stateMutability": "nonpayable",
      "type": "function"
    },
    {
      "inputs": [
        {
          "internalType": "address",
          "name": "_tokenAddress",
          "type": "address"
        },
        {
          "internalType": "address",
          "name": "_user",
          "type": "address"
        }
      ],
      "name": "balanceOf",
      "outputs": [
        {
          "internalType": "uint256",
          "name": "",
          "type": "uint256"
        }
      ],
      "stateMutability": "view",
      "type": "function"
    }
  ],
  "bytecode": "0x60806040523480156200001157600080fd5b5060405162003245380380620032458339818101604052810190620000379190620000bd565b600160008190555081600160006101000a81548173ffffffffffffffffffffffffffffffffffffffff021916908373ffffffffffffffffffffffffffffffffffffffff16021790555080600281905550505062000170565b600081519050620000a0816200013c565b92915050565b600081519050620000b78162000156565b92915050565b60008060408385031215620000d157600080fd5b6000620000e1858286016200008f565b9250506020620000f485828601620000a6565b9150509250929050565b60006200010b8262000112565b9050919050565b600073ffffffffffffffffffffffffffffffffffffffff82169050919050565b6000819050919050565b6200014781620000fe565b81146200015357600080fd5b50565b620001618162000132565b81146200016d57600080fd5b50565b6130c580620001806000396000f3fe6080604052600436106101095760003560e01c806367b830ad116100955780639e281a98116100645780639e281a981461033d578063a85c38ef14610366578063c71a2456146103a9578063e9c18966146103d4578063f7888aec1461041157610109565b806367b830ad146102c35780637fd6f15c146102df57806398ea5fca1461030a5780639a5c90aa1461031457610109565b80634a93e0da116100dc5780634a93e0da146101b65780634c7ce449146101f3578063508493bc1461021e578063514fcac71461025b57806365e17c9d1461029857610109565b8063080975491461010e5780632453ffa814610139578063338b5dea146101645780633bed33ce1461018d575b600080fd5b34801561011a57600080fd5b5061012361044e565b6040516101309190612b45565b60405180910390f35b34801561014557600080fd5b5061014e6106c7565b60405161015b9190612ce2565b60405180910390f35b34801561017057600080fd5b5061018b60048036038101906101869190612504565b6106cd565b005b34801561019957600080fd5b506101b460048036038101906101af91906125cc565b6109d7565b005b3480156101c257600080fd5b506101dd60048036038101906101d891906125cc565b610ca9565b6040516101ea9190612b67565b60405180910390f35b3480156101ff57600080fd5b50610208610cc9565b6040516102159190612b45565b60405180910390f35b34801561022a57600080fd5b50610245600480360381019061024091906124c8565b610f69565b6040516102529190612ce2565b60405180910390f35b34801561026757600080fd5b50610282600480360381019061027d91906125cc565b610f8e565b60405161028f9190612b67565b60405180910390f35b3480156102a457600080fd5b506102ad6111a2565b6040516102ba9190612a85565b60405180910390f35b6102dd60048036038101906102d891906125cc565b6111c8565b005b3480156102eb57600080fd5b506102f46113fe565b6040516103019190612ce2565b60405180910390f35b610312611404565b005b34801561032057600080fd5b5061033b60048036038101906103369190612540565b6115cf565b005b34801561034957600080fd5b50610364600480360381019061035f9190612504565b6117c2565b005b34801561037257600080fd5b5061038d600480360381019061038891906125cc565b611b89565b6040516103a09796959493929190612d7b565b60405180910390f35b3480156103b557600080fd5b506103be611c2b565b6040516103cb9190612ce2565b60405180910390f35b3480156103e057600080fd5b506103fb60048036038101906103f691906125cc565b611c31565b6040516104089190612b67565b60405180910390f35b34801561041d57600080fd5b50610438600480360381019061043391906124c8565b611c51565b6040516104459190612ce2565b60405180910390f35b6060600060075490506000808267ffffffffffffffff81111561049a577f4e487b7100000000000000000000000000000000000000000000000000000000600052604160045260246000fd5b6040519080825280602002602001820160405280156104d357816020015b6104c061240a565b8152602001906001900390816104b85790505b50905060005b838110156106bd576000600460006001846104f49190612e34565b81526020019081526020016000206000015490506000600460008381526020019081526020016000209050806040518060e0016040529081600082015481526020016001820160009054906101000a900473ffffffffffffffffffffffffffffffffffffffff1673ffffffffffffffffffffffffffffffffffffffff1673ffffffffffffffffffffffffffffffffffffffff1681526020016002820160009054906101000a900473ffffffffffffffffffffffffffffffffffffffff1673ffffffffffffffffffffffffffffffffffffffff1673ffffffffffffffffffffffffffffffffffffffff168152602001600382015481526020016004820160009054906101000a900473ffffffffffffffffffffffffffffffffffffffff1673ffffffffffffffffffffffffffffffffffffffff1673ffffffffffffffffffffffffffffffffffffffff1681526020016005820154815260200160068201548152505084868151811061068e577f4e487b7100000000000000000000000000000000000000000000000000000000600052603260045260246000fd5b60200260200101819052506001856106a69190612e34565b9450505080806106b590612fa3565b9150506104d9565b5080935050505090565b60075481565b600073ffffffffffffffffffffffffffffffffffffffff168273ffffffffffffffffffffffffffffffffffffffff16141561073d576040517f08c379a000000000000000000000000000000000000000000000000000000000815260040161073490612b82565b60405180910390fd5b8173ffffffffffffffffffffffffffffffffffffffff166323b872dd3330846040518463ffffffff1660e01b815260040161077a93929190612aa0565b602060405180830381600087803b15801561079457600080fd5b505af11580156107a8573d6000803e3d6000fd5b505050506040513d601f19601f820116820180604052508101906107cc91906125a3565b61080b576040517f08c379a000000000000000000000000000000000000000000000000000000000815260040161080290612c22565b60405180910390fd5b61089a81600360008573ffffffffffffffffffffffffffffffffffffffff1673ffffffffffffffffffffffffffffffffffffffff16815260200190815260200160002060003373ffffffffffffffffffffffffffffffffffffffff1673ffffffffffffffffffffffffffffffffffffffff16815260200190815260200160002054611cd890919063ffffffff16565b600360008473ffffffffffffffffffffffffffffffffffffffff1673ffffffffffffffffffffffffffffffffffffffff16815260200190815260200160002060003373ffffffffffffffffffffffffffffffffffffffff1673ffffffffffffffffffffffffffffffffffffffff168152602001908152602001600020819055507fdcbc1c05240f31ff3ad067ef1ee35ce4997762752e3a095284754544f4c709d7823383600360008773ffffffffffffffffffffffffffffffffffffffff1673ffffffffffffffffffffffffffffffffffffffff16815260200190815260200160002060003373ffffffffffffffffffffffffffffffffffffffff1673ffffffffffffffffffffffffffffffffffffffff168152602001908152602001600020546040516109cb9493929190612ad7565b60405180910390a15050565b80600360008073ffffffffffffffffffffffffffffffffffffffff1673ffffffffffffffffffffffffffffffffffffffff16815260200190815260200160002060003373ffffffffffffffffffffffffffffffffffffffff1673ffffffffffffffffffffffffffffffffffffffff168152602001908152602001600020541015610a96576040517f08c379a0000000000000000000000000000000000000000000000000000000008152600401610a8d90612c42565b60405180910390fd5b610b2581600360008073ffffffffffffffffffffffffffffffffffffffff1673ffffffffffffffffffffffffffffffffffffffff16815260200190815260200160002060003373ffffffffffffffffffffffffffffffffffffffff1673ffffffffffffffffffffffffffffffffffffffff16815260200190815260200160002054611cee90919063ffffffff16565b600360008073ffffffffffffffffffffffffffffffffffffffff1673ffffffffffffffffffffffffffffffffffffffff16815260200190815260200160002060003373ffffffffffffffffffffffffffffffffffffffff1673ffffffffffffffffffffffffffffffffffffffff168152602001908152602001600020819055503373ffffffffffffffffffffffffffffffffffffffff166108fc829081150290604051600060405180830381858888f19350505050158015610beb573d6000803e3d6000fd5b507ff341246adaac6f497bc2a656f546ab9e182111d630394f0c57c710a59a2cb56760003383600360008073ffffffffffffffffffffffffffffffffffffffff1673ffffffffffffffffffffffffffffffffffffffff16815260200190815260200160002060003373ffffffffffffffffffffffffffffffffffffffff1673ffffffffffffffffffffffffffffffffffffffff16815260200190815260200160002054604051610c9e9493929190612ad7565b60405180910390a150565b60066020528060005260406000206000915054906101000a900460ff1681565b6060600060075490506000808267ffffffffffffffff811115610d15577f4e487b7100000000000000000000000000000000000000000000000000000000600052604160045260246000fd5b604051908082528060200260200182016040528015610d4e57816020015b610d3b61240a565b815260200190600190039081610d335790505b50905060005b83811015610f5f57600060046000600184610d6f9190612e34565b81526020019081526020016000206000015490506005600082815260200190815260200160002060009054906101000a900460ff1615610f4b576000600460008381526020019081526020016000209050806040518060e0016040529081600082015481526020016001820160009054906101000a900473ffffffffffffffffffffffffffffffffffffffff1673ffffffffffffffffffffffffffffffffffffffff1673ffffffffffffffffffffffffffffffffffffffff1681526020016002820160009054906101000a900473ffffffffffffffffffffffffffffffffffffffff1673ffffffffffffffffffffffffffffffffffffffff1673ffffffffffffffffffffffffffffffffffffffff168152602001600382015481526020016004820160009054906101000a900473ffffffffffffffffffffffffffffffffffffffff1673ffffffffffffffffffffffffffffffffffffffff1673ffffffffffffffffffffffffffffffffffffffff16815260200160058201548152602001600682015481525050848681518110610f2f577f4e487b7100000000000000000000000000000000000000000000000000000000600052603260045260246000fd5b6020026020010181905250600185610f479190612e34565b9450505b508080610f5790612fa3565b915050610d54565b5080935050505090565b6003602052816000526040600020602052806000526040600020600091509150505481565b6000806004600084815260200190815260200160002090503373ffffffffffffffffffffffffffffffffffffffff168160010160009054906101000a900473ffffffffffffffffffffffffffffffffffffffff1673ffffffffffffffffffffffffffffffffffffffff1614611038576040517f08c379a000000000000000000000000000000000000000000000000000000000815260040161102f90612be2565b60405180910390fd5b8060000154831461107e576040517f08c379a000000000000000000000000000000000000000000000000000000000815260040161107590612ba2565b60405180910390fd5b60016005600085815260200190815260200160002060006101000a81548160ff021916908315150217905550600860008154809291906110bd90612fa3565b91905055507f77de1da0be5f2d3b110d05c6694e5c4ff2d9da7cd23d84353ecf78c7b5acec61838260010160009054906101000a900473ffffffffffffffffffffffffffffffffffffffff168360020160009054906101000a900473ffffffffffffffffffffffffffffffffffffffff1684600301548560040160009054906101000a900473ffffffffffffffffffffffffffffffffffffffff168660050154426040516111719796959493929190612d7b565b60405180910390a16005600084815260200190815260200160002060009054906101000a900460ff16915050919050565b600160009054906101000a900473ffffffffffffffffffffffffffffffffffffffff1681565b6002600054141561120e576040517f08c379a000000000000000000000000000000000000000000000000000000000815260040161120590612c82565b60405180910390fd5b600260008190555060008111801561122857506007548111155b611267576040517f08c379a000000000000000000000000000000000000000000000000000000000815260040161125e90612c62565b60405180910390fd5b6005600082815260200190815260200160002060009054906101000a900460ff16156112c8576040517f08c379a00000000000000000000000000000000000000000000000000000000081526004016112bf90612ca2565b60405180910390fd5b6006600082815260200190815260200160002060009054906101000a900460ff1615611329576040517f08c379a000000000000000000000000000000000000000000000000000000000815260040161132090612cc2565b60405180910390fd5b60006004600083815260200190815260200160002090506113c681600001548260010160009054906101000a900473ffffffffffffffffffffffffffffffffffffffff168360020160009054906101000a900473ffffffffffffffffffffffffffffffffffffffff1684600301548560040160009054906101000a900473ffffffffffffffffffffffffffffffffffffffff168660050154611d04565b60016006600084815260200190815260200160002060006101000a81548160ff02191690831515021790555050600160008190555050565b60025481565b61149334600360008073ffffffffffffffffffffffffffffffffffffffff1673ffffffffffffffffffffffffffffffffffffffff16815260200190815260200160002060003373ffffffffffffffffffffffffffffffffffffffff1673ffffffffffffffffffffffffffffffffffffffff16815260200190815260200160002054611cd890919063ffffffff16565b600360008073ffffffffffffffffffffffffffffffffffffffff1673ffffffffffffffffffffffffffffffffffffffff16815260200190815260200160002060003373ffffffffffffffffffffffffffffffffffffffff1673ffffffffffffffffffffffffffffffffffffffff168152602001908152602001600020819055507fdcbc1c05240f31ff3ad067ef1ee35ce4997762752e3a095284754544f4c709d760003334600360008073ffffffffffffffffffffffffffffffffffffffff1673ffffffffffffffffffffffffffffffffffffffff16815260200190815260200160002060003373ffffffffffffffffffffffffffffffffffffffff1673ffffffffffffffffffffffffffffffffffffffff168152602001908152602001600020546040516115c59493929190612ad7565b60405180910390a1565b6115e56001600754611cd890919063ffffffff16565b6007819055506040518060e0016040528060075481526020013373ffffffffffffffffffffffffffffffffffffffff1681526020018573ffffffffffffffffffffffffffffffffffffffff1681526020018481526020018373ffffffffffffffffffffffffffffffffffffffff168152602001828152602001428152506004600060075481526020019081526020016000206000820151816000015560208201518160010160006101000a81548173ffffffffffffffffffffffffffffffffffffffff021916908373ffffffffffffffffffffffffffffffffffffffff16021790555060408201518160020160006101000a81548173ffffffffffffffffffffffffffffffffffffffff021916908373ffffffffffffffffffffffffffffffffffffffff1602179055506060820151816003015560808201518160040160006101000a81548173ffffffffffffffffffffffffffffffffffffffff021916908373ffffffffffffffffffffffffffffffffffffffff16021790555060a0820151816005015560c082015181600601559050507f9d33853d43e3607b4cc01fdc78338ff2dca6fef7db9232dae6d3eb55fbc3b1096007543386868686426040516117b49796959493929190612d7b565b60405180910390a150505050565b600073ffffffffffffffffffffffffffffffffffffffff168273ffffffffffffffffffffffffffffffffffffffff161415611832576040517f08c379a000000000000000000000000000000000000000000000000000000000815260040161182990612b82565b60405180910390fd5b80600360008473ffffffffffffffffffffffffffffffffffffffff1673ffffffffffffffffffffffffffffffffffffffff16815260200190815260200160002060003373ffffffffffffffffffffffffffffffffffffffff1673ffffffffffffffffffffffffffffffffffffffff1681526020019081526020016000205410156118f1576040517f08c379a00000000000000000000000000000000000000000000000000000000081526004016118e890612bc2565b60405180910390fd5b61198081600360008573ffffffffffffffffffffffffffffffffffffffff1673ffffffffffffffffffffffffffffffffffffffff16815260200190815260200160002060003373ffffffffffffffffffffffffffffffffffffffff1673ffffffffffffffffffffffffffffffffffffffff16815260200190815260200160002054611cee90919063ffffffff16565b600360008473ffffffffffffffffffffffffffffffffffffffff1673ffffffffffffffffffffffffffffffffffffffff16815260200190815260200160002060003373ffffffffffffffffffffffffffffffffffffffff1673ffffffffffffffffffffffffffffffffffffffff168152602001908152602001600020819055508173ffffffffffffffffffffffffffffffffffffffff1663a9059cbb33836040518363ffffffff1660e01b8152600401611a3b929190612b1c565b602060405180830381600087803b158015611a5557600080fd5b505af1158015611a69573d6000803e3d6000fd5b505050506040513d601f19601f82011682018060405250810190611a8d91906125a3565b611acc576040517f08c379a0000000000000000000000000000000000000000000000000000000008152600401611ac390612c22565b60405180910390fd5b7ff341246adaac6f497bc2a656f546ab9e182111d630394f0c57c710a59a2cb567823383600360008773ffffffffffffffffffffffffffffffffffffffff1673ffffffffffffffffffffffffffffffffffffffff16815260200190815260200160002060003373ffffffffffffffffffffffffffffffffffffffff1673ffffffffffffffffffffffffffffffffffffffff16815260200190815260200160002054604051611b7d9493929190612ad7565b60405180910390a15050565b60046020528060005260406000206000915090508060000154908060010160009054906101000a900473ffffffffffffffffffffffffffffffffffffffff16908060020160009054906101000a900473ffffffffffffffffffffffffffffffffffffffff16908060030154908060040160009054906101000a900473ffffffffffffffffffffffffffffffffffffffff16908060050154908060060154905087565b60085481565b60056020528060005260406000206000915054906101000a900460ff1681565b6000600360008473ffffffffffffffffffffffffffffffffffffffff1673ffffffffffffffffffffffffffffffffffffffff16815260200190815260200160002060008373ffffffffffffffffffffffffffffffffffffffff1673ffffffffffffffffffffffffffffffffffffffff16815260200190815260200160002054905092915050565b60008183611ce69190612e34565b905092915050565b60008183611cfc9190612f15565b905092915050565b600360008373ffffffffffffffffffffffffffffffffffffffff1673ffffffffffffffffffffffffffffffffffffffff16815260200190815260200160002060008673ffffffffffffffffffffffffffffffffffffffff1673ffffffffffffffffffffffffffffffffffffffff16815260200190815260200160002054811115611dc3576040517f08c379a0000000000000000000000000000000000000000000000000000000008152600401611dba90612c02565b60405180910390fd5b6000611ded6064611ddf600254876123de90919063ffffffff16565b6123f490919063ffffffff16565b9050611e90611e058286611cd890919063ffffffff16565b600360008873ffffffffffffffffffffffffffffffffffffffff1673ffffffffffffffffffffffffffffffffffffffff16815260200190815260200160002060003373ffffffffffffffffffffffffffffffffffffffff1673ffffffffffffffffffffffffffffffffffffffff16815260200190815260200160002054611cee90919063ffffffff16565b600360008773ffffffffffffffffffffffffffffffffffffffff1673ffffffffffffffffffffffffffffffffffffffff16815260200190815260200160002060003373ffffffffffffffffffffffffffffffffffffffff1673ffffffffffffffffffffffffffffffffffffffff16815260200190815260200160002081905550611f9f84600360008873ffffffffffffffffffffffffffffffffffffffff1673ffffffffffffffffffffffffffffffffffffffff16815260200190815260200160002060008973ffffffffffffffffffffffffffffffffffffffff1673ffffffffffffffffffffffffffffffffffffffff16815260200190815260200160002054611cd890919063ffffffff16565b600360008773ffffffffffffffffffffffffffffffffffffffff1673ffffffffffffffffffffffffffffffffffffffff16815260200190815260200160002060008873ffffffffffffffffffffffffffffffffffffffff1673ffffffffffffffffffffffffffffffffffffffff168152602001908152602001600020819055506120d081600360008873ffffffffffffffffffffffffffffffffffffffff1673ffffffffffffffffffffffffffffffffffffffff1681526020019081526020016000206000600160009054906101000a900473ffffffffffffffffffffffffffffffffffffffff1673ffffffffffffffffffffffffffffffffffffffff1673ffffffffffffffffffffffffffffffffffffffff16815260200190815260200160002054611cd890919063ffffffff16565b600360008773ffffffffffffffffffffffffffffffffffffffff1673ffffffffffffffffffffffffffffffffffffffff1681526020019081526020016000206000600160009054906101000a900473ffffffffffffffffffffffffffffffffffffffff1673ffffffffffffffffffffffffffffffffffffffff1673ffffffffffffffffffffffffffffffffffffffff1681526020019081526020016000208190555061220182600360008673ffffffffffffffffffffffffffffffffffffffff1673ffffffffffffffffffffffffffffffffffffffff16815260200190815260200160002060008973ffffffffffffffffffffffffffffffffffffffff1673ffffffffffffffffffffffffffffffffffffffff16815260200190815260200160002054611cee90919063ffffffff16565b600360008573ffffffffffffffffffffffffffffffffffffffff1673ffffffffffffffffffffffffffffffffffffffff16815260200190815260200160002060008873ffffffffffffffffffffffffffffffffffffffff1673ffffffffffffffffffffffffffffffffffffffff1681526020019081526020016000208190555061231082600360008673ffffffffffffffffffffffffffffffffffffffff1673ffffffffffffffffffffffffffffffffffffffff16815260200190815260200160002060003373ffffffffffffffffffffffffffffffffffffffff1673ffffffffffffffffffffffffffffffffffffffff16815260200190815260200160002054611cd890919063ffffffff16565b600360008573ffffffffffffffffffffffffffffffffffffffff1673ffffffffffffffffffffffffffffffffffffffff16815260200190815260200160002060003373ffffffffffffffffffffffffffffffffffffffff1673ffffffffffffffffffffffffffffffffffffffff168152602001908152602001600020819055507f0dddf4182dc0fc1a311cb75f049c97403c6b8a99cf6b2229a36e7c526acb3f8187878787878733426040516123cd989796959493929190612cfd565b60405180910390a150505050505050565b600081836123ec9190612ebb565b905092915050565b600081836124029190612e8a565b905092915050565b6040518060e0016040528060008152602001600073ffffffffffffffffffffffffffffffffffffffff168152602001600073ffffffffffffffffffffffffffffffffffffffff16815260200160008152602001600073ffffffffffffffffffffffffffffffffffffffff16815260200160008152602001600081525090565b6000813590506124988161304a565b92915050565b6000815190506124ad81613061565b92915050565b6000813590506124c281613078565b92915050565b600080604083850312156124db57600080fd5b60006124e985828601612489565b92505060206124fa85828601612489565b9150509250929050565b6000806040838503121561251757600080fd5b600061252585828601612489565b9250506020612536858286016124b3565b9150509250929050565b6000806000806080858703121561255657600080fd5b600061256487828801612489565b9450506020612575878288016124b3565b935050604061258687828801612489565b9250506060612597878288016124b3565b91505092959194509250565b6000602082840312156125b557600080fd5b60006125c38482850161249e565b91505092915050565b6000602082840312156125de57600080fd5b60006125ec848285016124b3565b91505092915050565b600061260183836129d9565b60e08301905092915050565b61261681612f5b565b82525050565b61262581612f49565b82525050565b61263481612f49565b82525050565b600061264582612dfa565b61264f8185612e12565b935061265a83612dea565b8060005b8381101561268b57815161267288826125f5565b975061267d83612e05565b92505060018101905061265e565b5085935050505092915050565b6126a181612f6d565b82525050565b60006126b4602983612e23565b91507f4e616f206520706f73736976656c20656e7669617220455448206e657374612060008301527f6f7065726163616f2e00000000000000000000000000000000000000000000006020830152604082019050919050565b600061271a601283612e23565b91507f4e6f742076616c6964206f7264657220696400000000000000000000000000006000830152602082019050919050565b600061275a601a83612e23565b91507f4e616f20686120746f6b656e7320737566696369656e7465732e0000000000006000830152602082019050919050565b600061279a602c83612e23565b91507f45737461206f7264656d20736f20706f64207365722072656d6f76696461207060008301527f656c6f2063726961646f722e00000000000000000000000000000000000000006020830152604082019050919050565b6000612800602a83612e23565b91507f4e616f20686120746f6b656e7320737566696369656e746520646f20646f6e6f60008301527f206461206f7264656d2e000000000000000000000000000000000000000000006020830152604082019050919050565b6000612866601c83612e23565b91507f4e616f20666f6920706f73736976656c207472616e7366657269722e000000006000830152602082019050919050565b60006128a6601583612e23565b91507f4e616f2068612045544820737566696369656e746500000000000000000000006000830152602082019050919050565b60006128e6601983612e23565b91507f4e756d65726f206465206f7264656d20696e76616c6964612e000000000000006000830152602082019050919050565b6000612926601f83612e23565b91507f5265656e7472616e637947756172643a207265656e7472616e742063616c6c006000830152602082019050919050565b6000612966601b83612e23565b91507f4f726465722063616e63656c6c6564206265666f72652066696c6c00000000006000830152602082019050919050565b60006129a6601483612e23565b91507f4f726465722066696c6c656420616c72656164790000000000000000000000006000830152602082019050919050565b60e0820160008201516129ef6000850182612a67565b506020820151612a02602085018261261c565b506040820151612a15604085018261261c565b506060820151612a286060850182612a67565b506080820151612a3b608085018261261c565b5060a0820151612a4e60a0850182612a67565b5060c0820151612a6160c0850182612a67565b50505050565b612a7081612f99565b82525050565b612a7f81612f99565b82525050565b6000602082019050612a9a600083018461260d565b92915050565b6000606082019050612ab5600083018661262b565b612ac2602083018561262b565b612acf6040830184612a76565b949350505050565b6000608082019050612aec600083018761262b565b612af9602083018661262b565b612b066040830185612a76565b612b136060830184612a76565b95945050505050565b6000604082019050612b31600083018561262b565b612b3e6020830184612a76565b9392505050565b60006020820190508181036000830152612b5f818461263a565b905092915050565b6000602082019050612b7c6000830184612698565b92915050565b60006020820190508181036000830152612b9b816126a7565b9050919050565b60006020820190508181036000830152612bbb8161270d565b9050919050565b60006020820190508181036000830152612bdb8161274d565b9050919050565b60006020820190508181036000830152612bfb8161278d565b9050919050565b60006020820190508181036000830152612c1b816127f3565b9050919050565b60006020820190508181036000830152612c3b81612859565b9050919050565b60006020820190508181036000830152612c5b81612899565b9050919050565b60006020820190508181036000830152612c7b816128d9565b9050919050565b60006020820190508181036000830152612c9b81612919565b9050919050565b60006020820190508181036000830152612cbb81612959565b9050919050565b60006020820190508181036000830152612cdb81612999565b9050919050565b6000602082019050612cf76000830184612a76565b92915050565b600061010082019050612d13600083018b612a76565b612d20602083018a61262b565b612d2d604083018961262b565b612d3a6060830188612a76565b612d47608083018761262b565b612d5460a0830186612a76565b612d6160c083018561262b565b612d6e60e0830184612a76565b9998505050505050505050565b600060e082019050612d90600083018a612a76565b612d9d602083018961262b565b612daa604083018861262b565b612db76060830187612a76565b612dc4608083018661262b565b612dd160a0830185612a76565b612dde60c0830184612a76565b98975050505050505050565b6000819050602082019050919050565b600081519050919050565b6000602082019050919050565b600082825260208201905092915050565b600082825260208201905092915050565b6000612e3f82612f99565b9150612e4a83612f99565b9250827fffffffffffffffffffffffffffffffffffffffffffffffffffffffffffffffff03821115612e7f57612e7e612fec565b5b828201905092915050565b6000612e9582612f99565b9150612ea083612f99565b925082612eb057612eaf61301b565b5b828204905092915050565b6000612ec682612f99565b9150612ed183612f99565b9250817fffffffffffffffffffffffffffffffffffffffffffffffffffffffffffffffff0483118215151615612f0a57612f09612fec565b5b828202905092915050565b6000612f2082612f99565b9150612f2b83612f99565b925082821015612f3e57612f3d612fec565b5b828203905092915050565b6000612f5482612f79565b9050919050565b6000612f6682612f79565b9050919050565b60008115159050919050565b600073ffffffffffffffffffffffffffffffffffffffff82169050919050565b6000819050919050565b6000612fae82612f99565b91507fffffffffffffffffffffffffffffffffffffffffffffffffffffffffffffffff821415612fe157612fe0612fec565b5b600182019050919050565b7f4e487b7100000000000000000000000000000000000000000000000000000000600052601160045260246000fd5b7f4e487b7100000000000000000000000000000000000000000000000000000000600052601260045260246000fd5b61305381612f49565b811461305e57600080fd5b50565b61306a81612f6d565b811461307557600080fd5b50565b61308181612f99565b811461308c57600080fd5b5056fea26469706673582212202d37d39eca8c1c5c20da9295244c206a02061921616ac4156f7860ccd1ca906264736f6c63430008000033",
  "immutableReferences": {},
  "source": "// SPDX-License-Identifier: MIT\npragma solidity ^0.8.0;\n\nimport \"@openzeppelin/contracts/token/ERC20/IERC20.sol\";\nimport \"@openzeppelin/contracts/utils/math/SafeMath.sol\";\nimport \"@openzeppelin/contracts/security/ReentrancyGuard.sol\";\n\ncontract Exchange is ReentrancyGuard  {\n\n    using SafeMath for uint256;\n\n    //vars\n    address constant ETHER = address(0);\n    address payable public feeAccount;\n    uint256 public feePercent;\n    mapping(address => mapping(address => uint256)) public tokens;\n    mapping(uint256 => _Order) public orders;\n    mapping(uint256 => bool) public orderCancelled;\n    mapping(uint256 => bool) public orderFilled;\n    uint256 public orderCount;\n    uint256 public orderCancelledCount;\n    //structs\n    struct _Order {\n        uint256 id;\n        address user;\n        address tokenGet;\n        uint256 amountGet;\n        address tokenGive;\n        uint256 amountGive;\n        uint256 timestamp;\n    }\n\n    //events\n    event Deposit(address _token, address _user, uint256 _amount, uint256 _balance);\n    event Withdraw(address _token, address _user, uint256 _amount, uint256 _balance);\n    event Order(uint256 _id, address _user, address _tokenGet, uint256 _amountGet,\n        address _tokenGive, uint256 _amountGive, uint256 _timestamp);\n    event Cancel(uint256 _id, address _user, address _tokenGet, uint256 _amountGet, address _tokenGive, uint256 _amountGive,\n        uint256 _timestamp);\n    event Trade(uint256 _id, address _user, address _tokenGet, uint256 _amountGet, address _tokenGive, uint256 _amountGive,\n        address _userFill, uint256 _timestamp);\n\n\n    //constructor\n    constructor (address  _feeAccount, uint256 _feePercent)  \n     {\n        feeAccount =  payable(_feeAccount);\n        feePercent = _feePercent;\n    }\n\n    function fetchCanceledOrders() public view returns (_Order[] memory) {\n        uint256 itemCount = orderCount;\n        //uint unsoldItemCount = _itemIds.current() - _itemsSold.current();\n        uint currentIndex = 0;\n\n        _Order[] memory items = new _Order[](itemCount);\n        for (uint i = 0; i < itemCount; i++) {\n            \n            uint currentId = orders[i+1].id;\n            if (orderCancelled[currentId])\n            {\n                _Order storage currentItem = orders[currentId];\n                items[currentIndex] = currentItem;\n                currentIndex += 1;\n            }\n            \n        \n        }\n    \n        return items;\n    }\n\n    function fetchOrders() public view returns (_Order[] memory) {\n        uint256 itemCount = orderCount;\n        //uint unsoldItemCount = _itemIds.current() - _itemsSold.current();\n        uint currentIndex = 0;\n\n        _Order[] memory items = new _Order[](itemCount);\n        for (uint i = 0; i < itemCount; i++) {\n        \n            uint currentId = orders[i+1].id;\n            _Order storage currentItem = orders[currentId];\n            items[currentIndex] = currentItem;\n            currentIndex += 1;\n        \n        }\n    \n        return items;\n    }\n    \n    function fillOrder(uint256 _id) public payable nonReentrant{\n        //require order is valid, not filled or cancelled already\n        require(_id > 0 && _id <= orderCount, \"Numero de ordem invalida.\");\n        require(!orderCancelled[_id], \"Order cancelled before fill\");\n        require(!orderFilled[_id], \"Order filled already\");\n        //fetch order\n        _Order storage _order = orders[_id];\n        //do trade\n        _trade(_order.id, _order.user, _order.tokenGet, _order.amountGet, _order.tokenGive, _order.amountGive);\n        //mark order as filled\n        orderFilled[_id] = true;\n    }\n\n    function _trade(uint256 _id, address _user, address _tokenGet, uint256 _amountGet, address _tokenGive, uint256 _amountGive) internal {\n        //charge fees - taken from filler of order (msg.sender)\n        require(_amountGive <= tokens[_tokenGive][_user], \"Nao ha tokens suficiente do dono da ordem.\");\n\n        uint256 _feeAmount = _amountGet.mul(feePercent).div(100);\n        //DO TRADE\n        //msg.sender is the person filling order, _user the person who made the order\n        //move order fillers tokens to order maker, whilst subtracting fees from filler\n        tokens[_tokenGet][msg.sender] = tokens[_tokenGet][msg.sender].sub(_amountGet.add(_feeAmount));\n        tokens[_tokenGet][_user] = tokens[_tokenGet][_user].add(_amountGet);\n        //take fees to fee account\n        tokens[_tokenGet][feeAccount] = tokens[_tokenGet][feeAccount].add(_feeAmount);\n        //move order makers tokens to order filler\n        tokens[_tokenGive][_user] = tokens[_tokenGive][_user].sub(_amountGive);\n        tokens[_tokenGive][msg.sender] = tokens[_tokenGive][msg.sender].add(_amountGive);\n        //emit event\n        emit Trade(_id, _user, _tokenGet, _amountGet, _tokenGive, _amountGive, msg.sender, block.timestamp);\n    }\n\n    //make order\n    function makeOrder(address _tokenGet, uint256 _amountGet, address _tokenGive, uint256 _amountGive) public {\n        //increment ordercount\n        orderCount = orderCount.add(1);\n        //add order to orders mapping by creating new struct\n        orders[orderCount] = _Order(orderCount, msg.sender, _tokenGet, _amountGet, _tokenGive, _amountGive, block.timestamp);\n        //emit event\n        emit Order(orderCount, msg.sender, _tokenGet, _amountGet, _tokenGive, _amountGive, block.timestamp);\n    }\n\n    //cancel order\n    function cancelOrder(uint256 _id) public returns (bool){\n        //retrieve order\n        _Order storage _order = orders[_id];\n        //require user is owner of order\n        require(address(_order.user) == msg.sender, \"Esta ordem so pod ser removida pelo criador.\");\n        //require valid order id\n        require(_id == _order.id, \"Not valid order id\");\n        //add to cancelled orders mapping\n        orderCancelled[_id] = true;\n        orderCancelledCount++;\n        //emit event\n        emit Cancel(_id, _order.user, _order.tokenGet, _order.amountGet, _order.tokenGive, _order.amountGive, block.timestamp);\n        //return true for cancelled order\n        return orderCancelled[_id];\n    }\n\n    //deposit erc20 tokens\n    function depositToken(address _tokenAddress, uint256 _amount) public {\n        //don't allow ether deposits\n        require(_tokenAddress != ETHER, \"Nao e possivel enviar ETH nesta operacao.\");\n        //require this so we only continue if transfer occurs\n        require(IERC20(_tokenAddress).transferFrom(msg.sender, address(this), _amount), \"Nao foi possivel transferir.\");\n        //add to balance\n        tokens[_tokenAddress][msg.sender] = tokens[_tokenAddress][msg.sender].add(_amount);\n        //emit event\n        emit Deposit(_tokenAddress, msg.sender, _amount, tokens[_tokenAddress][msg.sender]);\n    }\n\n    //withdraw erc20 tokens\n    function withdrawToken(address _tokenAddress, uint256 _amount) public {\n        //dont allow ether\n        require(_tokenAddress != ETHER, \"Nao e possivel enviar ETH nesta operacao.\");\n        //require balance to be greater than amount\n        require(tokens[_tokenAddress][msg.sender] >= _amount, \"Nao ha tokens suficientes.\");\n        //subtract tokens\n        tokens[_tokenAddress][msg.sender] = tokens[_tokenAddress][msg.sender].sub(_amount);\n        //send tokens and require the transfer goes through\n        require(IERC20(_tokenAddress).transfer(msg.sender, _amount), \"Nao foi possivel transferir.\");\n        //emit event\n        emit Withdraw(_tokenAddress, msg.sender, _amount, tokens[_tokenAddress][msg.sender]);\n    }\n\n    //deposit ether\n    function depositEther() public payable {\n        //use tokens mapping to store ether\n        tokens[ETHER][msg.sender] = tokens[ETHER][msg.sender].add(msg.value);\n        //emit event\n        emit Deposit(ETHER, msg.sender, msg.value, tokens[ETHER][msg.sender]);\n    }\n\n    //withdraw ether\n    function withdrawEther(uint256 _amount) public {\n        //require balance to be greater than amount\n        require(tokens[ETHER][msg.sender] >= _amount, \"Nao ha ETH suficiente\");\n        //subtract ether\n        tokens[ETHER][msg.sender] = tokens[ETHER][msg.sender].sub(_amount);\n        //send ether\n        payable(msg.sender).transfer(_amount);\n        //emit event\n        emit Withdraw(ETHER, msg.sender, _amount, tokens[ETHER][msg.sender]);\n    }\n\n    //balance of user\n    function balanceOf(address _tokenAddress, address _user) public view returns (uint256){\n        return tokens[_tokenAddress][_user];\n    }\n\n}",
  "sourcePath": "D:\\projetos\\blockchain\\dex-next\\src\\contracts\\Exchange.sol",
  "compiler": {
    "name": "solc",
    "version": "0.8.0+commit.c7dfd78e.Emscripten.clang"
  },
  "schemaVersion": "3.4.3",
  "updatedAt": "2022-08-11T19:41:30.807Z",
  "devdoc": {
    "kind": "dev",
    "methods": {},
    "version": 1
  },
  "userdoc": {
    "kind": "user",
    "methods": {},
    "version": 1
  }
}