{
  "contractName": "Exchange",
  "abi": [
    {
      "inputs": [
        {
          "internalType": "address",
          "name": "_feeAccount",
          "type": "address"
        },
        {
          "internalType": "uint256",
          "name": "_feePercent",
          "type": "uint256"
        }
      ],
      "stateMutability": "nonpayable",
      "type": "constructor"
    },
    {
      "anonymous": false,
      "inputs": [
        {
          "indexed": false,
          "internalType": "uint256",
          "name": "_id",
          "type": "uint256"
        },
        {
          "indexed": false,
          "internalType": "address",
          "name": "_user",
          "type": "address"
        },
        {
          "indexed": false,
          "internalType": "address",
          "name": "_tokenGet",
          "type": "address"
        },
        {
          "indexed": false,
          "internalType": "uint256",
          "name": "_amountGet",
          "type": "uint256"
        },
        {
          "indexed": false,
          "internalType": "address",
          "name": "_tokenGive",
          "type": "address"
        },
        {
          "indexed": false,
          "internalType": "uint256",
          "name": "_amountGive",
          "type": "uint256"
        },
        {
          "indexed": false,
          "internalType": "uint256",
          "name": "_timestamp",
          "type": "uint256"
        }
      ],
      "name": "Cancel",
      "type": "event"
    },
    {
      "anonymous": false,
      "inputs": [
        {
          "indexed": false,
          "internalType": "address",
          "name": "_token",
          "type": "address"
        },
        {
          "indexed": false,
          "internalType": "address",
          "name": "_user",
          "type": "address"
        },
        {
          "indexed": false,
          "internalType": "uint256",
          "name": "_amount",
          "type": "uint256"
        },
        {
          "indexed": false,
          "internalType": "uint256",
          "name": "_balance",
          "type": "uint256"
        }
      ],
      "name": "Deposit",
      "type": "event"
    },
    {
      "anonymous": false,
      "inputs": [
        {
          "indexed": false,
          "internalType": "uint256",
          "name": "_id",
          "type": "uint256"
        },
        {
          "indexed": false,
          "internalType": "address",
          "name": "_user",
          "type": "address"
        },
        {
          "indexed": false,
          "internalType": "address",
          "name": "_tokenGet",
          "type": "address"
        },
        {
          "indexed": false,
          "internalType": "uint256",
          "name": "_amountGet",
          "type": "uint256"
        },
        {
          "indexed": false,
          "internalType": "address",
          "name": "_tokenGive",
          "type": "address"
        },
        {
          "indexed": false,
          "internalType": "uint256",
          "name": "_amountGive",
          "type": "uint256"
        },
        {
          "indexed": false,
          "internalType": "uint256",
          "name": "_timestamp",
          "type": "uint256"
        }
      ],
      "name": "Order",
      "type": "event"
    },
    {
      "anonymous": false,
      "inputs": [
        {
          "indexed": false,
          "internalType": "uint256",
          "name": "_id",
          "type": "uint256"
        },
        {
          "indexed": false,
          "internalType": "address",
          "name": "_user",
          "type": "address"
        },
        {
          "indexed": false,
          "internalType": "address",
          "name": "_tokenGet",
          "type": "address"
        },
        {
          "indexed": false,
          "internalType": "uint256",
          "name": "_amountGet",
          "type": "uint256"
        },
        {
          "indexed": false,
          "internalType": "address",
          "name": "_tokenGive",
          "type": "address"
        },
        {
          "indexed": false,
          "internalType": "uint256",
          "name": "_amountGive",
          "type": "uint256"
        },
        {
          "indexed": false,
          "internalType": "address",
          "name": "_userFill",
          "type": "address"
        },
        {
          "indexed": false,
          "internalType": "uint256",
          "name": "_timestamp",
          "type": "uint256"
        }
      ],
      "name": "Trade",
      "type": "event"
    },
    {
      "anonymous": false,
      "inputs": [
        {
          "indexed": false,
          "internalType": "address",
          "name": "_token",
          "type": "address"
        },
        {
          "indexed": false,
          "internalType": "address",
          "name": "_user",
          "type": "address"
        },
        {
          "indexed": false,
          "internalType": "uint256",
          "name": "_amount",
          "type": "uint256"
        },
        {
          "indexed": false,
          "internalType": "uint256",
          "name": "_balance",
          "type": "uint256"
        }
      ],
      "name": "Withdraw",
      "type": "event"
    },
    {
      "inputs": [],
      "name": "feeAccount",
      "outputs": [
        {
          "internalType": "address payable",
          "name": "",
          "type": "address"
        }
      ],
      "stateMutability": "view",
      "type": "function",
      "constant": true
    },
    {
      "inputs": [],
      "name": "feePercent",
      "outputs": [
        {
          "internalType": "uint256",
          "name": "",
          "type": "uint256"
        }
      ],
      "stateMutability": "view",
      "type": "function",
      "constant": true
    },
    {
      "inputs": [
        {
          "internalType": "uint256",
          "name": "",
          "type": "uint256"
        }
      ],
      "name": "orderCancelled",
      "outputs": [
        {
          "internalType": "bool",
          "name": "",
          "type": "bool"
        }
      ],
      "stateMutability": "view",
      "type": "function",
      "constant": true
    },
    {
      "inputs": [],
      "name": "orderCancelledCount",
      "outputs": [
        {
          "internalType": "uint256",
          "name": "",
          "type": "uint256"
        }
      ],
      "stateMutability": "view",
      "type": "function",
      "constant": true
    },
    {
      "inputs": [],
      "name": "orderCount",
      "outputs": [
        {
          "internalType": "uint256",
          "name": "",
          "type": "uint256"
        }
      ],
      "stateMutability": "view",
      "type": "function",
      "constant": true
    },
    {
      "inputs": [
        {
          "internalType": "uint256",
          "name": "",
          "type": "uint256"
        }
      ],
      "name": "orderFilled",
      "outputs": [
        {
          "internalType": "bool",
          "name": "",
          "type": "bool"
        }
      ],
      "stateMutability": "view",
      "type": "function",
      "constant": true
    },
    {
      "inputs": [
        {
          "internalType": "uint256",
          "name": "",
          "type": "uint256"
        }
      ],
      "name": "orders",
      "outputs": [
        {
          "internalType": "uint256",
          "name": "id",
          "type": "uint256"
        },
        {
          "internalType": "address",
          "name": "user",
          "type": "address"
        },
        {
          "internalType": "address",
          "name": "tokenGet",
          "type": "address"
        },
        {
          "internalType": "uint256",
          "name": "amountGet",
          "type": "uint256"
        },
        {
          "internalType": "address",
          "name": "tokenGive",
          "type": "address"
        },
        {
          "internalType": "uint256",
          "name": "amountGive",
          "type": "uint256"
        },
        {
          "internalType": "uint256",
          "name": "timestamp",
          "type": "uint256"
        }
      ],
      "stateMutability": "view",
      "type": "function",
      "constant": true
    },
    {
      "inputs": [
        {
          "internalType": "address",
          "name": "",
          "type": "address"
        },
        {
          "internalType": "address",
          "name": "",
          "type": "address"
        }
      ],
      "name": "tokens",
      "outputs": [
        {
          "internalType": "uint256",
          "name": "",
          "type": "uint256"
        }
      ],
      "stateMutability": "view",
      "type": "function",
      "constant": true
    },
    {
      "inputs": [],
      "name": "fetchCanceledOrders",
      "outputs": [
        {
          "components": [
            {
              "internalType": "uint256",
              "name": "id",
              "type": "uint256"
            },
            {
              "internalType": "address",
              "name": "user",
              "type": "address"
            },
            {
              "internalType": "address",
              "name": "tokenGet",
              "type": "address"
            },
            {
              "internalType": "uint256",
              "name": "amountGet",
              "type": "uint256"
            },
            {
              "internalType": "address",
              "name": "tokenGive",
              "type": "address"
            },
            {
              "internalType": "uint256",
              "name": "amountGive",
              "type": "uint256"
            },
            {
              "internalType": "uint256",
              "name": "timestamp",
              "type": "uint256"
            }
          ],
          "internalType": "struct Exchange._Order[]",
          "name": "",
          "type": "tuple[]"
        }
      ],
      "stateMutability": "view",
      "type": "function",
      "constant": true
    },
    {
      "inputs": [],
      "name": "fetchOrders",
      "outputs": [
        {
          "components": [
            {
              "internalType": "uint256",
              "name": "id",
              "type": "uint256"
            },
            {
              "internalType": "address",
              "name": "user",
              "type": "address"
            },
            {
              "internalType": "address",
              "name": "tokenGet",
              "type": "address"
            },
            {
              "internalType": "uint256",
              "name": "amountGet",
              "type": "uint256"
            },
            {
              "internalType": "address",
              "name": "tokenGive",
              "type": "address"
            },
            {
              "internalType": "uint256",
              "name": "amountGive",
              "type": "uint256"
            },
            {
              "internalType": "uint256",
              "name": "timestamp",
              "type": "uint256"
            }
          ],
          "internalType": "struct Exchange._Order[]",
          "name": "",
          "type": "tuple[]"
        }
      ],
      "stateMutability": "view",
      "type": "function",
      "constant": true
    },
    {
      "inputs": [
        {
          "internalType": "uint256",
          "name": "_id",
          "type": "uint256"
        }
      ],
      "name": "fillOrder",
      "outputs": [],
      "stateMutability": "payable",
      "type": "function",
      "payable": true
    },
    {
      "inputs": [
        {
          "internalType": "address",
          "name": "_tokenGet",
          "type": "address"
        },
        {
          "internalType": "uint256",
          "name": "_amountGet",
          "type": "uint256"
        },
        {
          "internalType": "address",
          "name": "_tokenGive",
          "type": "address"
        },
        {
          "internalType": "uint256",
          "name": "_amountGive",
          "type": "uint256"
        }
      ],
      "name": "makeOrder",
      "outputs": [],
      "stateMutability": "nonpayable",
      "type": "function"
    },
    {
      "inputs": [
        {
          "internalType": "uint256",
          "name": "_id",
          "type": "uint256"
        }
      ],
      "name": "cancelOrder",
      "outputs": [
        {
          "internalType": "bool",
          "name": "",
          "type": "bool"
        }
      ],
      "stateMutability": "nonpayable",
      "type": "function"
    },
    {
      "inputs": [
        {
          "internalType": "address",
          "name": "_tokenAddress",
          "type": "address"
        },
        {
          "internalType": "uint256",
          "name": "_amount",
          "type": "uint256"
        }
      ],
      "name": "depositToken",
      "outputs": [],
      "stateMutability": "nonpayable",
      "type": "function"
    },
    {
      "inputs": [
        {
          "internalType": "address",
          "name": "_tokenAddress",
          "type": "address"
        },
        {
          "internalType": "uint256",
          "name": "_amount",
          "type": "uint256"
        }
      ],
      "name": "withdrawToken",
      "outputs": [],
      "stateMutability": "nonpayable",
      "type": "function"
    },
    {
      "inputs": [],
      "name": "depositEther",
      "outputs": [],
      "stateMutability": "payable",
      "type": "function",
      "payable": true
    },
    {
      "inputs": [
        {
          "internalType": "uint256",
          "name": "_amount",
          "type": "uint256"
        }
      ],
      "name": "withdrawEther",
      "outputs": [],
      "stateMutability": "nonpayable",
      "type": "function"
    },
    {
      "inputs": [
        {
          "internalType": "address",
          "name": "_tokenAddress",
          "type": "address"
        },
        {
          "internalType": "address",
          "name": "_user",
          "type": "address"
        }
      ],
      "name": "balanceOf",
      "outputs": [
        {
          "internalType": "uint256",
          "name": "",
          "type": "uint256"
        }
      ],
      "stateMutability": "view",
      "type": "function",
      "constant": true
    }
  ],
  "bytecode": "0x60806040523480156200001157600080fd5b506040516200313a3803806200313a8339818101604052810190620000379190620000bd565b600160008190555081600160006101000a81548173ffffffffffffffffffffffffffffffffffffffff021916908373ffffffffffffffffffffffffffffffffffffffff16021790555080600281905550505062000170565b600081519050620000a0816200013c565b92915050565b600081519050620000b78162000156565b92915050565b60008060408385031215620000d157600080fd5b6000620000e1858286016200008f565b9250506020620000f485828601620000a6565b9150509250929050565b60006200010b8262000112565b9050919050565b600073ffffffffffffffffffffffffffffffffffffffff82169050919050565b6000819050919050565b6200014781620000fe565b81146200015357600080fd5b50565b620001618162000132565b81146200016d57600080fd5b50565b612fba80620001806000396000f3fe6080604052600436106101095760003560e01c806367b830ad116100955780639e281a98116100645780639e281a981461033d578063a85c38ef14610366578063c71a2456146103a9578063e9c18966146103d4578063f7888aec1461041157610109565b806367b830ad146102c35780637fd6f15c146102df57806398ea5fca1461030a5780639a5c90aa1461031457610109565b80634a93e0da116100dc5780634a93e0da146101b65780634c7ce449146101f3578063508493bc1461021e578063514fcac71461025b57806365e17c9d1461029857610109565b8063080975491461010e5780632453ffa814610139578063338b5dea146101645780633bed33ce1461018d575b600080fd5b34801561011a57600080fd5b5061012361044e565b6040516101309190612a3a565b60405180910390f35b34801561014557600080fd5b5061014e6106c7565b60405161015b9190612bd7565b60405180910390f35b34801561017057600080fd5b5061018b60048036038101906101869190612445565b6106cd565b005b34801561019957600080fd5b506101b460048036038101906101af919061250d565b6109d7565b005b3480156101c257600080fd5b506101dd60048036038101906101d8919061250d565b610ca9565b6040516101ea9190612a5c565b60405180910390f35b3480156101ff57600080fd5b50610208610cc9565b6040516102159190612a3a565b60405180910390f35b34801561022a57600080fd5b5061024560048036038101906102409190612409565b610f69565b6040516102529190612bd7565b60405180910390f35b34801561026757600080fd5b50610282600480360381019061027d919061250d565b610f8e565b60405161028f9190612a5c565b60405180910390f35b3480156102a457600080fd5b506102ad6111a2565b6040516102ba919061297a565b60405180910390f35b6102dd60048036038101906102d8919061250d565b6111c8565b005b3480156102eb57600080fd5b506102f46113fe565b6040516103019190612bd7565b60405180910390f35b610312611404565b005b34801561032057600080fd5b5061033b60048036038101906103369190612481565b6115cf565b005b34801561034957600080fd5b50610364600480360381019061035f9190612445565b6117c2565b005b34801561037257600080fd5b5061038d6004803603810190610388919061250d565b611b89565b6040516103a09796959493929190612c70565b60405180910390f35b3480156103b557600080fd5b506103be611c2b565b6040516103cb9190612bd7565b60405180910390f35b3480156103e057600080fd5b506103fb60048036038101906103f6919061250d565b611c31565b6040516104089190612a5c565b60405180910390f35b34801561041d57600080fd5b5061043860048036038101906104339190612409565b611c51565b6040516104459190612bd7565b60405180910390f35b6060600060075490506000808267ffffffffffffffff81111561049a577f4e487b7100000000000000000000000000000000000000000000000000000000600052604160045260246000fd5b6040519080825280602002602001820160405280156104d357816020015b6104c061234b565b8152602001906001900390816104b85790505b50905060005b838110156106bd576000600460006001846104f49190612d29565b81526020019081526020016000206000015490506000600460008381526020019081526020016000209050806040518060e0016040529081600082015481526020016001820160009054906101000a900473ffffffffffffffffffffffffffffffffffffffff1673ffffffffffffffffffffffffffffffffffffffff1673ffffffffffffffffffffffffffffffffffffffff1681526020016002820160009054906101000a900473ffffffffffffffffffffffffffffffffffffffff1673ffffffffffffffffffffffffffffffffffffffff1673ffffffffffffffffffffffffffffffffffffffff168152602001600382015481526020016004820160009054906101000a900473ffffffffffffffffffffffffffffffffffffffff1673ffffffffffffffffffffffffffffffffffffffff1673ffffffffffffffffffffffffffffffffffffffff1681526020016005820154815260200160068201548152505084868151811061068e577f4e487b7100000000000000000000000000000000000000000000000000000000600052603260045260246000fd5b60200260200101819052506001856106a69190612d29565b9450505080806106b590612e98565b9150506104d9565b5080935050505090565b60075481565b600073ffffffffffffffffffffffffffffffffffffffff168273ffffffffffffffffffffffffffffffffffffffff16141561073d576040517f08c379a000000000000000000000000000000000000000000000000000000000815260040161073490612a77565b60405180910390fd5b8173ffffffffffffffffffffffffffffffffffffffff166323b872dd3330846040518463ffffffff1660e01b815260040161077a93929190612995565b602060405180830381600087803b15801561079457600080fd5b505af11580156107a8573d6000803e3d6000fd5b505050506040513d601f19601f820116820180604052508101906107cc91906124e4565b61080b576040517f08c379a000000000000000000000000000000000000000000000000000000000815260040161080290612b17565b60405180910390fd5b61089a81600360008573ffffffffffffffffffffffffffffffffffffffff1673ffffffffffffffffffffffffffffffffffffffff16815260200190815260200160002060003373ffffffffffffffffffffffffffffffffffffffff1673ffffffffffffffffffffffffffffffffffffffff16815260200190815260200160002054611cd890919063ffffffff16565b600360008473ffffffffffffffffffffffffffffffffffffffff1673ffffffffffffffffffffffffffffffffffffffff16815260200190815260200160002060003373ffffffffffffffffffffffffffffffffffffffff1673ffffffffffffffffffffffffffffffffffffffff168152602001908152602001600020819055507fdcbc1c05240f31ff3ad067ef1ee35ce4997762752e3a095284754544f4c709d7823383600360008773ffffffffffffffffffffffffffffffffffffffff1673ffffffffffffffffffffffffffffffffffffffff16815260200190815260200160002060003373ffffffffffffffffffffffffffffffffffffffff1673ffffffffffffffffffffffffffffffffffffffff168152602001908152602001600020546040516109cb94939291906129cc565b60405180910390a15050565b80600360008073ffffffffffffffffffffffffffffffffffffffff1673ffffffffffffffffffffffffffffffffffffffff16815260200190815260200160002060003373ffffffffffffffffffffffffffffffffffffffff1673ffffffffffffffffffffffffffffffffffffffff168152602001908152602001600020541015610a96576040517f08c379a0000000000000000000000000000000000000000000000000000000008152600401610a8d90612ab7565b60405180910390fd5b610b2581600360008073ffffffffffffffffffffffffffffffffffffffff1673ffffffffffffffffffffffffffffffffffffffff16815260200190815260200160002060003373ffffffffffffffffffffffffffffffffffffffff1673ffffffffffffffffffffffffffffffffffffffff16815260200190815260200160002054611cee90919063ffffffff16565b600360008073ffffffffffffffffffffffffffffffffffffffff1673ffffffffffffffffffffffffffffffffffffffff16815260200190815260200160002060003373ffffffffffffffffffffffffffffffffffffffff1673ffffffffffffffffffffffffffffffffffffffff168152602001908152602001600020819055503373ffffffffffffffffffffffffffffffffffffffff166108fc829081150290604051600060405180830381858888f19350505050158015610beb573d6000803e3d6000fd5b507ff341246adaac6f497bc2a656f546ab9e182111d630394f0c57c710a59a2cb56760003383600360008073ffffffffffffffffffffffffffffffffffffffff1673ffffffffffffffffffffffffffffffffffffffff16815260200190815260200160002060003373ffffffffffffffffffffffffffffffffffffffff1673ffffffffffffffffffffffffffffffffffffffff16815260200190815260200160002054604051610c9e94939291906129cc565b60405180910390a150565b60066020528060005260406000206000915054906101000a900460ff1681565b6060600060075490506000808267ffffffffffffffff811115610d15577f4e487b7100000000000000000000000000000000000000000000000000000000600052604160045260246000fd5b604051908082528060200260200182016040528015610d4e57816020015b610d3b61234b565b815260200190600190039081610d335790505b50905060005b83811015610f5f57600060046000600184610d6f9190612d29565b81526020019081526020016000206000015490506005600082815260200190815260200160002060009054906101000a900460ff1615610f4b576000600460008381526020019081526020016000209050806040518060e0016040529081600082015481526020016001820160009054906101000a900473ffffffffffffffffffffffffffffffffffffffff1673ffffffffffffffffffffffffffffffffffffffff1673ffffffffffffffffffffffffffffffffffffffff1681526020016002820160009054906101000a900473ffffffffffffffffffffffffffffffffffffffff1673ffffffffffffffffffffffffffffffffffffffff1673ffffffffffffffffffffffffffffffffffffffff168152602001600382015481526020016004820160009054906101000a900473ffffffffffffffffffffffffffffffffffffffff1673ffffffffffffffffffffffffffffffffffffffff1673ffffffffffffffffffffffffffffffffffffffff16815260200160058201548152602001600682015481525050848681518110610f2f577f4e487b7100000000000000000000000000000000000000000000000000000000600052603260045260246000fd5b6020026020010181905250600185610f479190612d29565b9450505b508080610f5790612e98565b915050610d54565b5080935050505090565b6003602052816000526040600020602052806000526040600020600091509150505481565b6000806004600084815260200190815260200160002090503373ffffffffffffffffffffffffffffffffffffffff168160010160009054906101000a900473ffffffffffffffffffffffffffffffffffffffff1673ffffffffffffffffffffffffffffffffffffffff1614611038576040517f08c379a000000000000000000000000000000000000000000000000000000000815260040161102f90612b37565b60405180910390fd5b8060000154831461107e576040517f08c379a000000000000000000000000000000000000000000000000000000000815260040161107590612a97565b60405180910390fd5b60016005600085815260200190815260200160002060006101000a81548160ff021916908315150217905550600860008154809291906110bd90612e98565b91905055507f77de1da0be5f2d3b110d05c6694e5c4ff2d9da7cd23d84353ecf78c7b5acec61838260010160009054906101000a900473ffffffffffffffffffffffffffffffffffffffff168360020160009054906101000a900473ffffffffffffffffffffffffffffffffffffffff1684600301548560040160009054906101000a900473ffffffffffffffffffffffffffffffffffffffff168660050154426040516111719796959493929190612c70565b60405180910390a16005600084815260200190815260200160002060009054906101000a900460ff16915050919050565b600160009054906101000a900473ffffffffffffffffffffffffffffffffffffffff1681565b6002600054141561120e576040517f08c379a000000000000000000000000000000000000000000000000000000000815260040161120590612b77565b60405180910390fd5b600260008190555060008111801561122857506007548111155b611267576040517f08c379a000000000000000000000000000000000000000000000000000000000815260040161125e90612af7565b60405180910390fd5b6005600082815260200190815260200160002060009054906101000a900460ff16156112c8576040517f08c379a00000000000000000000000000000000000000000000000000000000081526004016112bf90612b97565b60405180910390fd5b6006600082815260200190815260200160002060009054906101000a900460ff1615611329576040517f08c379a000000000000000000000000000000000000000000000000000000000815260040161132090612bb7565b60405180910390fd5b60006004600083815260200190815260200160002090506113c681600001548260010160009054906101000a900473ffffffffffffffffffffffffffffffffffffffff168360020160009054906101000a900473ffffffffffffffffffffffffffffffffffffffff1684600301548560040160009054906101000a900473ffffffffffffffffffffffffffffffffffffffff168660050154611d04565b60016006600084815260200190815260200160002060006101000a81548160ff02191690831515021790555050600160008190555050565b60025481565b61149334600360008073ffffffffffffffffffffffffffffffffffffffff1673ffffffffffffffffffffffffffffffffffffffff16815260200190815260200160002060003373ffffffffffffffffffffffffffffffffffffffff1673ffffffffffffffffffffffffffffffffffffffff16815260200190815260200160002054611cd890919063ffffffff16565b600360008073ffffffffffffffffffffffffffffffffffffffff1673ffffffffffffffffffffffffffffffffffffffff16815260200190815260200160002060003373ffffffffffffffffffffffffffffffffffffffff1673ffffffffffffffffffffffffffffffffffffffff168152602001908152602001600020819055507fdcbc1c05240f31ff3ad067ef1ee35ce4997762752e3a095284754544f4c709d760003334600360008073ffffffffffffffffffffffffffffffffffffffff1673ffffffffffffffffffffffffffffffffffffffff16815260200190815260200160002060003373ffffffffffffffffffffffffffffffffffffffff1673ffffffffffffffffffffffffffffffffffffffff168152602001908152602001600020546040516115c594939291906129cc565b60405180910390a1565b6115e56001600754611cd890919063ffffffff16565b6007819055506040518060e0016040528060075481526020013373ffffffffffffffffffffffffffffffffffffffff1681526020018573ffffffffffffffffffffffffffffffffffffffff1681526020018481526020018373ffffffffffffffffffffffffffffffffffffffff168152602001828152602001428152506004600060075481526020019081526020016000206000820151816000015560208201518160010160006101000a81548173ffffffffffffffffffffffffffffffffffffffff021916908373ffffffffffffffffffffffffffffffffffffffff16021790555060408201518160020160006101000a81548173ffffffffffffffffffffffffffffffffffffffff021916908373ffffffffffffffffffffffffffffffffffffffff1602179055506060820151816003015560808201518160040160006101000a81548173ffffffffffffffffffffffffffffffffffffffff021916908373ffffffffffffffffffffffffffffffffffffffff16021790555060a0820151816005015560c082015181600601559050507f9d33853d43e3607b4cc01fdc78338ff2dca6fef7db9232dae6d3eb55fbc3b1096007543386868686426040516117b49796959493929190612c70565b60405180910390a150505050565b600073ffffffffffffffffffffffffffffffffffffffff168273ffffffffffffffffffffffffffffffffffffffff161415611832576040517f08c379a000000000000000000000000000000000000000000000000000000000815260040161182990612ad7565b60405180910390fd5b80600360008473ffffffffffffffffffffffffffffffffffffffff1673ffffffffffffffffffffffffffffffffffffffff16815260200190815260200160002060003373ffffffffffffffffffffffffffffffffffffffff1673ffffffffffffffffffffffffffffffffffffffff1681526020019081526020016000205410156118f1576040517f08c379a00000000000000000000000000000000000000000000000000000000081526004016118e890612b57565b60405180910390fd5b61198081600360008573ffffffffffffffffffffffffffffffffffffffff1673ffffffffffffffffffffffffffffffffffffffff16815260200190815260200160002060003373ffffffffffffffffffffffffffffffffffffffff1673ffffffffffffffffffffffffffffffffffffffff16815260200190815260200160002054611cee90919063ffffffff16565b600360008473ffffffffffffffffffffffffffffffffffffffff1673ffffffffffffffffffffffffffffffffffffffff16815260200190815260200160002060003373ffffffffffffffffffffffffffffffffffffffff1673ffffffffffffffffffffffffffffffffffffffff168152602001908152602001600020819055508173ffffffffffffffffffffffffffffffffffffffff1663a9059cbb33836040518363ffffffff1660e01b8152600401611a3b929190612a11565b602060405180830381600087803b158015611a5557600080fd5b505af1158015611a69573d6000803e3d6000fd5b505050506040513d601f19601f82011682018060405250810190611a8d91906124e4565b611acc576040517f08c379a0000000000000000000000000000000000000000000000000000000008152600401611ac390612b17565b60405180910390fd5b7ff341246adaac6f497bc2a656f546ab9e182111d630394f0c57c710a59a2cb567823383600360008773ffffffffffffffffffffffffffffffffffffffff1673ffffffffffffffffffffffffffffffffffffffff16815260200190815260200160002060003373ffffffffffffffffffffffffffffffffffffffff1673ffffffffffffffffffffffffffffffffffffffff16815260200190815260200160002054604051611b7d94939291906129cc565b60405180910390a15050565b60046020528060005260406000206000915090508060000154908060010160009054906101000a900473ffffffffffffffffffffffffffffffffffffffff16908060020160009054906101000a900473ffffffffffffffffffffffffffffffffffffffff16908060030154908060040160009054906101000a900473ffffffffffffffffffffffffffffffffffffffff16908060050154908060060154905087565b60085481565b60056020528060005260406000206000915054906101000a900460ff1681565b6000600360008473ffffffffffffffffffffffffffffffffffffffff1673ffffffffffffffffffffffffffffffffffffffff16815260200190815260200160002060008373ffffffffffffffffffffffffffffffffffffffff1673ffffffffffffffffffffffffffffffffffffffff16815260200190815260200160002054905092915050565b60008183611ce69190612d29565b905092915050565b60008183611cfc9190612e0a565b905092915050565b6000611d2e6064611d206002548761231f90919063ffffffff16565b61233590919063ffffffff16565b9050611dd1611d468286611cd890919063ffffffff16565b600360008873ffffffffffffffffffffffffffffffffffffffff1673ffffffffffffffffffffffffffffffffffffffff16815260200190815260200160002060003373ffffffffffffffffffffffffffffffffffffffff1673ffffffffffffffffffffffffffffffffffffffff16815260200190815260200160002054611cee90919063ffffffff16565b600360008773ffffffffffffffffffffffffffffffffffffffff1673ffffffffffffffffffffffffffffffffffffffff16815260200190815260200160002060003373ffffffffffffffffffffffffffffffffffffffff1673ffffffffffffffffffffffffffffffffffffffff16815260200190815260200160002081905550611ee084600360008873ffffffffffffffffffffffffffffffffffffffff1673ffffffffffffffffffffffffffffffffffffffff16815260200190815260200160002060008973ffffffffffffffffffffffffffffffffffffffff1673ffffffffffffffffffffffffffffffffffffffff16815260200190815260200160002054611cd890919063ffffffff16565b600360008773ffffffffffffffffffffffffffffffffffffffff1673ffffffffffffffffffffffffffffffffffffffff16815260200190815260200160002060008873ffffffffffffffffffffffffffffffffffffffff1673ffffffffffffffffffffffffffffffffffffffff1681526020019081526020016000208190555061201181600360008873ffffffffffffffffffffffffffffffffffffffff1673ffffffffffffffffffffffffffffffffffffffff1681526020019081526020016000206000600160009054906101000a900473ffffffffffffffffffffffffffffffffffffffff1673ffffffffffffffffffffffffffffffffffffffff1673ffffffffffffffffffffffffffffffffffffffff16815260200190815260200160002054611cd890919063ffffffff16565b600360008773ffffffffffffffffffffffffffffffffffffffff1673ffffffffffffffffffffffffffffffffffffffff1681526020019081526020016000206000600160009054906101000a900473ffffffffffffffffffffffffffffffffffffffff1673ffffffffffffffffffffffffffffffffffffffff1673ffffffffffffffffffffffffffffffffffffffff1681526020019081526020016000208190555061214282600360008673ffffffffffffffffffffffffffffffffffffffff1673ffffffffffffffffffffffffffffffffffffffff16815260200190815260200160002060008973ffffffffffffffffffffffffffffffffffffffff1673ffffffffffffffffffffffffffffffffffffffff16815260200190815260200160002054611cee90919063ffffffff16565b600360008573ffffffffffffffffffffffffffffffffffffffff1673ffffffffffffffffffffffffffffffffffffffff16815260200190815260200160002060008873ffffffffffffffffffffffffffffffffffffffff1673ffffffffffffffffffffffffffffffffffffffff1681526020019081526020016000208190555061225182600360008673ffffffffffffffffffffffffffffffffffffffff1673ffffffffffffffffffffffffffffffffffffffff16815260200190815260200160002060003373ffffffffffffffffffffffffffffffffffffffff1673ffffffffffffffffffffffffffffffffffffffff16815260200190815260200160002054611cd890919063ffffffff16565b600360008573ffffffffffffffffffffffffffffffffffffffff1673ffffffffffffffffffffffffffffffffffffffff16815260200190815260200160002060003373ffffffffffffffffffffffffffffffffffffffff1673ffffffffffffffffffffffffffffffffffffffff168152602001908152602001600020819055507f0dddf4182dc0fc1a311cb75f049c97403c6b8a99cf6b2229a36e7c526acb3f81878787878787334260405161230e989796959493929190612bf2565b60405180910390a150505050505050565b6000818361232d9190612db0565b905092915050565b600081836123439190612d7f565b905092915050565b6040518060e0016040528060008152602001600073ffffffffffffffffffffffffffffffffffffffff168152602001600073ffffffffffffffffffffffffffffffffffffffff16815260200160008152602001600073ffffffffffffffffffffffffffffffffffffffff16815260200160008152602001600081525090565b6000813590506123d981612f3f565b92915050565b6000815190506123ee81612f56565b92915050565b60008135905061240381612f6d565b92915050565b6000806040838503121561241c57600080fd5b600061242a858286016123ca565b925050602061243b858286016123ca565b9150509250929050565b6000806040838503121561245857600080fd5b6000612466858286016123ca565b9250506020612477858286016123f4565b9150509250929050565b6000806000806080858703121561249757600080fd5b60006124a5878288016123ca565b94505060206124b6878288016123f4565b93505060406124c7878288016123ca565b92505060606124d8878288016123f4565b91505092959194509250565b6000602082840312156124f657600080fd5b6000612504848285016123df565b91505092915050565b60006020828403121561251f57600080fd5b600061252d848285016123f4565b91505092915050565b600061254283836128ce565b60e08301905092915050565b61255781612e50565b82525050565b61256681612e3e565b82525050565b61257581612e3e565b82525050565b600061258682612cef565b6125908185612d07565b935061259b83612cdf565b8060005b838110156125cc5781516125b38882612536565b97506125be83612cfa565b92505060018101905061259f565b5085935050505092915050565b6125e281612e62565b82525050565b60006125f5602183612d18565b91507f43616e27742073656e6420657468657220746f20746869732066756e6374696f60008301527f6e000000000000000000000000000000000000000000000000000000000000006020830152604082019050919050565b600061265b601283612d18565b91507f4e6f742076616c6964206f7264657220696400000000000000000000000000006000830152602082019050919050565b600061269b601083612d18565b91507f4e6f7420656e6f756768206574686572000000000000000000000000000000006000830152602082019050919050565b60006126db601783612d18565b91507f546f6b656e2061646472657373206e6f742076616c69640000000000000000006000830152602082019050919050565b600061271b601083612d18565b91507f496e76616c6964206f72646572206964000000000000000000000000000000006000830152602082019050919050565b600061275b601283612d18565b91507f436f756c64206e6f74207472616e7366657200000000000000000000000000006000830152602082019050919050565b600061279b601c83612d18565b91507f4d757374206265206f72646572207573657220746f2063616e63656c000000006000830152602082019050919050565b60006127db601183612d18565b91507f4e6f7420656e6f75676820746f6b656e730000000000000000000000000000006000830152602082019050919050565b600061281b601f83612d18565b91507f5265656e7472616e637947756172643a207265656e7472616e742063616c6c006000830152602082019050919050565b600061285b601b83612d18565b91507f4f726465722063616e63656c6c6564206265666f72652066696c6c00000000006000830152602082019050919050565b600061289b601483612d18565b91507f4f726465722066696c6c656420616c72656164790000000000000000000000006000830152602082019050919050565b60e0820160008201516128e4600085018261295c565b5060208201516128f7602085018261255d565b50604082015161290a604085018261255d565b50606082015161291d606085018261295c565b506080820151612930608085018261255d565b5060a082015161294360a085018261295c565b5060c082015161295660c085018261295c565b50505050565b61296581612e8e565b82525050565b61297481612e8e565b82525050565b600060208201905061298f600083018461254e565b92915050565b60006060820190506129aa600083018661256c565b6129b7602083018561256c565b6129c4604083018461296b565b949350505050565b60006080820190506129e1600083018761256c565b6129ee602083018661256c565b6129fb604083018561296b565b612a08606083018461296b565b95945050505050565b6000604082019050612a26600083018561256c565b612a33602083018461296b565b9392505050565b60006020820190508181036000830152612a54818461257b565b905092915050565b6000602082019050612a7160008301846125d9565b92915050565b60006020820190508181036000830152612a90816125e8565b9050919050565b60006020820190508181036000830152612ab08161264e565b9050919050565b60006020820190508181036000830152612ad08161268e565b9050919050565b60006020820190508181036000830152612af0816126ce565b9050919050565b60006020820190508181036000830152612b108161270e565b9050919050565b60006020820190508181036000830152612b308161274e565b9050919050565b60006020820190508181036000830152612b508161278e565b9050919050565b60006020820190508181036000830152612b70816127ce565b9050919050565b60006020820190508181036000830152612b908161280e565b9050919050565b60006020820190508181036000830152612bb08161284e565b9050919050565b60006020820190508181036000830152612bd08161288e565b9050919050565b6000602082019050612bec600083018461296b565b92915050565b600061010082019050612c08600083018b61296b565b612c15602083018a61256c565b612c22604083018961256c565b612c2f606083018861296b565b612c3c608083018761256c565b612c4960a083018661296b565b612c5660c083018561256c565b612c6360e083018461296b565b9998505050505050505050565b600060e082019050612c85600083018a61296b565b612c92602083018961256c565b612c9f604083018861256c565b612cac606083018761296b565b612cb9608083018661256c565b612cc660a083018561296b565b612cd360c083018461296b565b98975050505050505050565b6000819050602082019050919050565b600081519050919050565b6000602082019050919050565b600082825260208201905092915050565b600082825260208201905092915050565b6000612d3482612e8e565b9150612d3f83612e8e565b9250827fffffffffffffffffffffffffffffffffffffffffffffffffffffffffffffffff03821115612d7457612d73612ee1565b5b828201905092915050565b6000612d8a82612e8e565b9150612d9583612e8e565b925082612da557612da4612f10565b5b828204905092915050565b6000612dbb82612e8e565b9150612dc683612e8e565b9250817fffffffffffffffffffffffffffffffffffffffffffffffffffffffffffffffff0483118215151615612dff57612dfe612ee1565b5b828202905092915050565b6000612e1582612e8e565b9150612e2083612e8e565b925082821015612e3357612e32612ee1565b5b828203905092915050565b6000612e4982612e6e565b9050919050565b6000612e5b82612e6e565b9050919050565b60008115159050919050565b600073ffffffffffffffffffffffffffffffffffffffff82169050919050565b6000819050919050565b6000612ea382612e8e565b91507fffffffffffffffffffffffffffffffffffffffffffffffffffffffffffffffff821415612ed657612ed5612ee1565b5b600182019050919050565b7f4e487b7100000000000000000000000000000000000000000000000000000000600052601160045260246000fd5b7f4e487b7100000000000000000000000000000000000000000000000000000000600052601260045260246000fd5b612f4881612e3e565b8114612f5357600080fd5b50565b612f5f81612e62565b8114612f6a57600080fd5b50565b612f7681612e8e565b8114612f8157600080fd5b5056fea2646970667358221220a7c618331fcc80c5c77f11f501db854688ffb8eb52293aebad71e60b13b0366764736f6c63430008000033",
  "immutableReferences": {},
  "source": "// SPDX-License-Identifier: MIT\npragma solidity ^0.8.0;\n\nimport \"@openzeppelin/contracts/token/ERC20/IERC20.sol\";\nimport \"@openzeppelin/contracts/utils/math/SafeMath.sol\";\nimport \"@openzeppelin/contracts/security/ReentrancyGuard.sol\";\n\ncontract Exchange is ReentrancyGuard  {\n\n    using SafeMath for uint256;\n\n    //vars\n    address constant ETHER = address(0);\n    address payable public feeAccount;\n    uint256 public feePercent;\n    mapping(address => mapping(address => uint256)) public tokens;\n    mapping(uint256 => _Order) public orders;\n    mapping(uint256 => bool) public orderCancelled;\n    mapping(uint256 => bool) public orderFilled;\n    uint256 public orderCount;\n    uint256 public orderCancelledCount;\n    //structs\n    struct _Order {\n        uint256 id;\n        address user;\n        address tokenGet;\n        uint256 amountGet;\n        address tokenGive;\n        uint256 amountGive;\n        uint256 timestamp;\n    }\n\n    //events\n    event Deposit(address _token, address _user, uint256 _amount, uint256 _balance);\n    event Withdraw(address _token, address _user, uint256 _amount, uint256 _balance);\n    event Order(uint256 _id, address _user, address _tokenGet, uint256 _amountGet,\n        address _tokenGive, uint256 _amountGive, uint256 _timestamp);\n    event Cancel(uint256 _id, address _user, address _tokenGet, uint256 _amountGet, address _tokenGive, uint256 _amountGive,\n        uint256 _timestamp);\n    event Trade(uint256 _id, address _user, address _tokenGet, uint256 _amountGet, address _tokenGive, uint256 _amountGive,\n        address _userFill, uint256 _timestamp);\n\n\n    //constructor\n    constructor (address  _feeAccount, uint256 _feePercent)  \n     {\n        feeAccount =  payable(_feeAccount);\n        feePercent = _feePercent;\n    }\n\n    function fetchCanceledOrders() public view returns (_Order[] memory) {\n        uint256 itemCount = orderCount;\n        //uint unsoldItemCount = _itemIds.current() - _itemsSold.current();\n        uint currentIndex = 0;\n\n        _Order[] memory items = new _Order[](itemCount);\n        for (uint i = 0; i < itemCount; i++) {\n            \n            uint currentId = orders[i+1].id;\n            if (orderCancelled[currentId])\n            {\n                _Order storage currentItem = orders[currentId];\n                items[currentIndex] = currentItem;\n                currentIndex += 1;\n            }\n            \n        \n        }\n    \n        return items;\n    }\n\n    function fetchOrders() public view returns (_Order[] memory) {\n        uint256 itemCount = orderCount;\n        //uint unsoldItemCount = _itemIds.current() - _itemsSold.current();\n        uint currentIndex = 0;\n\n        _Order[] memory items = new _Order[](itemCount);\n        for (uint i = 0; i < itemCount; i++) {\n        \n            uint currentId = orders[i+1].id;\n            _Order storage currentItem = orders[currentId];\n            items[currentIndex] = currentItem;\n            currentIndex += 1;\n        \n        }\n    \n        return items;\n    }\n    \n    function fillOrder(uint256 _id) public payable nonReentrant{\n        //require order is valid, not filled or cancelled already\n        require(_id > 0 && _id <= orderCount, \"Invalid order id\");\n        require(!orderCancelled[_id], \"Order cancelled before fill\");\n        require(!orderFilled[_id], \"Order filled already\");\n        //fetch order\n        _Order storage _order = orders[_id];\n        //do trade\n        _trade(_order.id, _order.user, _order.tokenGet, _order.amountGet, _order.tokenGive, _order.amountGive);\n        //mark order as filled\n        orderFilled[_id] = true;\n    }\n\n    function _trade(uint256 _id, address _user, address _tokenGet, uint256 _amountGet, address _tokenGive, uint256 _amountGive) internal {\n        //charge fees - taken from filler of order (msg.sender)\n        uint256 _feeAmount = _amountGet.mul(feePercent).div(100);\n        //DO TRADE\n        //msg.sender is the person filling order, _user the person who made the order\n        //move order fillers tokens to order maker, whilst subtracting fees from filler\n        tokens[_tokenGet][msg.sender] = tokens[_tokenGet][msg.sender].sub(_amountGet.add(_feeAmount));\n        tokens[_tokenGet][_user] = tokens[_tokenGet][_user].add(_amountGet);\n        //take fees to fee account\n        tokens[_tokenGet][feeAccount] = tokens[_tokenGet][feeAccount].add(_feeAmount);\n        //move order makers tokens to order filler\n        tokens[_tokenGive][_user] = tokens[_tokenGive][_user].sub(_amountGive);\n        tokens[_tokenGive][msg.sender] = tokens[_tokenGive][msg.sender].add(_amountGive);\n        //emit event\n        emit Trade(_id, _user, _tokenGet, _amountGet, _tokenGive, _amountGive, msg.sender, block.timestamp);\n    }\n\n    //make order\n    function makeOrder(address _tokenGet, uint256 _amountGet, address _tokenGive, uint256 _amountGive) public {\n        //increment ordercount\n        orderCount = orderCount.add(1);\n        //add order to orders mapping by creating new struct\n        orders[orderCount] = _Order(orderCount, msg.sender, _tokenGet, _amountGet, _tokenGive, _amountGive, block.timestamp);\n        //emit event\n        emit Order(orderCount, msg.sender, _tokenGet, _amountGet, _tokenGive, _amountGive, block.timestamp);\n    }\n\n    //cancel order\n    function cancelOrder(uint256 _id) public returns (bool){\n        //retrieve order\n        _Order storage _order = orders[_id];\n        //require user is owner of order\n        require(address(_order.user) == msg.sender, \"Must be order user to cancel\");\n        //require valid order id\n        require(_id == _order.id, \"Not valid order id\");\n        //add to cancelled orders mapping\n        orderCancelled[_id] = true;\n        orderCancelledCount++;\n        //emit event\n        emit Cancel(_id, _order.user, _order.tokenGet, _order.amountGet, _order.tokenGive, _order.amountGive, block.timestamp);\n        //return true for cancelled order\n        return orderCancelled[_id];\n    }\n\n    //deposit erc20 tokens\n    function depositToken(address _tokenAddress, uint256 _amount) public {\n        //don't allow ether deposits\n        require(_tokenAddress != ETHER, \"Can't send ether to this function\");\n        //require this so we only continue if transfer occurs\n        require(IERC20(_tokenAddress).transferFrom(msg.sender, address(this), _amount), \"Could not transfer\");\n        //add to balance\n        tokens[_tokenAddress][msg.sender] = tokens[_tokenAddress][msg.sender].add(_amount);\n        //emit event\n        emit Deposit(_tokenAddress, msg.sender, _amount, tokens[_tokenAddress][msg.sender]);\n    }\n\n    //withdraw erc20 tokens\n    function withdrawToken(address _tokenAddress, uint256 _amount) public {\n        //dont allow ether\n        require(_tokenAddress != ETHER, \"Token address not valid\");\n        //require balance to be greater than amount\n        require(tokens[_tokenAddress][msg.sender] >= _amount, \"Not enough tokens\");\n        //subtract tokens\n        tokens[_tokenAddress][msg.sender] = tokens[_tokenAddress][msg.sender].sub(_amount);\n        //send tokens and require the transfer goes through\n        require(IERC20(_tokenAddress).transfer(msg.sender, _amount), \"Could not transfer\");\n        //emit event\n        emit Withdraw(_tokenAddress, msg.sender, _amount, tokens[_tokenAddress][msg.sender]);\n    }\n\n    //deposit ether\n    function depositEther() public payable {\n        //use tokens mapping to store ether\n        tokens[ETHER][msg.sender] = tokens[ETHER][msg.sender].add(msg.value);\n        //emit event\n        emit Deposit(ETHER, msg.sender, msg.value, tokens[ETHER][msg.sender]);\n    }\n\n    //withdraw ether\n    function withdrawEther(uint256 _amount) public {\n        //require balance to be greater than amount\n        require(tokens[ETHER][msg.sender] >= _amount, \"Not enough ether\");\n        //subtract ether\n        tokens[ETHER][msg.sender] = tokens[ETHER][msg.sender].sub(_amount);\n        //send ether\n        payable(msg.sender).transfer(_amount);\n        //emit event\n        emit Withdraw(ETHER, msg.sender, _amount, tokens[ETHER][msg.sender]);\n    }\n\n    //balance of user\n    function balanceOf(address _tokenAddress, address _user) public view returns (uint256){\n        return tokens[_tokenAddress][_user];\n    }\n\n}",
  "sourcePath": "D:\\projetos\\blockchain\\defi-next\\src\\contracts\\Exchange.sol",
  "compiler": {
    "name": "solc",
    "version": "0.8.0+commit.c7dfd78e.Emscripten.clang"
  },
  "schemaVersion": "3.4.3",
  "updatedAt": "2022-07-03T15:45:44.635Z",
  "networkType": "ethereum",
  "devdoc": {
    "kind": "dev",
    "methods": {},
    "version": 1
  },
  "userdoc": {
    "kind": "user",
    "methods": {},
    "version": 1
  }
}