{
  "contractName": "Pairs",
  "abi": [
    {
      "inputs": [],
      "stateMutability": "nonpayable",
      "type": "constructor"
    },
    {
      "anonymous": false,
      "inputs": [
        {
          "indexed": true,
          "internalType": "address",
          "name": "tokenAddress",
          "type": "address"
        },
        {
          "indexed": false,
          "internalType": "string",
          "name": "symbol",
          "type": "string"
        },
        {
          "indexed": false,
          "internalType": "address",
          "name": "user",
          "type": "address"
        }
      ],
      "name": "NewAddress",
      "type": "event"
    },
    {
      "inputs": [
        {
          "internalType": "uint256",
          "name": "",
          "type": "uint256"
        }
      ],
      "name": "addresses",
      "outputs": [
        {
          "internalType": "address",
          "name": "",
          "type": "address"
        }
      ],
      "stateMutability": "view",
      "type": "function",
      "constant": true
    },
    {
      "inputs": [],
      "name": "admin",
      "outputs": [
        {
          "internalType": "address",
          "name": "",
          "type": "address"
        }
      ],
      "stateMutability": "view",
      "type": "function",
      "constant": true
    },
    {
      "inputs": [],
      "name": "size",
      "outputs": [
        {
          "internalType": "uint256",
          "name": "",
          "type": "uint256"
        }
      ],
      "stateMutability": "view",
      "type": "function",
      "constant": true
    },
    {
      "inputs": [
        {
          "internalType": "address",
          "name": "_tokenAddress",
          "type": "address"
        }
      ],
      "name": "add",
      "outputs": [],
      "stateMutability": "nonpayable",
      "type": "function"
    }
  ],
  "bytecode": "0x608060405234801561001057600080fd5b50336000806101000a81548173ffffffffffffffffffffffffffffffffffffffff021916908373ffffffffffffffffffffffffffffffffffffffff1602179055506108d8806100606000396000f3fe608060405234801561001057600080fd5b506004361061004c5760003560e01c80630a3b0a4f14610051578063949d225d1461006d578063edf26d9b1461008b578063f851a440146100bb575b600080fd5b61006b6004803603810190610066919061048a565b6100d9565b005b61007561037a565b60405161008291906106a8565b60405180910390f35b6100a560048036038101906100a091906104f4565b610380565b6040516100b2919061061d565b60405180910390f35b6100c36103bf565b6040516100d0919061061d565b60405180910390f35b60008054906101000a900473ffffffffffffffffffffffffffffffffffffffff1673ffffffffffffffffffffffffffffffffffffffff163373ffffffffffffffffffffffffffffffffffffffff1614610167576040517f08c379a000000000000000000000000000000000000000000000000000000000815260040161015e90610688565b60405180910390fd5b60008173ffffffffffffffffffffffffffffffffffffffff166318160ddd6040518163ffffffff1660e01b815260040160206040518083038186803b1580156101af57600080fd5b505afa1580156101c3573d6000803e3d6000fd5b505050506040513d601f19601f820116820180604052508101906101e7919061051d565b11610227576040517f08c379a000000000000000000000000000000000000000000000000000000000815260040161021e90610668565b60405180910390fd5b60008173ffffffffffffffffffffffffffffffffffffffff166395d89b416040518163ffffffff1660e01b815260040160006040518083038186803b15801561026f57600080fd5b505afa158015610283573d6000803e3d6000fd5b505050506040513d6000823e3d601f19601f820116820180604052508101906102ac91906104b3565b90506001829080600181540180825580915050600190039060005260206000200160009091909190916101000a81548173ffffffffffffffffffffffffffffffffffffffff021916908373ffffffffffffffffffffffffffffffffffffffff16021790555060016002546103209190610740565b6002819055508173ffffffffffffffffffffffffffffffffffffffff167f40716b676f9ef2268d8b0dc199feb199cec4e882bacdb805db988a5b9f3b7dce823360405161036e929190610638565b60405180910390a25050565b60025481565b6001818154811061039057600080fd5b906000526020600020016000915054906101000a900473ffffffffffffffffffffffffffffffffffffffff1681565b60008054906101000a900473ffffffffffffffffffffffffffffffffffffffff1681565b60006103f66103f1846106f4565b6106c3565b90508281526020810184848401111561040e57600080fd5b6104198482856107d2565b509392505050565b60008135905061043081610874565b92915050565b600082601f83011261044757600080fd5b81516104578482602086016103e3565b91505092915050565b60008135905061046f8161088b565b92915050565b6000815190506104848161088b565b92915050565b60006020828403121561049c57600080fd5b60006104aa84828501610421565b91505092915050565b6000602082840312156104c557600080fd5b600082015167ffffffffffffffff8111156104df57600080fd5b6104eb84828501610436565b91505092915050565b60006020828403121561050657600080fd5b600061051484828501610460565b91505092915050565b60006020828403121561052f57600080fd5b600061053d84828501610475565b91505092915050565b61054f81610796565b82525050565b600061056082610724565b61056a818561072f565b935061057a8185602086016107d2565b61058381610863565b840191505092915050565b600061059b601e8361072f565b91507f546f6b656e206e616f20706f7373756920746f74616c2067657261646f2e00006000830152602082019050919050565b60006105db600d8361072f565b91507f536f6d656e74652061646d696e000000000000000000000000000000000000006000830152602082019050919050565b610617816107c8565b82525050565b60006020820190506106326000830184610546565b92915050565b600060408201905081810360008301526106528185610555565b90506106616020830184610546565b9392505050565b600060208201905081810360008301526106818161058e565b9050919050565b600060208201905081810360008301526106a1816105ce565b9050919050565b60006020820190506106bd600083018461060e565b92915050565b6000604051905081810181811067ffffffffffffffff821117156106ea576106e9610834565b5b8060405250919050565b600067ffffffffffffffff82111561070f5761070e610834565b5b601f19601f8301169050602081019050919050565b600081519050919050565b600082825260208201905092915050565b600061074b826107c8565b9150610756836107c8565b9250827fffffffffffffffffffffffffffffffffffffffffffffffffffffffffffffffff0382111561078b5761078a610805565b5b828201905092915050565b60006107a1826107a8565b9050919050565b600073ffffffffffffffffffffffffffffffffffffffff82169050919050565b6000819050919050565b60005b838110156107f05780820151818401526020810190506107d5565b838111156107ff576000848401525b50505050565b7f4e487b7100000000000000000000000000000000000000000000000000000000600052601160045260246000fd5b7f4e487b7100000000000000000000000000000000000000000000000000000000600052604160045260246000fd5b6000601f19601f8301169050919050565b61087d81610796565b811461088857600080fd5b50565b610894816107c8565b811461089f57600080fd5b5056fea264697066735822122059c8ec67de9c0af77c5da03e6fa54ae87549224aa2b44e9caa0643dee196ccfc64736f6c63430008000033",
  "immutableReferences": {},
  "source": "// SPDX-License-Identifier: MIT\npragma solidity ^0.8.0;\n\nimport \"@openzeppelin/contracts/token/ERC20/ERC20.sol\";\n\ncontract Pairs {\n   address public admin;\n    address[] public addresses;\n    uint public size;\n\n    event NewAddress(address indexed tokenAddress, string symbol, address user);\n\n    constructor ( )  {\n        admin = msg.sender;\n    }\n\n    function add(address _tokenAddress) public {\n        require(msg.sender == admin,  \"Somente admin\");\n        require(ERC20(_tokenAddress).totalSupply() > 0, \"Token nao possui total gerado.\");\n        string memory symbol = ERC20(_tokenAddress).symbol();\n        addresses.push(_tokenAddress);\n        size = size + 1;\n        emit NewAddress(_tokenAddress, symbol, msg.sender);\n    }\n}",
  "sourcePath": "/projetos/dex-next/src/contracts/Pairs.sol",
  "compiler": {
    "name": "solc",
    "version": "0.8.0+commit.c7dfd78e.Emscripten.clang"
  },
  "schemaVersion": "3.4.16",
  "updatedAt": "2024-06-17T13:07:27.570Z",
  "networkType": "ethereum",
  "devdoc": {
    "kind": "dev",
    "methods": {},
    "version": 1
  },
  "userdoc": {
    "kind": "user",
    "methods": {},
    "version": 1
  }
}