{
  "contractName": "Pairs",
  "abi": [
    {
      "anonymous": false,
      "inputs": [
        {
          "indexed": true,
          "internalType": "address",
          "name": "tokenAddress",
          "type": "address"
        },
        {
          "indexed": false,
          "internalType": "string",
          "name": "symbol",
          "type": "string"
        },
        {
          "indexed": false,
          "internalType": "address",
          "name": "user",
          "type": "address"
        }
      ],
      "name": "NewAddress",
      "type": "event"
    },
    {
      "inputs": [
        {
          "internalType": "uint256",
          "name": "",
          "type": "uint256"
        }
      ],
      "name": "addresses",
      "outputs": [
        {
          "internalType": "address",
          "name": "",
          "type": "address"
        }
      ],
      "stateMutability": "view",
      "type": "function"
    },
    {
      "inputs": [],
      "name": "size",
      "outputs": [
        {
          "internalType": "uint256",
          "name": "",
          "type": "uint256"
        }
      ],
      "stateMutability": "view",
      "type": "function"
    },
    {
      "inputs": [
        {
          "internalType": "address",
          "name": "_tokenAddress",
          "type": "address"
        }
      ],
      "name": "add",
      "outputs": [],
      "stateMutability": "nonpayable",
      "type": "function"
    }
  ],
  "bytecode": "0x608060405234801561001057600080fd5b5061079c806100206000396000f3fe608060405234801561001057600080fd5b50600436106100415760003560e01c80630a3b0a4f14610046578063949d225d14610062578063edf26d9b14610080575b600080fd5b610060600480360381019061005b91906103ae565b6100b0565b005b61006a6102c2565b604051610077919061056c565b60405180910390f35b61009a60048036038101906100959190610418565b6102c8565b6040516100a79190610501565b60405180910390f35b60008173ffffffffffffffffffffffffffffffffffffffff166318160ddd6040518163ffffffff1660e01b815260040160206040518083038186803b1580156100f857600080fd5b505afa15801561010c573d6000803e3d6000fd5b505050506040513d601f19601f820116820180604052508101906101309190610441565b11610170576040517f08c379a00000000000000000000000000000000000000000000000000000000081526004016101679061054c565b60405180910390fd5b60008173ffffffffffffffffffffffffffffffffffffffff166395d89b416040518163ffffffff1660e01b815260040160006040518083038186803b1580156101b857600080fd5b505afa1580156101cc573d6000803e3d6000fd5b505050506040513d6000823e3d601f19601f820116820180604052508101906101f591906103d7565b90506000829080600181540180825580915050600190039060005260206000200160009091909190916101000a81548173ffffffffffffffffffffffffffffffffffffffff021916908373ffffffffffffffffffffffffffffffffffffffff160217905550600180546102689190610604565b6001819055508173ffffffffffffffffffffffffffffffffffffffff167f40716b676f9ef2268d8b0dc199feb199cec4e882bacdb805db988a5b9f3b7dce82336040516102b692919061051c565b60405180910390a25050565b60015481565b600081815481106102d857600080fd5b906000526020600020016000915054906101000a900473ffffffffffffffffffffffffffffffffffffffff1681565b600061031a610315846105b8565b610587565b90508281526020810184848401111561033257600080fd5b61033d848285610696565b509392505050565b60008135905061035481610738565b92915050565b600082601f83011261036b57600080fd5b815161037b848260208601610307565b91505092915050565b6000813590506103938161074f565b92915050565b6000815190506103a88161074f565b92915050565b6000602082840312156103c057600080fd5b60006103ce84828501610345565b91505092915050565b6000602082840312156103e957600080fd5b600082015167ffffffffffffffff81111561040357600080fd5b61040f8482850161035a565b91505092915050565b60006020828403121561042a57600080fd5b600061043884828501610384565b91505092915050565b60006020828403121561045357600080fd5b600061046184828501610399565b91505092915050565b6104738161065a565b82525050565b6000610484826105e8565b61048e81856105f3565b935061049e818560208601610696565b6104a781610727565b840191505092915050565b60006104bf601a836105f3565b91507f436f756c64206e6f742067657420746f74616c20737570706c790000000000006000830152602082019050919050565b6104fb8161068c565b82525050565b6000602082019050610516600083018461046a565b92915050565b600060408201905081810360008301526105368185610479565b9050610545602083018461046a565b9392505050565b60006020820190508181036000830152610565816104b2565b9050919050565b600060208201905061058160008301846104f2565b92915050565b6000604051905081810181811067ffffffffffffffff821117156105ae576105ad6106f8565b5b8060405250919050565b600067ffffffffffffffff8211156105d3576105d26106f8565b5b601f19601f8301169050602081019050919050565b600081519050919050565b600082825260208201905092915050565b600061060f8261068c565b915061061a8361068c565b9250827fffffffffffffffffffffffffffffffffffffffffffffffffffffffffffffffff0382111561064f5761064e6106c9565b5b828201905092915050565b60006106658261066c565b9050919050565b600073ffffffffffffffffffffffffffffffffffffffff82169050919050565b6000819050919050565b60005b838110156106b4578082015181840152602081019050610699565b838111156106c3576000848401525b50505050565b7f4e487b7100000000000000000000000000000000000000000000000000000000600052601160045260246000fd5b7f4e487b7100000000000000000000000000000000000000000000000000000000600052604160045260246000fd5b6000601f19601f8301169050919050565b6107418161065a565b811461074c57600080fd5b50565b6107588161068c565b811461076357600080fd5b5056fea264697066735822122002fdc514bc1f8f0dc280732059277f669d275a384372b262e8f611e12de01c5364736f6c63430008000033",
  "immutableReferences": {},
  "source": "// SPDX-License-Identifier: MIT\npragma solidity ^0.8.0;\n\nimport \"@openzeppelin/contracts/token/ERC20/ERC20.sol\";\n\ncontract Pairs {\n\n    address[] public addresses;\n    uint public size;\n\n    event NewAddress(address indexed tokenAddress, string symbol, address user);\n\n    function add(address _tokenAddress) public {\n        require(ERC20(_tokenAddress).totalSupply() > 0, \"Could not get total supply\");\n        string memory symbol = ERC20(_tokenAddress).symbol();\n        addresses.push(_tokenAddress);\n        size = size + 1;\n        emit NewAddress(_tokenAddress, symbol, msg.sender);\n    }\n}",
  "sourcePath": "D:\\projetos\\blockchain\\dex-next\\src\\contracts\\Pairs.sol",
  "compiler": {
    "name": "solc",
    "version": "0.8.0+commit.c7dfd78e.Emscripten.clang"
  },
  "schemaVersion": "3.4.3",
  "updatedAt": "2022-08-11T19:41:30.954Z",
  "devdoc": {
    "kind": "dev",
    "methods": {},
    "version": 1
  },
  "userdoc": {
    "kind": "user",
    "methods": {},
    "version": 1
  }
}