{
  "contractName": "Stacking",
  "abi": [
    {
      "inputs": [
        {
          "internalType": "contract IDTToken",
          "name": "_token",
          "type": "address"
        },
        {
          "internalType": "address",
          "name": "_devAddress",
          "type": "address"
        },
        {
          "internalType": "uint256",
          "name": "_idtPerBlock",
          "type": "uint256"
        },
        {
          "internalType": "uint256",
          "name": "_startBlock",
          "type": "uint256"
        },
        {
          "internalType": "uint256",
          "name": "_bonusEndBlock",
          "type": "uint256"
        }
      ],
      "stateMutability": "nonpayable",
      "type": "constructor"
    },
    {
      "anonymous": false,
      "inputs": [
        {
          "indexed": true,
          "internalType": "address",
          "name": "user",
          "type": "address"
        },
        {
          "indexed": true,
          "internalType": "uint256",
          "name": "pid",
          "type": "uint256"
        },
        {
          "indexed": false,
          "internalType": "uint256",
          "name": "amount",
          "type": "uint256"
        }
      ],
      "name": "Deposit",
      "type": "event"
    },
    {
      "anonymous": false,
      "inputs": [
        {
          "indexed": true,
          "internalType": "address",
          "name": "previousOwner",
          "type": "address"
        },
        {
          "indexed": true,
          "internalType": "address",
          "name": "newOwner",
          "type": "address"
        }
      ],
      "name": "OwnershipTransferred",
      "type": "event"
    },
    {
      "anonymous": false,
      "inputs": [
        {
          "indexed": true,
          "internalType": "address",
          "name": "user",
          "type": "address"
        },
        {
          "indexed": true,
          "internalType": "uint256",
          "name": "pid",
          "type": "uint256"
        },
        {
          "indexed": false,
          "internalType": "uint256",
          "name": "amount",
          "type": "uint256"
        }
      ],
      "name": "Withdraw",
      "type": "event"
    },
    {
      "inputs": [],
      "name": "BONUS_MULTIPLIER",
      "outputs": [
        {
          "internalType": "uint256",
          "name": "",
          "type": "uint256"
        }
      ],
      "stateMutability": "view",
      "type": "function",
      "constant": true
    },
    {
      "inputs": [],
      "name": "bonusEndBlock",
      "outputs": [
        {
          "internalType": "uint256",
          "name": "",
          "type": "uint256"
        }
      ],
      "stateMutability": "view",
      "type": "function",
      "constant": true
    },
    {
      "inputs": [],
      "name": "devAddress",
      "outputs": [
        {
          "internalType": "address",
          "name": "",
          "type": "address"
        }
      ],
      "stateMutability": "view",
      "type": "function",
      "constant": true
    },
    {
      "inputs": [],
      "name": "idt",
      "outputs": [
        {
          "internalType": "contract IDTToken",
          "name": "",
          "type": "address"
        }
      ],
      "stateMutability": "view",
      "type": "function",
      "constant": true
    },
    {
      "inputs": [],
      "name": "idtPerBlock",
      "outputs": [
        {
          "internalType": "uint256",
          "name": "",
          "type": "uint256"
        }
      ],
      "stateMutability": "view",
      "type": "function",
      "constant": true
    },
    {
      "inputs": [],
      "name": "owner",
      "outputs": [
        {
          "internalType": "address",
          "name": "",
          "type": "address"
        }
      ],
      "stateMutability": "view",
      "type": "function",
      "constant": true
    },
    {
      "inputs": [
        {
          "internalType": "address",
          "name": "",
          "type": "address"
        }
      ],
      "name": "poolBalance",
      "outputs": [
        {
          "internalType": "uint256",
          "name": "",
          "type": "uint256"
        }
      ],
      "stateMutability": "view",
      "type": "function",
      "constant": true
    },
    {
      "inputs": [
        {
          "internalType": "uint256",
          "name": "",
          "type": "uint256"
        }
      ],
      "name": "poolInfo",
      "outputs": [
        {
          "internalType": "address",
          "name": "tokenStack",
          "type": "address"
        },
        {
          "internalType": "uint256",
          "name": "allocPoint",
          "type": "uint256"
        },
        {
          "internalType": "uint256",
          "name": "lastRewardBlock",
          "type": "uint256"
        },
        {
          "internalType": "uint256",
          "name": "accIDTPerShare",
          "type": "uint256"
        }
      ],
      "stateMutability": "view",
      "type": "function",
      "constant": true
    },
    {
      "inputs": [],
      "name": "renounceOwnership",
      "outputs": [],
      "stateMutability": "nonpayable",
      "type": "function"
    },
    {
      "inputs": [],
      "name": "stackCount",
      "outputs": [
        {
          "internalType": "uint256",
          "name": "",
          "type": "uint256"
        }
      ],
      "stateMutability": "view",
      "type": "function",
      "constant": true
    },
    {
      "inputs": [
        {
          "internalType": "uint256",
          "name": "",
          "type": "uint256"
        },
        {
          "internalType": "address",
          "name": "",
          "type": "address"
        }
      ],
      "name": "stackers",
      "outputs": [
        {
          "internalType": "uint256",
          "name": "",
          "type": "uint256"
        }
      ],
      "stateMutability": "view",
      "type": "function",
      "constant": true
    },
    {
      "inputs": [],
      "name": "startBlock",
      "outputs": [
        {
          "internalType": "uint256",
          "name": "",
          "type": "uint256"
        }
      ],
      "stateMutability": "view",
      "type": "function",
      "constant": true
    },
    {
      "inputs": [],
      "name": "totalAllocPoint",
      "outputs": [
        {
          "internalType": "uint256",
          "name": "",
          "type": "uint256"
        }
      ],
      "stateMutability": "view",
      "type": "function",
      "constant": true
    },
    {
      "inputs": [
        {
          "internalType": "address",
          "name": "newOwner",
          "type": "address"
        }
      ],
      "name": "transferOwnership",
      "outputs": [],
      "stateMutability": "nonpayable",
      "type": "function"
    },
    {
      "inputs": [],
      "name": "poolLength",
      "outputs": [
        {
          "internalType": "uint256",
          "name": "",
          "type": "uint256"
        }
      ],
      "stateMutability": "view",
      "type": "function",
      "constant": true
    },
    {
      "inputs": [
        {
          "internalType": "uint256",
          "name": "_allocPoint",
          "type": "uint256"
        },
        {
          "internalType": "address",
          "name": "_lpToken",
          "type": "address"
        },
        {
          "internalType": "bool",
          "name": "_withUpdate",
          "type": "bool"
        }
      ],
      "name": "add",
      "outputs": [],
      "stateMutability": "nonpayable",
      "type": "function"
    },
    {
      "inputs": [
        {
          "internalType": "uint256",
          "name": "_amount",
          "type": "uint256"
        },
        {
          "internalType": "uint256",
          "name": "_id",
          "type": "uint256"
        }
      ],
      "name": "deposit",
      "outputs": [],
      "stateMutability": "payable",
      "type": "function",
      "payable": true
    },
    {
      "inputs": [
        {
          "internalType": "uint256",
          "name": "_amount",
          "type": "uint256"
        },
        {
          "internalType": "uint256",
          "name": "_id",
          "type": "uint256"
        }
      ],
      "name": "withdraw",
      "outputs": [],
      "stateMutability": "payable",
      "type": "function",
      "payable": true
    },
    {
      "inputs": [
        {
          "internalType": "uint256",
          "name": "_id",
          "type": "uint256"
        }
      ],
      "name": "getWithdraw",
      "outputs": [
        {
          "internalType": "uint256",
          "name": "",
          "type": "uint256"
        }
      ],
      "stateMutability": "view",
      "type": "function",
      "constant": true
    },
    {
      "inputs": [
        {
          "internalType": "uint256",
          "name": "_pid",
          "type": "uint256"
        }
      ],
      "name": "update",
      "outputs": [
        {
          "internalType": "uint256",
          "name": "",
          "type": "uint256"
        }
      ],
      "stateMutability": "view",
      "type": "function",
      "constant": true
    },
    {
      "inputs": [
        {
          "internalType": "uint256",
          "name": "_pid",
          "type": "uint256"
        }
      ],
      "name": "updatePool",
      "outputs": [],
      "stateMutability": "nonpayable",
      "type": "function"
    },
    {
      "inputs": [],
      "name": "massUpdatePools",
      "outputs": [],
      "stateMutability": "nonpayable",
      "type": "function"
    },
    {
      "inputs": [
        {
          "internalType": "uint256",
          "name": "_from",
          "type": "uint256"
        },
        {
          "internalType": "uint256",
          "name": "_to",
          "type": "uint256"
        }
      ],
      "name": "getMultiplier",
      "outputs": [
        {
          "internalType": "uint256",
          "name": "",
          "type": "uint256"
        }
      ],
      "stateMutability": "view",
      "type": "function",
      "constant": true
    },
    {
      "inputs": [
        {
          "internalType": "uint256",
          "name": "_id",
          "type": "uint256"
        },
        {
          "internalType": "address",
          "name": "_user",
          "type": "address"
        }
      ],
      "name": "stackingBalanceOf",
      "outputs": [
        {
          "internalType": "uint256",
          "name": "",
          "type": "uint256"
        }
      ],
      "stateMutability": "view",
      "type": "function",
      "constant": true
    },
    {
      "inputs": [
        {
          "internalType": "address",
          "name": "_token",
          "type": "address"
        }
      ],
      "name": "balanceOfPool",
      "outputs": [
        {
          "internalType": "uint256",
          "name": "",
          "type": "uint256"
        }
      ],
      "stateMutability": "view",
      "type": "function",
      "constant": true
    },
    {
      "inputs": [
        {
          "internalType": "uint256",
          "name": "_pid",
          "type": "uint256"
        }
      ],
      "name": "pendingIDT",
      "outputs": [
        {
          "internalType": "uint256",
          "name": "",
          "type": "uint256"
        }
      ],
      "stateMutability": "nonpayable",
      "type": "function"
    },
    {
      "inputs": [
        {
          "internalType": "address",
          "name": "_token",
          "type": "address"
        },
        {
          "internalType": "address",
          "name": "_spender",
          "type": "address"
        },
        {
          "internalType": "uint256",
          "name": "_value",
          "type": "uint256"
        }
      ],
      "name": "getERCapprove",
      "outputs": [
        {
          "internalType": "bool",
          "name": "",
          "type": "bool"
        }
      ],
      "stateMutability": "nonpayable",
      "type": "function"
    },
    {
      "inputs": [
        {
          "internalType": "address",
          "name": "_token",
          "type": "address"
        },
        {
          "internalType": "address",
          "name": "_from",
          "type": "address"
        },
        {
          "internalType": "address",
          "name": "_to",
          "type": "address"
        },
        {
          "internalType": "uint256",
          "name": "_value",
          "type": "uint256"
        }
      ],
      "name": "getERCtransferFrom",
      "outputs": [
        {
          "internalType": "bool",
          "name": "",
          "type": "bool"
        }
      ],
      "stateMutability": "nonpayable",
      "type": "function"
    },
    {
      "inputs": [
        {
          "internalType": "address",
          "name": "_token",
          "type": "address"
        },
        {
          "internalType": "address",
          "name": "_owner",
          "type": "address"
        }
      ],
      "name": "getERCBalance",
      "outputs": [
        {
          "internalType": "uint256",
          "name": "",
          "type": "uint256"
        }
      ],
      "stateMutability": "nonpayable",
      "type": "function"
    },
    {
      "inputs": [
        {
          "internalType": "address",
          "name": "_token",
          "type": "address"
        },
        {
          "internalType": "address",
          "name": "_to",
          "type": "address"
        },
        {
          "internalType": "uint256",
          "name": "_value",
          "type": "uint256"
        }
      ],
      "name": "getERCtransfer",
      "outputs": [
        {
          "internalType": "bool",
          "name": "",
          "type": "bool"
        }
      ],
      "stateMutability": "nonpayable",
      "type": "function"
    },
    {
      "inputs": [
        {
          "internalType": "address",
          "name": "_token",
          "type": "address"
        }
      ],
      "name": "getERCname",
      "outputs": [
        {
          "internalType": "string",
          "name": "",
          "type": "string"
        }
      ],
      "stateMutability": "nonpayable",
      "type": "function"
    },
    {
      "inputs": [
        {
          "internalType": "address",
          "name": "_token",
          "type": "address"
        }
      ],
      "name": "getERCsymbol",
      "outputs": [
        {
          "internalType": "string",
          "name": "",
          "type": "string"
        }
      ],
      "stateMutability": "nonpayable",
      "type": "function"
    },
    {
      "inputs": [
        {
          "internalType": "uint256",
          "name": "_pid",
          "type": "uint256"
        }
      ],
      "name": "getLPSupply",
      "outputs": [
        {
          "internalType": "uint256",
          "name": "",
          "type": "uint256"
        }
      ],
      "stateMutability": "nonpayable",
      "type": "function"
    },
    {
      "inputs": [
        {
          "internalType": "uint256",
          "name": "_pid",
          "type": "uint256"
        }
      ],
      "name": "getLastRewardBlock",
      "outputs": [
        {
          "internalType": "uint256",
          "name": "",
          "type": "uint256"
        }
      ],
      "stateMutability": "view",
      "type": "function",
      "constant": true
    },
    {
      "inputs": [
        {
          "internalType": "uint256",
          "name": "_pid",
          "type": "uint256"
        }
      ],
      "name": "getMultiplierView",
      "outputs": [
        {
          "internalType": "uint256",
          "name": "",
          "type": "uint256"
        }
      ],
      "stateMutability": "view",
      "type": "function",
      "constant": true
    },
    {
      "inputs": [
        {
          "internalType": "uint256",
          "name": "_pid",
          "type": "uint256"
        }
      ],
      "name": "getAccIDTPerShare",
      "outputs": [
        {
          "internalType": "uint256",
          "name": "",
          "type": "uint256"
        }
      ],
      "stateMutability": "view",
      "type": "function",
      "constant": true
    },
    {
      "inputs": [
        {
          "internalType": "uint256",
          "name": "_pid",
          "type": "uint256"
        }
      ],
      "name": "getIdtReward",
      "outputs": [
        {
          "internalType": "uint256",
          "name": "",
          "type": "uint256"
        }
      ],
      "stateMutability": "view",
      "type": "function",
      "constant": true
    }
  ],
  "bytecode": "0x6080604052604051620000129062000236565b604051809103906000f0801580156200002f573d6000803e3d6000fd5b50600660006101000a81548173ffffffffffffffffffffffffffffffffffffffff021916908373ffffffffffffffffffffffffffffffffffffffff1602179055506000600b553480156200008257600080fd5b5060405162004f0a38038062004f0a8339818101604052810190620000a8919062000289565b620000c8620000bc6200016a60201b60201c565b6200017260201b60201c565b84600560006101000a81548173ffffffffffffffffffffffffffffffffffffffff021916908373ffffffffffffffffffffffffffffffffffffffff16021790555083600a60006101000a81548173ffffffffffffffffffffffffffffffffffffffff021916908373ffffffffffffffffffffffffffffffffffffffff1602179055508260098190555080600881905550816004819055505050505050620003ab565b600033905090565b60008060009054906101000a900473ffffffffffffffffffffffffffffffffffffffff169050816000806101000a81548173ffffffffffffffffffffffffffffffffffffffff021916908373ffffffffffffffffffffffffffffffffffffffff1602179055508173ffffffffffffffffffffffffffffffffffffffff168173ffffffffffffffffffffffffffffffffffffffff167f8be0079c531659141344cd1fd0a4f28419497f9722a3daafe3b4186f6b6457e060405160405180910390a35050565b6118e9806200362183390190565b60008151905062000255816200035d565b92915050565b6000815190506200026c8162000377565b92915050565b600081519050620002838162000391565b92915050565b600080600080600060a08688031215620002a257600080fd5b6000620002b2888289016200025b565b9550506020620002c58882890162000244565b9450506040620002d88882890162000272565b9350506060620002eb8882890162000272565b9250506080620002fe8882890162000272565b9150509295509295909350565b6000620003188262000333565b9050919050565b60006200032c826200030b565b9050919050565b600073ffffffffffffffffffffffffffffffffffffffff82169050919050565b6000819050919050565b62000368816200030b565b81146200037457600080fd5b50565b62000382816200031f565b81146200038e57600080fd5b50565b6200039c8162000353565b8114620003a857600080fd5b50565b61326680620003bb6000396000f3fe60806040526004361061021a5760003560e01c80636d7af5b111610123578063b5cbf3b0116100ab578063e2bbb1581161006f578063e2bbb15814610879578063ed0816de14610895578063efd1a444146108d2578063f2fde38b1461090f578063f36ab037146109385761021a565b8063b5cbf3b01461076c578063b9ca62e4146107a9578063bcc320e3146107e6578063d4708fc414610823578063df9dac751461084e5761021a565b80638aa28550116100f25780638aa285501461065f5780638da5cb5b1461068a5780638dbb1e3a146106b55780639409ac9f146106f2578063b0f637941461072f5761021a565b80636d7af5b114610591578063715018a6146105ce578063749400ff146105e557806382ab890a146106225761021a565b80633ad10ef6116101a65780635bfa898b116101755780635bfa898b14610498578063630b5ba1146104d5578063653c3914146104ec57806366f2ac521461052957806368abb5e0146105545761021a565b80633ad10ef6146103fd578063441a3e701461042857806348cd4cb11461044457806351eb05a61461046f5761021a565b80631622c554116101ed5780631622c5541461030457806317caf6f11461034157806318eaae051461036c5780631aed6553146103a95780631eaaa045146103d45761021a565b8063081e3eda1461021f5780630b0cc9571461024a57806313cc367e146102875780631526fe27146102c4575b600080fd5b34801561022b57600080fd5b50610234610975565b6040516102419190612eb8565b60405180910390f35b34801561025657600080fd5b50610271600480360381019061026c9190612a73565b610982565b60405161027e9190612e20565b60405180910390f35b34801561029357600080fd5b506102ae60048036038101906102a991906129ab565b610a7d565b6040516102bb9190612e56565b60405180910390f35b3480156102d057600080fd5b506102eb60048036038101906102e69190612b2c565b610b6c565b6040516102fb9493929190612ddb565b60405180910390f35b34801561031057600080fd5b5061032b60048036038101906103269190612b2c565b610bcc565b6040516103389190612eb8565b60405180910390f35b34801561034d57600080fd5b50610356610cd8565b6040516103639190612eb8565b60405180910390f35b34801561037857600080fd5b50610393600480360381019061038e9190612b2c565b610cde565b6040516103a09190612eb8565b60405180910390f35b3480156103b557600080fd5b506103be610d77565b6040516103cb9190612eb8565b60405180910390f35b3480156103e057600080fd5b506103fb60048036038101906103f69190612bba565b610d7d565b005b34801561040957600080fd5b50610412610e96565b60405161041f9190612d60565b60405180910390f35b610442600480360381019061043d9190612c09565b610ebc565b005b34801561045057600080fd5b5061045961114d565b6040516104669190612eb8565b60405180910390f35b34801561047b57600080fd5b5061049660048036038101906104919190612b2c565b611153565b005b3480156104a457600080fd5b506104bf60048036038101906104ba9190612a73565b6113ff565b6040516104cc9190612e20565b60405180910390f35b3480156104e157600080fd5b506104ea6114fa565b005b3480156104f857600080fd5b50610513600480360381019061050e9190612b2c565b61152d565b6040516105209190612eb8565b60405180910390f35b34801561053557600080fd5b5061053e6116ee565b60405161054b9190612e3b565b60405180910390f35b34801561056057600080fd5b5061057b600480360381019061057691906129ab565b611714565b6040516105889190612eb8565b60405180910390f35b34801561059d57600080fd5b506105b860048036038101906105b39190612b7e565b61172c565b6040516105c59190612eb8565b60405180910390f35b3480156105da57600080fd5b506105e3611787565b005b3480156105f157600080fd5b5061060c600480360381019061060791906129d4565b61179b565b6040516106199190612eb8565b60405180910390f35b34801561062e57600080fd5b5061064960048036038101906106449190612b2c565b611891565b6040516106569190612eb8565b60405180910390f35b34801561066b57600080fd5b50610674611adf565b6040516106819190612eb8565b60405180910390f35b34801561069657600080fd5b5061069f611ae4565b6040516106ac9190612d60565b60405180910390f35b3480156106c157600080fd5b506106dc60048036038101906106d79190612c09565b611b0d565b6040516106e99190612eb8565b60405180910390f35b3480156106fe57600080fd5b5061071960048036038101906107149190612b2c565b611bbf565b6040516107269190612eb8565b60405180910390f35b34801561073b57600080fd5b50610756600480360381019061075191906129ab565b611c98565b6040516107639190612eb8565b60405180910390f35b34801561077857600080fd5b50610793600480360381019061078e9190612b2c565b611ce1565b6040516107a09190612eb8565b60405180910390f35b3480156107b557600080fd5b506107d060048036038101906107cb9190612b7e565b611e3e565b6040516107dd9190612eb8565b60405180910390f35b3480156107f257600080fd5b5061080d60048036038101906108089190612b2c565b611e63565b60405161081a9190612eb8565b60405180910390f35b34801561082f57600080fd5b50610838611f3c565b6040516108459190612eb8565b60405180910390f35b34801561085a57600080fd5b50610863611f42565b6040516108709190612eb8565b60405180910390f35b610893600480360381019061088e9190612c09565b611f48565b005b3480156108a157600080fd5b506108bc60048036038101906108b79190612a10565b6120e1565b6040516108c99190612e20565b60405180910390f35b3480156108de57600080fd5b506108f960048036038101906108f49190612b2c565b6121df565b6040516109069190612eb8565b60405180910390f35b34801561091b57600080fd5b50610936600480360381019061093191906129ab565b6123a3565b005b34801561094457600080fd5b5061095f600480360381019061095a91906129ab565b612427565b60405161096c9190612e56565b60405180910390f35b6000600780549050905090565b600083600660006101000a81548173ffffffffffffffffffffffffffffffffffffffff021916908373ffffffffffffffffffffffffffffffffffffffff160217905550600660009054906101000a900473ffffffffffffffffffffffffffffffffffffffff1673ffffffffffffffffffffffffffffffffffffffff1663a9059cbb84846040518363ffffffff1660e01b8152600401610a22929190612db2565b602060405180830381600087803b158015610a3c57600080fd5b505af1158015610a50573d6000803e3d6000fd5b505050506040513d601f19601f82011682018060405250810190610a749190612ac2565b90509392505050565b606081600660006101000a81548173ffffffffffffffffffffffffffffffffffffffff021916908373ffffffffffffffffffffffffffffffffffffffff160217905550600660009054906101000a900473ffffffffffffffffffffffffffffffffffffffff1673ffffffffffffffffffffffffffffffffffffffff166395d89b416040518163ffffffff1660e01b815260040160006040518083038186803b158015610b2857600080fd5b505afa158015610b3c573d6000803e3d6000fd5b505050506040513d6000823e3d601f19601f82011682018060405250810190610b659190612aeb565b9050919050565b60078181548110610b7c57600080fd5b90600052602060002090600402016000915090508060000160009054906101000a900473ffffffffffffffffffffffffffffffffffffffff16908060010154908060020154908060030154905084565b60008060078381548110610c09577f4e487b7100000000000000000000000000000000000000000000000000000000600052603260045260246000fd5b90600052602060002090600402016040518060800160405290816000820160009054906101000a900473ffffffffffffffffffffffffffffffffffffffff1673ffffffffffffffffffffffffffffffffffffffff1673ffffffffffffffffffffffffffffffffffffffff168152602001600182015481526020016002820154815260200160038201548152505090506000600b548260200151600954610cae87611ce1565b610cb89190612fd7565b610cc29190612fd7565b610ccc9190612fa6565b90508092505050919050565b600b5481565b600080610cea83611891565b90506000610d6b670de0b6b3a7640000610d5d846002600089815260200190815260200160002060003373ffffffffffffffffffffffffffffffffffffffff1673ffffffffffffffffffffffffffffffffffffffff1681526020019081526020016000205461251690919063ffffffff16565b61252c90919063ffffffff16565b90508092505050919050565b60085481565b610d85612542565b8015610d9457610d936114fa565b5b60006004544311610da757600454610da9565b435b9050610dc084600b546125c090919063ffffffff16565b600b81905550600760405180608001604052808573ffffffffffffffffffffffffffffffffffffffff1681526020018681526020018381526020016000815250908060018154018082558091505060019003906000526020600020906004020160009091909190915060008201518160000160006101000a81548173ffffffffffffffffffffffffffffffffffffffff021916908373ffffffffffffffffffffffffffffffffffffffff160217905550602082015181600101556040820151816002015560608201518160030155505050505050565b600a60009054906101000a900473ffffffffffffffffffffffffffffffffffffffff1681565b600060078281548110610ef8577f4e487b7100000000000000000000000000000000000000000000000000000000600052603260045260246000fd5b90600052602060002090600402019050826002600084815260200190815260200160002060003373ffffffffffffffffffffffffffffffffffffffff1673ffffffffffffffffffffffffffffffffffffffff168152602001908152602001600020541015610f6557600080fd5b610f6e82611153565b6000610ff1670de0b6b3a7640000610fe384600301546002600088815260200190815260200160002060003373ffffffffffffffffffffffffffffffffffffffff1673ffffffffffffffffffffffffffffffffffffffff1681526020019081526020016000205461251690919063ffffffff16565b61252c90919063ffffffff16565b905060008111156110075761100633826125d6565b5b60008411156110f857611073846002600086815260200190815260200160002060003373ffffffffffffffffffffffffffffffffffffffff1673ffffffffffffffffffffffffffffffffffffffff168152602001908152602001600020546127f890919063ffffffff16565b6002600085815260200190815260200160002060003373ffffffffffffffffffffffffffffffffffffffff1673ffffffffffffffffffffffffffffffffffffffff168152602001908152602001600020819055506110f68260000160009054906101000a900473ffffffffffffffffffffffffffffffffffffffff163386610982565b505b823373ffffffffffffffffffffffffffffffffffffffff167ff279e6a1f5e320cca91135676d9cb6e44ca8a08c0b88342bcdb1144f6511b5688660405161113f9190612eb8565b60405180910390a350505050565b60045481565b60006007828154811061118f577f4e487b7100000000000000000000000000000000000000000000000000000000600052603260045260246000fd5b90600052602060002090600402019050806002015443116111b057506113fc565b60006111e08260000160009054906101000a900473ffffffffffffffffffffffffffffffffffffffff163061179b565b905060008114156111fb5743826002018190555050506113fc565b600061120b836002015443611b0d565b9050600061124e600b5461124086600101546112326009548761251690919063ffffffff16565b61251690919063ffffffff16565b61252c90919063ffffffff16565b9050600560009054906101000a900473ffffffffffffffffffffffffffffffffffffffff1673ffffffffffffffffffffffffffffffffffffffff166340c10f19600a60009054906101000a900473ffffffffffffffffffffffffffffffffffffffff166112c5600a8561252c90919063ffffffff16565b6040518363ffffffff1660e01b81526004016112e2929190612db2565b600060405180830381600087803b1580156112fc57600080fd5b505af1158015611310573d6000803e3d6000fd5b50505050600560009054906101000a900473ffffffffffffffffffffffffffffffffffffffff1673ffffffffffffffffffffffffffffffffffffffff166340c10f1930836040518363ffffffff1660e01b8152600401611371929190612db2565b600060405180830381600087803b15801561138b57600080fd5b505af115801561139f573d6000803e3d6000fd5b505050506113e66113d3846113c5670de0b6b3a76400008561251690919063ffffffff16565b61252c90919063ffffffff16565b85600301546125c090919063ffffffff16565b8460030181905550438460020181905550505050505b50565b600083600660006101000a81548173ffffffffffffffffffffffffffffffffffffffff021916908373ffffffffffffffffffffffffffffffffffffffff160217905550600660009054906101000a900473ffffffffffffffffffffffffffffffffffffffff1673ffffffffffffffffffffffffffffffffffffffff1663095ea7b384846040518363ffffffff1660e01b815260040161149f929190612db2565b602060405180830381600087803b1580156114b957600080fd5b505af11580156114cd573d6000803e3d6000fd5b505050506040513d601f19601f820116820180604052508101906114f19190612ac2565b90509392505050565b6000600780549050905060005b818110156115295761151881611153565b8061152290613104565b9050611507565b5050565b6000806007838154811061156a577f4e487b7100000000000000000000000000000000000000000000000000000000600052603260045260246000fd5b9060005260206000209060040201905060008160030154905060006115b38360000160009054906101000a900473ffffffffffffffffffffffffffffffffffffffff163061179b565b90508260020154431180156115c9575060008114155b156116675760006115de846002015443611b0d565b90506000611621600b5461161387600101546116056009548761251690919063ffffffff16565b61251690919063ffffffff16565b61252c90919063ffffffff16565b905061166261165384611645670de0b6b3a76400008561251690919063ffffffff16565b61252c90919063ffffffff16565b856125c090919063ffffffff16565b935050505b6116e4670de0b6b3a76400006116d684600260008a815260200190815260200160002060003373ffffffffffffffffffffffffffffffffffffffff1673ffffffffffffffffffffffffffffffffffffffff1681526020019081526020016000205461251690919063ffffffff16565b61252c90919063ffffffff16565b9350505050919050565b600560009054906101000a900473ffffffffffffffffffffffffffffffffffffffff1681565b60016020528060005260406000206000915090505481565b60006002600084815260200190815260200160002060008373ffffffffffffffffffffffffffffffffffffffff1673ffffffffffffffffffffffffffffffffffffffff16815260200190815260200160002054905092915050565b61178f612542565b611799600061280e565b565b600082600660006101000a81548173ffffffffffffffffffffffffffffffffffffffff021916908373ffffffffffffffffffffffffffffffffffffffff160217905550600660009054906101000a900473ffffffffffffffffffffffffffffffffffffffff1673ffffffffffffffffffffffffffffffffffffffff166370a08231836040518263ffffffff1660e01b81526004016118399190612d60565b60206040518083038186803b15801561185157600080fd5b505afa158015611865573d6000803e3d6000fd5b505050506040513d601f19601f820116820180604052508101906118899190612b55565b905092915050565b600080600783815481106118ce577f4e487b7100000000000000000000000000000000000000000000000000000000600052603260045260246000fd5b90600052602060002090600402016040518060800160405290816000820160009054906101000a900473ffffffffffffffffffffffffffffffffffffffff1673ffffffffffffffffffffffffffffffffffffffff1673ffffffffffffffffffffffffffffffffffffffff1681526020016001820154815260200160028201548152602001600382015481525050905080604001514311611972576001915050611ada565b6000600660009054906101000a900473ffffffffffffffffffffffffffffffffffffffff1673ffffffffffffffffffffffffffffffffffffffff166370a08231306040518263ffffffff1660e01b81526004016119cf9190612d60565b60206040518083038186803b1580156119e757600080fd5b505afa1580156119fb573d6000803e3d6000fd5b505050506040513d601f19601f82011682018060405250810190611a1f9190612b55565b90506000811415611a3557600092505050611ada565b6000611a45836040015143611b0d565b90506000611a88600b54611a7a8660200151611a6c6009548761251690919063ffffffff16565b61251690919063ffffffff16565b61252c90919063ffffffff16565b90506000611acf611abc85611aae670de0b6b3a76400008661251690919063ffffffff16565b61252c90919063ffffffff16565b86606001516125c090919063ffffffff16565b905080955050505050505b919050565b600a81565b60008060009054906101000a900473ffffffffffffffffffffffffffffffffffffffff16905090565b60006008548211611b4557611b3e600a611b3085856127f890919063ffffffff16565b61251690919063ffffffff16565b9050611bb9565b6008548310611b6857611b6183836127f890919063ffffffff16565b9050611bb9565b611bb6611b80600854846127f890919063ffffffff16565b611ba8600a611b9a876008546127f890919063ffffffff16565b61251690919063ffffffff16565b6125c090919063ffffffff16565b90505b92915050565b60008060078381548110611bfc577f4e487b7100000000000000000000000000000000000000000000000000000000600052603260045260246000fd5b90600052602060002090600402016040518060800160405290816000820160009054906101000a900473ffffffffffffffffffffffffffffffffffffffff1673ffffffffffffffffffffffffffffffffffffffff1673ffffffffffffffffffffffffffffffffffffffff168152602001600182015481526020016002820154815260200160038201548152505090508060600151915050919050565b6000600160008373ffffffffffffffffffffffffffffffffffffffff1673ffffffffffffffffffffffffffffffffffffffff168152602001908152602001600020549050919050565b60008060078381548110611d1e577f4e487b7100000000000000000000000000000000000000000000000000000000600052603260045260246000fd5b90600052602060002090600402016040518060800160405290816000820160009054906101000a900473ffffffffffffffffffffffffffffffffffffffff1673ffffffffffffffffffffffffffffffffffffffff1673ffffffffffffffffffffffffffffffffffffffff168152602001600182015481526020016002820154815260200160038201548152505090506008544311611dda57600a816040015143611dc89190613031565b611dd29190612fd7565b915050611e39565b600854816040015110611dff57806040015143611df79190613031565b915050611e39565b60085443611e0d9190613031565b600a8260400151600854611e219190613031565b611e2b9190612fd7565b611e359190612f50565b9150505b919050565b6002602052816000526040600020602052806000526040600020600091509150505481565b60008060078381548110611ea0577f4e487b7100000000000000000000000000000000000000000000000000000000600052603260045260246000fd5b90600052602060002090600402016040518060800160405290816000820160009054906101000a900473ffffffffffffffffffffffffffffffffffffffff1673ffffffffffffffffffffffffffffffffffffffff1673ffffffffffffffffffffffffffffffffffffffff168152602001600182015481526020016002820154815260200160038201548152505090508060400151915050919050565b60095481565b60035481565b600060078281548110611f84577f4e487b7100000000000000000000000000000000000000000000000000000000600052603260045260246000fd5b90600052602060002090600402019050611f9d82611153565b612000836002600085815260200190815260200160002060003373ffffffffffffffffffffffffffffffffffffffff1673ffffffffffffffffffffffffffffffffffffffff168152602001908152602001600020546125c090919063ffffffff16565b6002600084815260200190815260200160002060003373ffffffffffffffffffffffffffffffffffffffff1673ffffffffffffffffffffffffffffffffffffffff168152602001908152602001600020819055506120848160000160009054906101000a900473ffffffffffffffffffffffffffffffffffffffff163330866120e1565b61208d57600080fd5b813373ffffffffffffffffffffffffffffffffffffffff167f90890809c654f11d6e72a28fa60149770a0d11ec6c92319d6ceb2bb0a4ea1a15856040516120d49190612eb8565b60405180910390a3505050565b600084600660006101000a81548173ffffffffffffffffffffffffffffffffffffffff021916908373ffffffffffffffffffffffffffffffffffffffff160217905550600660009054906101000a900473ffffffffffffffffffffffffffffffffffffffff1673ffffffffffffffffffffffffffffffffffffffff166323b872dd8585856040518463ffffffff1660e01b815260040161218393929190612d7b565b602060405180830381600087803b15801561219d57600080fd5b505af11580156121b1573d6000803e3d6000fd5b505050506040513d601f19601f820116820180604052508101906121d59190612ac2565b9050949350505050565b6000806007838154811061221c577f4e487b7100000000000000000000000000000000000000000000000000000000600052603260045260246000fd5b90600052602060002090600402016040518060800160405290816000820160009054906101000a900473ffffffffffffffffffffffffffffffffffffffff1673ffffffffffffffffffffffffffffffffffffffff1673ffffffffffffffffffffffffffffffffffffffff168152602001600182015481526020016002820154815260200160038201548152505090508060000151600660006101000a81548173ffffffffffffffffffffffffffffffffffffffff021916908373ffffffffffffffffffffffffffffffffffffffff160217905550600660009054906101000a900473ffffffffffffffffffffffffffffffffffffffff1673ffffffffffffffffffffffffffffffffffffffff166370a08231306040518263ffffffff1660e01b815260040161234b9190612d60565b60206040518083038186803b15801561236357600080fd5b505afa158015612377573d6000803e3d6000fd5b505050506040513d601f19601f8201168201806040525081019061239b9190612b55565b915050919050565b6123ab612542565b600073ffffffffffffffffffffffffffffffffffffffff168173ffffffffffffffffffffffffffffffffffffffff16141561241b576040517f08c379a000000000000000000000000000000000000000000000000000000000815260040161241290612e78565b60405180910390fd5b6124248161280e565b50565b606081600660006101000a81548173ffffffffffffffffffffffffffffffffffffffff021916908373ffffffffffffffffffffffffffffffffffffffff160217905550600660009054906101000a900473ffffffffffffffffffffffffffffffffffffffff1673ffffffffffffffffffffffffffffffffffffffff166306fdde036040518163ffffffff1660e01b815260040160006040518083038186803b1580156124d257600080fd5b505afa1580156124e6573d6000803e3d6000fd5b505050506040513d6000823e3d601f19601f8201168201806040525081019061250f9190612aeb565b9050919050565b600081836125249190612fd7565b905092915050565b6000818361253a9190612fa6565b905092915050565b61254a6128d2565b73ffffffffffffffffffffffffffffffffffffffff16612568611ae4565b73ffffffffffffffffffffffffffffffffffffffff16146125be576040517f08c379a00000000000000000000000000000000000000000000000000000000081526004016125b590612e98565b60405180910390fd5b565b600081836125ce9190612f50565b905092915050565b6000600560009054906101000a900473ffffffffffffffffffffffffffffffffffffffff1673ffffffffffffffffffffffffffffffffffffffff166370a08231306040518263ffffffff1660e01b81526004016126339190612d60565b60206040518083038186803b15801561264b57600080fd5b505afa15801561265f573d6000803e3d6000fd5b505050506040513d601f19601f820116820180604052508101906126839190612b55565b90508082111561274257600560009054906101000a900473ffffffffffffffffffffffffffffffffffffffff1673ffffffffffffffffffffffffffffffffffffffff1663a9059cbb84836040518363ffffffff1660e01b81526004016126ea929190612db2565b602060405180830381600087803b15801561270457600080fd5b505af1158015612718573d6000803e3d6000fd5b505050506040513d601f19601f8201168201806040525081019061273c9190612ac2565b506127f3565b600560009054906101000a900473ffffffffffffffffffffffffffffffffffffffff1673ffffffffffffffffffffffffffffffffffffffff1663a9059cbb84846040518363ffffffff1660e01b815260040161279f929190612db2565b602060405180830381600087803b1580156127b957600080fd5b505af11580156127cd573d6000803e3d6000fd5b505050506040513d601f19601f820116820180604052508101906127f19190612ac2565b505b505050565b600081836128069190613031565b905092915050565b60008060009054906101000a900473ffffffffffffffffffffffffffffffffffffffff169050816000806101000a81548173ffffffffffffffffffffffffffffffffffffffff021916908373ffffffffffffffffffffffffffffffffffffffff1602179055508173ffffffffffffffffffffffffffffffffffffffff168173ffffffffffffffffffffffffffffffffffffffff167f8be0079c531659141344cd1fd0a4f28419497f9722a3daafe3b4186f6b6457e060405160405180910390a35050565b600033905090565b60006128ed6128e884612f04565b612ed3565b90508281526020810184848401111561290557600080fd5b6129108482856130d1565b509392505050565b600081359050612927816131eb565b92915050565b60008135905061293c81613202565b92915050565b60008151905061295181613202565b92915050565b600082601f83011261296857600080fd5b81516129788482602086016128da565b91505092915050565b60008135905061299081613219565b92915050565b6000815190506129a581613219565b92915050565b6000602082840312156129bd57600080fd5b60006129cb84828501612918565b91505092915050565b600080604083850312156129e757600080fd5b60006129f585828601612918565b9250506020612a0685828601612918565b9150509250929050565b60008060008060808587031215612a2657600080fd5b6000612a3487828801612918565b9450506020612a4587828801612918565b9350506040612a5687828801612918565b9250506060612a6787828801612981565b91505092959194509250565b600080600060608486031215612a8857600080fd5b6000612a9686828701612918565b9350506020612aa786828701612918565b9250506040612ab886828701612981565b9150509250925092565b600060208284031215612ad457600080fd5b6000612ae284828501612942565b91505092915050565b600060208284031215612afd57600080fd5b600082015167ffffffffffffffff811115612b1757600080fd5b612b2384828501612957565b91505092915050565b600060208284031215612b3e57600080fd5b6000612b4c84828501612981565b91505092915050565b600060208284031215612b6757600080fd5b6000612b7584828501612996565b91505092915050565b60008060408385031215612b9157600080fd5b6000612b9f85828601612981565b9250506020612bb085828601612918565b9150509250929050565b600080600060608486031215612bcf57600080fd5b6000612bdd86828701612981565b9350506020612bee86828701612918565b9250506040612bff8682870161292d565b9150509250925092565b60008060408385031215612c1c57600080fd5b6000612c2a85828601612981565b9250506020612c3b85828601612981565b9150509250929050565b612c4e81613065565b82525050565b612c5d81613077565b82525050565b612c6c816130ad565b82525050565b6000612c7d82612f34565b612c878185612f3f565b9350612c978185602086016130d1565b612ca0816131da565b840191505092915050565b6000612cb8602683612f3f565b91507f4f776e61626c653a206e6577206f776e657220697320746865207a65726f206160008301527f64647265737300000000000000000000000000000000000000000000000000006020830152604082019050919050565b6000612d1e602083612f3f565b91507f4f776e61626c653a2063616c6c6572206973206e6f7420746865206f776e65726000830152602082019050919050565b612d5a816130a3565b82525050565b6000602082019050612d756000830184612c45565b92915050565b6000606082019050612d906000830186612c45565b612d9d6020830185612c45565b612daa6040830184612d51565b949350505050565b6000604082019050612dc76000830185612c45565b612dd46020830184612d51565b9392505050565b6000608082019050612df06000830187612c45565b612dfd6020830186612d51565b612e0a6040830185612d51565b612e176060830184612d51565b95945050505050565b6000602082019050612e356000830184612c54565b92915050565b6000602082019050612e506000830184612c63565b92915050565b60006020820190508181036000830152612e708184612c72565b905092915050565b60006020820190508181036000830152612e9181612cab565b9050919050565b60006020820190508181036000830152612eb181612d11565b9050919050565b6000602082019050612ecd6000830184612d51565b92915050565b6000604051905081810181811067ffffffffffffffff82111715612efa57612ef96131ab565b5b8060405250919050565b600067ffffffffffffffff821115612f1f57612f1e6131ab565b5b601f19601f8301169050602081019050919050565b600081519050919050565b600082825260208201905092915050565b6000612f5b826130a3565b9150612f66836130a3565b9250827fffffffffffffffffffffffffffffffffffffffffffffffffffffffffffffffff03821115612f9b57612f9a61314d565b5b828201905092915050565b6000612fb1826130a3565b9150612fbc836130a3565b925082612fcc57612fcb61317c565b5b828204905092915050565b6000612fe2826130a3565b9150612fed836130a3565b9250817fffffffffffffffffffffffffffffffffffffffffffffffffffffffffffffffff04831182151516156130265761302561314d565b5b828202905092915050565b600061303c826130a3565b9150613047836130a3565b92508282101561305a5761305961314d565b5b828203905092915050565b600061307082613083565b9050919050565b60008115159050919050565b600073ffffffffffffffffffffffffffffffffffffffff82169050919050565b6000819050919050565b60006130b8826130bf565b9050919050565b60006130ca82613083565b9050919050565b60005b838110156130ef5780820151818401526020810190506130d4565b838111156130fe576000848401525b50505050565b600061310f826130a3565b91507fffffffffffffffffffffffffffffffffffffffffffffffffffffffffffffffff8214156131425761314161314d565b5b600182019050919050565b7f4e487b7100000000000000000000000000000000000000000000000000000000600052601160045260246000fd5b7f4e487b7100000000000000000000000000000000000000000000000000000000600052601260045260246000fd5b7f4e487b7100000000000000000000000000000000000000000000000000000000600052604160045260246000fd5b6000601f19601f8301169050919050565b6131f481613065565b81146131ff57600080fd5b50565b61320b81613077565b811461321657600080fd5b50565b613222816130a3565b811461322d57600080fd5b5056fea2646970667358221220f9b72f30c6a88012bde5656e54a7903c9cb9c1ca6c6a8b38b67f3962dbc9d5c364736f6c6343000800003360806040523480156200001157600080fd5b506040518060400160405280600781526020017f4d794552433230000000000000000000000000000000000000000000000000008152506040518060400160405280600481526020017f4d4552430000000000000000000000000000000000000000000000000000000081525081600390805190602001906200009692919062000286565b508060049080519060200190620000af92919062000286565b505050620000f433620000c7620000fa60201b60201c565b60ff16600a620000d8919062000491565b620f4240620000e89190620005ce565b6200010360201b60201c565b620006da565b60006012905090565b600073ffffffffffffffffffffffffffffffffffffffff168273ffffffffffffffffffffffffffffffffffffffff16141562000176576040517f08c379a00000000000000000000000000000000000000000000000000000000081526004016200016d9062000389565b60405180910390fd5b6200018a600083836200027c60201b60201c565b80600260008282546200019e9190620003d9565b92505081905550806000808473ffffffffffffffffffffffffffffffffffffffff1673ffffffffffffffffffffffffffffffffffffffff1681526020019081526020016000206000828254620001f59190620003d9565b925050819055508173ffffffffffffffffffffffffffffffffffffffff16600073ffffffffffffffffffffffffffffffffffffffff167fddf252ad1be2c89b69c2b068fc378daa952ba7f163c4a11628f55a4df523b3ef836040516200025c9190620003ab565b60405180910390a362000278600083836200028160201b60201c565b5050565b505050565b505050565b828054620002949062000639565b90600052602060002090601f016020900481019282620002b8576000855562000304565b82601f10620002d357805160ff191683800117855562000304565b8280016001018555821562000304579182015b8281111562000303578251825591602001919060010190620002e6565b5b50905062000313919062000317565b5090565b5b808211156200033257600081600090555060010162000318565b5090565b600062000345601f83620003c8565b91507f45524332303a206d696e7420746f20746865207a65726f2061646472657373006000830152602082019050919050565b62000383816200062f565b82525050565b60006020820190508181036000830152620003a48162000336565b9050919050565b6000602082019050620003c2600083018462000378565b92915050565b600082825260208201905092915050565b6000620003e6826200062f565b9150620003f3836200062f565b9250827fffffffffffffffffffffffffffffffffffffffffffffffffffffffffffffffff038211156200042b576200042a6200066f565b5b828201905092915050565b6000808291508390505b6001851115620004885780860481111562000460576200045f6200066f565b5b6001851615620004705780820291505b80810290506200048085620006cd565b945062000440565b94509492505050565b60006200049e826200062f565b9150620004ab836200062f565b9250620004da7fffffffffffffffffffffffffffffffffffffffffffffffffffffffffffffffff8484620004e2565b905092915050565b600082620004f45760019050620005c7565b81620005045760009050620005c7565b81600181146200051d576002811462000528576200055e565b6001915050620005c7565b60ff8411156200053d576200053c6200066f565b5b8360020a9150848211156200055757620005566200066f565b5b50620005c7565b5060208310610133831016604e8410600b8410161715620005985782820a9050838111156200059257620005916200066f565b5b620005c7565b620005a7848484600162000436565b92509050818404811115620005c157620005c06200066f565b5b81810290505b9392505050565b6000620005db826200062f565b9150620005e8836200062f565b9250817fffffffffffffffffffffffffffffffffffffffffffffffffffffffffffffffff04831182151516156200062457620006236200066f565b5b828202905092915050565b6000819050919050565b600060028204905060018216806200065257607f821691505b602082108114156200066957620006686200069e565b5b50919050565b7f4e487b7100000000000000000000000000000000000000000000000000000000600052601160045260246000fd5b7f4e487b7100000000000000000000000000000000000000000000000000000000600052602260045260246000fd5b60008160011c9050919050565b6111ff80620006ea6000396000f3fe608060405234801561001057600080fd5b50600436106100a95760003560e01c80633950935111610071578063395093511461016857806370a082311461019857806395d89b41146101c8578063a457c2d7146101e6578063a9059cbb14610216578063dd62ed3e14610246576100a9565b806306fdde03146100ae578063095ea7b3146100cc57806318160ddd146100fc57806323b872dd1461011a578063313ce5671461014a575b600080fd5b6100b6610276565b6040516100c39190610ec8565b60405180910390f35b6100e660048036038101906100e19190610b67565b610308565b6040516100f39190610ead565b60405180910390f35b61010461032b565b6040516101119190610fca565b60405180910390f35b610134600480360381019061012f9190610b18565b610335565b6040516101419190610ead565b60405180910390f35b610152610364565b60405161015f9190610fe5565b60405180910390f35b610182600480360381019061017d9190610b67565b61036d565b60405161018f9190610ead565b60405180910390f35b6101b260048036038101906101ad9190610ab3565b6103a4565b6040516101bf9190610fca565b60405180910390f35b6101d06103ec565b6040516101dd9190610ec8565b60405180910390f35b61020060048036038101906101fb9190610b67565b61047e565b60405161020d9190610ead565b60405180910390f35b610230600480360381019061022b9190610b67565b6104f5565b60405161023d9190610ead565b60405180910390f35b610260600480360381019061025b9190610adc565b610518565b60405161026d9190610fca565b60405180910390f35b606060038054610285906110fa565b80601f01602080910402602001604051908101604052809291908181526020018280546102b1906110fa565b80156102fe5780601f106102d3576101008083540402835291602001916102fe565b820191906000526020600020905b8154815290600101906020018083116102e157829003601f168201915b5050505050905090565b60008061031361059f565b90506103208185856105a7565b600191505092915050565b6000600254905090565b60008061034061059f565b905061034d858285610772565b6103588585856107fe565b60019150509392505050565b60006012905090565b60008061037861059f565b905061039981858561038a8589610518565b610394919061101c565b6105a7565b600191505092915050565b60008060008373ffffffffffffffffffffffffffffffffffffffff1673ffffffffffffffffffffffffffffffffffffffff168152602001908152602001600020549050919050565b6060600480546103fb906110fa565b80601f0160208091040260200160405190810160405280929190818152602001828054610427906110fa565b80156104745780601f1061044957610100808354040283529160200191610474565b820191906000526020600020905b81548152906001019060200180831161045757829003601f168201915b5050505050905090565b60008061048961059f565b905060006104978286610518565b9050838110156104dc576040517f08c379a00000000000000000000000000000000000000000000000000000000081526004016104d390610faa565b60405180910390fd5b6104e982868684036105a7565b60019250505092915050565b60008061050061059f565b905061050d8185856107fe565b600191505092915050565b6000600160008473ffffffffffffffffffffffffffffffffffffffff1673ffffffffffffffffffffffffffffffffffffffff16815260200190815260200160002060008373ffffffffffffffffffffffffffffffffffffffff1673ffffffffffffffffffffffffffffffffffffffff16815260200190815260200160002054905092915050565b600033905090565b600073ffffffffffffffffffffffffffffffffffffffff168373ffffffffffffffffffffffffffffffffffffffff161415610617576040517f08c379a000000000000000000000000000000000000000000000000000000000815260040161060e90610f8a565b60405180910390fd5b600073ffffffffffffffffffffffffffffffffffffffff168273ffffffffffffffffffffffffffffffffffffffff161415610687576040517f08c379a000000000000000000000000000000000000000000000000000000000815260040161067e90610f0a565b60405180910390fd5b80600160008573ffffffffffffffffffffffffffffffffffffffff1673ffffffffffffffffffffffffffffffffffffffff16815260200190815260200160002060008473ffffffffffffffffffffffffffffffffffffffff1673ffffffffffffffffffffffffffffffffffffffff168152602001908152602001600020819055508173ffffffffffffffffffffffffffffffffffffffff168373ffffffffffffffffffffffffffffffffffffffff167f8c5be1e5ebec7d5bd14f71427d1e84f3dd0314c0f7b2291e5b200ac8c7c3b925836040516107659190610fca565b60405180910390a3505050565b600061077e8484610518565b90507fffffffffffffffffffffffffffffffffffffffffffffffffffffffffffffffff81146107f857818110156107ea576040517f08c379a00000000000000000000000000000000000000000000000000000000081526004016107e190610f2a565b60405180910390fd5b6107f784848484036105a7565b5b50505050565b600073ffffffffffffffffffffffffffffffffffffffff168373ffffffffffffffffffffffffffffffffffffffff16141561086e576040517f08c379a000000000000000000000000000000000000000000000000000000000815260040161086590610f6a565b60405180910390fd5b600073ffffffffffffffffffffffffffffffffffffffff168273ffffffffffffffffffffffffffffffffffffffff1614156108de576040517f08c379a00000000000000000000000000000000000000000000000000000000081526004016108d590610eea565b60405180910390fd5b6108e9838383610a7f565b60008060008573ffffffffffffffffffffffffffffffffffffffff1673ffffffffffffffffffffffffffffffffffffffff1681526020019081526020016000205490508181101561096f576040517f08c379a000000000000000000000000000000000000000000000000000000000815260040161096690610f4a565b60405180910390fd5b8181036000808673ffffffffffffffffffffffffffffffffffffffff1673ffffffffffffffffffffffffffffffffffffffff16815260200190815260200160002081905550816000808573ffffffffffffffffffffffffffffffffffffffff1673ffffffffffffffffffffffffffffffffffffffff1681526020019081526020016000206000828254610a02919061101c565b925050819055508273ffffffffffffffffffffffffffffffffffffffff168473ffffffffffffffffffffffffffffffffffffffff167fddf252ad1be2c89b69c2b068fc378daa952ba7f163c4a11628f55a4df523b3ef84604051610a669190610fca565b60405180910390a3610a79848484610a84565b50505050565b505050565b505050565b600081359050610a988161119b565b92915050565b600081359050610aad816111b2565b92915050565b600060208284031215610ac557600080fd5b6000610ad384828501610a89565b91505092915050565b60008060408385031215610aef57600080fd5b6000610afd85828601610a89565b9250506020610b0e85828601610a89565b9150509250929050565b600080600060608486031215610b2d57600080fd5b6000610b3b86828701610a89565b9350506020610b4c86828701610a89565b9250506040610b5d86828701610a9e565b9150509250925092565b60008060408385031215610b7a57600080fd5b6000610b8885828601610a89565b9250506020610b9985828601610a9e565b9150509250929050565b610bac81611084565b82525050565b6000610bbd82611000565b610bc7818561100b565b9350610bd78185602086016110c7565b610be08161118a565b840191505092915050565b6000610bf860238361100b565b91507f45524332303a207472616e7366657220746f20746865207a65726f206164647260008301527f65737300000000000000000000000000000000000000000000000000000000006020830152604082019050919050565b6000610c5e60228361100b565b91507f45524332303a20617070726f766520746f20746865207a65726f20616464726560008301527f73730000000000000000000000000000000000000000000000000000000000006020830152604082019050919050565b6000610cc4601d8361100b565b91507f45524332303a20696e73756666696369656e7420616c6c6f77616e63650000006000830152602082019050919050565b6000610d0460268361100b565b91507f45524332303a207472616e7366657220616d6f756e742065786365656473206260008301527f616c616e636500000000000000000000000000000000000000000000000000006020830152604082019050919050565b6000610d6a60258361100b565b91507f45524332303a207472616e736665722066726f6d20746865207a65726f20616460008301527f64726573730000000000000000000000000000000000000000000000000000006020830152604082019050919050565b6000610dd060248361100b565b91507f45524332303a20617070726f76652066726f6d20746865207a65726f2061646460008301527f72657373000000000000000000000000000000000000000000000000000000006020830152604082019050919050565b6000610e3660258361100b565b91507f45524332303a2064656372656173656420616c6c6f77616e63652062656c6f7760008301527f207a65726f0000000000000000000000000000000000000000000000000000006020830152604082019050919050565b610e98816110b0565b82525050565b610ea7816110ba565b82525050565b6000602082019050610ec26000830184610ba3565b92915050565b60006020820190508181036000830152610ee28184610bb2565b905092915050565b60006020820190508181036000830152610f0381610beb565b9050919050565b60006020820190508181036000830152610f2381610c51565b9050919050565b60006020820190508181036000830152610f4381610cb7565b9050919050565b60006020820190508181036000830152610f6381610cf7565b9050919050565b60006020820190508181036000830152610f8381610d5d565b9050919050565b60006020820190508181036000830152610fa381610dc3565b9050919050565b60006020820190508181036000830152610fc381610e29565b9050919050565b6000602082019050610fdf6000830184610e8f565b92915050565b6000602082019050610ffa6000830184610e9e565b92915050565b600081519050919050565b600082825260208201905092915050565b6000611027826110b0565b9150611032836110b0565b9250827fffffffffffffffffffffffffffffffffffffffffffffffffffffffffffffffff038211156110675761106661112c565b5b828201905092915050565b600061107d82611090565b9050919050565b60008115159050919050565b600073ffffffffffffffffffffffffffffffffffffffff82169050919050565b6000819050919050565b600060ff82169050919050565b60005b838110156110e55780820151818401526020810190506110ca565b838111156110f4576000848401525b50505050565b6000600282049050600182168061111257607f821691505b602082108114156111265761112561115b565b5b50919050565b7f4e487b7100000000000000000000000000000000000000000000000000000000600052601160045260246000fd5b7f4e487b7100000000000000000000000000000000000000000000000000000000600052602260045260246000fd5b6000601f19601f8301169050919050565b6111a481611072565b81146111af57600080fd5b50565b6111bb816110b0565b81146111c657600080fd5b5056fea264697066735822122057b8c0cea74ffd00fb0ca303295f1caa4602e9b8fd0066f717ed84b56eb7532e64736f6c63430008000033",
  "immutableReferences": {},
  "source": "// SPDX-License-Identifier: MIT\npragma solidity ^0.8.0;\n\nimport \"@openzeppelin/contracts/token/ERC20/IERC20.sol\";\n//import \"@openzeppelin/contracts/token/ERC20/SafeERC20.sol\";\n//import \"@openzeppelin/contracts/utils/EnumerableSet.sol\";\nimport \"@openzeppelin/contracts/utils/math/SafeMath.sol\";\nimport \"@openzeppelin/contracts/access/Ownable.sol\";\nimport \"./MyERC20.sol\";\nimport \"./IDTToken.sol\";\n\n//import \"./NFT.sol\";\n//import \"./Exchange.sol\";\n\n// TODO:\n// [x] SET THE POOL ACCOUNT\n// [x] DEPOSIT TOKEN\n// [x] WITHDRAW TOKEN WITH INTEREST\n// [x] GENERATE TOKEN ON EACH BLOCK\n// [x] REWARD USER FOR STACKING\n// [X] I WANT MORE\n\ncontract Stacking is Ownable {\n    using SafeMath for uint256;\n    //using SafeERC20 for IERC20;\n\n    mapping(address => uint256) public poolBalance; //mapping of token address and amount\n\n    address constant ETHER = address(0);\n    mapping(uint256 => mapping(address => uint256)) public stackers;\n\n    uint256 public stackCount;\n    uint256 public startBlock;\n    IDTToken public idt;\n    MyERC20 stk = new MyERC20(); //***/ */\n    PoolInfo[] public poolInfo;\n    uint256 public bonusEndBlock;\n    uint256 public constant BONUS_MULTIPLIER = 10;\n    uint256 public idtPerBlock;\n    // Dev address.\n    address public devAddress;\n\n    uint256 public totalAllocPoint = 0;\n\n    event Deposit(address indexed user, uint256 indexed pid, uint256 amount);\n    event Withdraw(address indexed user, uint256 indexed pid, uint256 amount);\n\n    struct PoolInfo {\n        address tokenStack; // Address of LP token contract.\n        uint256 allocPoint; // How many allocation points assigned to this pool. SUSHIs to distribute per block.\n        uint256 lastRewardBlock; // Last block number that SUSHIs distribution occurs.\n        uint256 accIDTPerShare; // Accumulated SUSHIs per share, times 1e12. See below.\n    }\n\n    constructor(\n        IDTToken _token,\n        address _devAddress,\n        uint256 _idtPerBlock,\n        uint256 _startBlock,\n        uint256 _bonusEndBlock\n    ) {\n        idt = _token;\n        devAddress = _devAddress;\n        idtPerBlock = _idtPerBlock;\n        bonusEndBlock = _bonusEndBlock;\n        startBlock = _startBlock;\n    }\n\n    function poolLength() external view returns (uint256) {\n        return poolInfo.length;\n    }\n\n    // Add a new lp to the pool. Can only be called by the owner.\n    // XXX DO NOT add the same LP token more than once. Rewards will be messed up if you do.\n    function add(\n        uint256 _allocPoint,\n        address _lpToken,\n        bool _withUpdate\n    ) public onlyOwner {\n        if (_withUpdate) {\n            massUpdatePools();\n        }\n        uint256 lastRewardBlock = block.number > startBlock\n            ? block.number\n            : startBlock;\n        totalAllocPoint = totalAllocPoint.add(_allocPoint);\n        poolInfo.push(\n            PoolInfo({\n                tokenStack: _lpToken,\n                allocPoint: _allocPoint,\n                lastRewardBlock: lastRewardBlock,\n                accIDTPerShare: 0\n            })\n        );\n    }\n\n    function deposit(uint256 _amount, uint256 _id) public payable {\n        //require token is approved\n        PoolInfo storage pool = poolInfo[_id];\n        updatePool(_id);\n        stackers[_id][msg.sender] = stackers[_id][msg.sender].add(_amount);\n        require(\n            getERCtransferFrom(\n                pool.tokenStack,\n                msg.sender,\n                address(this),\n                _amount\n            )\n        );\n\n        emit Deposit(msg.sender, _id, _amount);\n    }\n\n    function withdraw(uint256 _amount, uint256 _id) public payable {\n        PoolInfo storage pool = poolInfo[_id];\n        require(stackers[_id][msg.sender] >= _amount);\n        updatePool(_id);\n        uint256 pending = stackers[_id][msg.sender]\n            .mul(pool.accIDTPerShare)\n            .div(1e18);\n        if (pending > 0) {\n            safeIDTTransfer(msg.sender, pending);\n        }\n        if (_amount > 0) {\n            stackers[_id][msg.sender] = stackers[_id][msg.sender].sub(_amount);\n\n            getERCtransfer(pool.tokenStack, address(msg.sender), _amount);\n        }\n        emit Withdraw(msg.sender, _id, _amount);\n    }\n\n    // Safe IDT transfer function, just in case if rounding error causes pool to not have enough IDTs.\n    function safeIDTTransfer(address _to, uint256 _amount) internal {\n        uint256 idtBal = idt.balanceOf(address(this));\n        if (_amount > idtBal) {\n            idt.transfer(_to, idtBal);\n        } else {\n            idt.transfer(_to, _amount);\n        }\n    }\n\n    function getWithdraw(uint256 _id) public view returns (uint256) {\n \n        uint256 r = update(_id);\n        uint256 pending = stackers[_id][msg.sender]\n            .mul(r)\n            .div(1e18);\n\n        return pending;\n    }\n\n    function update(uint256 _pid) public view returns (uint256) {\n        PoolInfo memory pool = poolInfo[_pid];\n        if (block.number <= pool.lastRewardBlock) {\n            return 1;\n        }\n        uint256 supply =  stk.balanceOf( address(this));\n        if (supply == 0) {\n             \n            return 0;\n        }\n        uint256 multiplier = getMultiplier(pool.lastRewardBlock, block.number);\n        uint256 idtReward = multiplier\n            .mul(idtPerBlock)\n            .mul(pool.allocPoint)\n            .div(totalAllocPoint);\n        uint256 acc = pool.accIDTPerShare.add(idtReward.mul(1e18).div(supply));\n        return acc;\n    }\n\n    // mint some tokens\n\n    function updatePool(uint256 _pid) public {\n        PoolInfo storage pool = poolInfo[_pid];\n        if (block.number <= pool.lastRewardBlock) {\n            return;\n        }\n        uint256 supply = getERCBalance(pool.tokenStack, address(this));\n        if (supply == 0) {\n            pool.lastRewardBlock = block.number;\n            return;\n        }\n        uint256 multiplier = getMultiplier(pool.lastRewardBlock, block.number);\n        uint256 idtReward = multiplier\n            .mul(idtPerBlock)\n            .mul(pool.allocPoint)\n            .div(totalAllocPoint);\n        idt.mint(devAddress, idtReward.div(10));\n        idt.mint(address(this), idtReward);\n        pool.accIDTPerShare = pool.accIDTPerShare.add(\n            idtReward.mul(1e18).div(supply)\n        );\n        pool.lastRewardBlock = block.number;\n    }\n\n    // Update reward variables for all pools. Be careful of gas spending!\n    function massUpdatePools() public {\n        uint256 length = poolInfo.length;\n        for (uint256 pid = 0; pid < length; ++pid) {\n            updatePool(pid);\n        }\n    }\n\n    // Return reward multiplier over the given _from to _to block.\n    function getMultiplier(uint256 _from, uint256 _to)\n        public\n        view\n        returns (uint256)\n    {\n        if (_to <= bonusEndBlock) {\n            return _to.sub(_from).mul(BONUS_MULTIPLIER);\n        } else if (_from >= bonusEndBlock) {\n            return _to.sub(_from);\n        } else {\n            return\n                bonusEndBlock.sub(_from).mul(BONUS_MULTIPLIER).add(\n                    _to.sub(bonusEndBlock)\n                );\n        }\n    }\n\n    // return the balance of stacker\n    function stackingBalanceOf(uint256 _id, address _user)\n        public\n        view\n        returns (uint256)\n    {\n        return stackers[_id][_user];\n    }\n\n    // return the balance of the pool for this token\n\n    function balanceOfPool(address _token) public view returns (uint256) {\n        return poolBalance[_token];\n    }\n\n    // View function to see pending SUSHIs on frontend.\n    function pendingIDT(uint256 _pid) public returns (uint256) {\n        PoolInfo storage pool = poolInfo[_pid];\n        uint256 accIDTPerShare = pool.accIDTPerShare;\n        uint256 lpSupply = getERCBalance(pool.tokenStack, address(this));\n        if (block.number > pool.lastRewardBlock && lpSupply != 0) {\n            uint256 multiplier = getMultiplier(\n                pool.lastRewardBlock,\n                block.number\n            );\n            uint256 idtReward = multiplier\n                .mul(idtPerBlock)\n                .mul(pool.allocPoint)\n                .div(totalAllocPoint);\n            accIDTPerShare = accIDTPerShare.add(\n                idtReward.mul(1e18).div(lpSupply)\n            );\n        }\n        return stackers[_pid][msg.sender].mul(accIDTPerShare).div(1e18);\n    }\n\n    // EXTERNaL CALL TO ERC20 Contract\n    function getERCapprove(\n        address _token,\n        address _spender,\n        uint256 _value\n    ) public returns (bool) {\n        stk = MyERC20(_token);\n        return stk.approve(_spender, _value);\n    }\n\n    function getERCtransferFrom(\n        address _token,\n        address _from,\n        address _to,\n        uint256 _value\n    ) public returns (bool) {\n        stk = MyERC20(_token);\n        return stk.transferFrom(_from, _to, _value);\n    }\n\n    function getERCBalance(address _token, address _owner)\n        public\n        returns (uint256)\n    {\n        stk = MyERC20(_token);\n        return stk.balanceOf(_owner);\n    }\n\n    function getERCtransfer(\n        address _token,\n        address _to,\n        uint256 _value\n    ) public returns (bool) {\n        stk = MyERC20(_token);\n        return stk.transfer(_to, _value);\n    }\n\n    function getERCname(address _token) public returns (string memory) {\n        stk = MyERC20(_token);\n        return stk.name();\n    }\n\n    function getERCsymbol(address _token) public returns (string memory) {\n        stk = MyERC20(_token);\n        return stk.symbol();\n    }\n\n    function getLPSupply(uint256 _pid) public returns (uint256) {\n        PoolInfo memory pool = poolInfo[_pid];\n        stk = MyERC20(pool.tokenStack);\n        return stk.balanceOf(address(this));\n    }\n\n    function getLastRewardBlock(uint256 _pid) public view returns (uint256) {\n        PoolInfo memory pool = poolInfo[_pid];\n\n        return pool.lastRewardBlock;\n    }\n\n    function getMultiplierView(uint256 _pid) public view returns (uint256) {\n        PoolInfo memory pool = poolInfo[_pid];\n\n        if (block.number <= bonusEndBlock) {\n            return ((block.number - pool.lastRewardBlock) * BONUS_MULTIPLIER);\n        } else if (pool.lastRewardBlock >= bonusEndBlock) {\n            return block.number - pool.lastRewardBlock;\n        } else {\n            return\n                (bonusEndBlock - pool.lastRewardBlock) *\n                BONUS_MULTIPLIER +\n                (block.number - bonusEndBlock);\n        }\n    }\n\n    function getAccIDTPerShare(uint256 _pid) public view returns (uint256) {\n        PoolInfo memory pool = poolInfo[_pid];\n        return pool.accIDTPerShare;\n    }\n\n    function getIdtReward(uint256 _pid) public view returns (uint256) {\n        PoolInfo memory pool = poolInfo[_pid];\n        uint256 idtReward = ((getMultiplierView(_pid) * idtPerBlock) *\n            pool.allocPoint) / totalAllocPoint;\n        return idtReward;\n    }\n}\n",
  "sourcePath": "D:\\projetos\\blockchain\\dex-next\\src\\contracts\\Stacking.sol",
  "compiler": {
    "name": "solc",
    "version": "0.8.0+commit.c7dfd78e.Emscripten.clang"
  },
  "schemaVersion": "3.4.3",
  "updatedAt": "2022-08-20T18:31:24.831Z",
  "networkType": "ethereum",
  "devdoc": {
    "kind": "dev",
    "methods": {
      "owner()": {
        "details": "Returns the address of the current owner."
      },
      "renounceOwnership()": {
        "details": "Leaves the contract without owner. It will not be possible to call `onlyOwner` functions anymore. Can only be called by the current owner. NOTE: Renouncing ownership will leave the contract without an owner, thereby removing any functionality that is only available to the owner."
      },
      "transferOwnership(address)": {
        "details": "Transfers ownership of the contract to a new account (`newOwner`). Can only be called by the current owner."
      }
    },
    "version": 1
  },
  "userdoc": {
    "kind": "user",
    "methods": {},
    "version": 1
  }
}