{
  "contractName": "Stacking",
  "abi": [
    {
      "inputs": [
        {
          "internalType": "contract IDTToken",
          "name": "_token",
          "type": "address"
        },
        {
          "internalType": "address",
          "name": "_devAddress",
          "type": "address"
        },
        {
          "internalType": "uint256",
          "name": "_idtPerBlock",
          "type": "uint256"
        },
        {
          "internalType": "uint256",
          "name": "_startBlock",
          "type": "uint256"
        },
        {
          "internalType": "uint256",
          "name": "_bonusEndBlock",
          "type": "uint256"
        }
      ],
      "stateMutability": "nonpayable",
      "type": "constructor"
    },
    {
      "anonymous": false,
      "inputs": [
        {
          "indexed": true,
          "internalType": "address",
          "name": "user",
          "type": "address"
        },
        {
          "indexed": true,
          "internalType": "uint256",
          "name": "pid",
          "type": "uint256"
        },
        {
          "indexed": false,
          "internalType": "uint256",
          "name": "amount",
          "type": "uint256"
        }
      ],
      "name": "Deposit",
      "type": "event"
    },
    {
      "anonymous": false,
      "inputs": [
        {
          "indexed": true,
          "internalType": "address",
          "name": "previousOwner",
          "type": "address"
        },
        {
          "indexed": true,
          "internalType": "address",
          "name": "newOwner",
          "type": "address"
        }
      ],
      "name": "OwnershipTransferred",
      "type": "event"
    },
    {
      "anonymous": false,
      "inputs": [
        {
          "indexed": true,
          "internalType": "address",
          "name": "user",
          "type": "address"
        },
        {
          "indexed": true,
          "internalType": "uint256",
          "name": "pid",
          "type": "uint256"
        },
        {
          "indexed": false,
          "internalType": "uint256",
          "name": "amount",
          "type": "uint256"
        }
      ],
      "name": "Withdraw",
      "type": "event"
    },
    {
      "inputs": [],
      "name": "BONUS_MULTIPLIER",
      "outputs": [
        {
          "internalType": "uint256",
          "name": "",
          "type": "uint256"
        }
      ],
      "stateMutability": "view",
      "type": "function",
      "constant": true
    },
    {
      "inputs": [],
      "name": "bonusEndBlock",
      "outputs": [
        {
          "internalType": "uint256",
          "name": "",
          "type": "uint256"
        }
      ],
      "stateMutability": "view",
      "type": "function",
      "constant": true
    },
    {
      "inputs": [],
      "name": "devAddress",
      "outputs": [
        {
          "internalType": "address",
          "name": "",
          "type": "address"
        }
      ],
      "stateMutability": "view",
      "type": "function",
      "constant": true
    },
    {
      "inputs": [],
      "name": "idt",
      "outputs": [
        {
          "internalType": "contract IDTToken",
          "name": "",
          "type": "address"
        }
      ],
      "stateMutability": "view",
      "type": "function",
      "constant": true
    },
    {
      "inputs": [],
      "name": "idtPerBlock",
      "outputs": [
        {
          "internalType": "uint256",
          "name": "",
          "type": "uint256"
        }
      ],
      "stateMutability": "view",
      "type": "function",
      "constant": true
    },
    {
      "inputs": [],
      "name": "owner",
      "outputs": [
        {
          "internalType": "address",
          "name": "",
          "type": "address"
        }
      ],
      "stateMutability": "view",
      "type": "function",
      "constant": true
    },
    {
      "inputs": [
        {
          "internalType": "address",
          "name": "",
          "type": "address"
        }
      ],
      "name": "poolBalance",
      "outputs": [
        {
          "internalType": "uint256",
          "name": "",
          "type": "uint256"
        }
      ],
      "stateMutability": "view",
      "type": "function",
      "constant": true
    },
    {
      "inputs": [
        {
          "internalType": "uint256",
          "name": "",
          "type": "uint256"
        }
      ],
      "name": "poolInfo",
      "outputs": [
        {
          "internalType": "address",
          "name": "tokenStack",
          "type": "address"
        },
        {
          "internalType": "uint256",
          "name": "allocPoint",
          "type": "uint256"
        },
        {
          "internalType": "uint256",
          "name": "lastRewardBlock",
          "type": "uint256"
        },
        {
          "internalType": "uint256",
          "name": "accIDTPerShare",
          "type": "uint256"
        }
      ],
      "stateMutability": "view",
      "type": "function",
      "constant": true
    },
    {
      "inputs": [],
      "name": "renounceOwnership",
      "outputs": [],
      "stateMutability": "nonpayable",
      "type": "function"
    },
    {
      "inputs": [],
      "name": "stackCount",
      "outputs": [
        {
          "internalType": "uint256",
          "name": "",
          "type": "uint256"
        }
      ],
      "stateMutability": "view",
      "type": "function",
      "constant": true
    },
    {
      "inputs": [
        {
          "internalType": "uint256",
          "name": "",
          "type": "uint256"
        },
        {
          "internalType": "address",
          "name": "",
          "type": "address"
        }
      ],
      "name": "stackers",
      "outputs": [
        {
          "internalType": "uint256",
          "name": "",
          "type": "uint256"
        }
      ],
      "stateMutability": "view",
      "type": "function",
      "constant": true
    },
    {
      "inputs": [],
      "name": "startBlock",
      "outputs": [
        {
          "internalType": "uint256",
          "name": "",
          "type": "uint256"
        }
      ],
      "stateMutability": "view",
      "type": "function",
      "constant": true
    },
    {
      "inputs": [],
      "name": "totalAllocPoint",
      "outputs": [
        {
          "internalType": "uint256",
          "name": "",
          "type": "uint256"
        }
      ],
      "stateMutability": "view",
      "type": "function",
      "constant": true
    },
    {
      "inputs": [
        {
          "internalType": "address",
          "name": "newOwner",
          "type": "address"
        }
      ],
      "name": "transferOwnership",
      "outputs": [],
      "stateMutability": "nonpayable",
      "type": "function"
    },
    {
      "inputs": [],
      "name": "poolLength",
      "outputs": [
        {
          "internalType": "uint256",
          "name": "",
          "type": "uint256"
        }
      ],
      "stateMutability": "view",
      "type": "function",
      "constant": true
    },
    {
      "inputs": [
        {
          "internalType": "uint256",
          "name": "_allocPoint",
          "type": "uint256"
        },
        {
          "internalType": "address",
          "name": "_lpToken",
          "type": "address"
        },
        {
          "internalType": "bool",
          "name": "_withUpdate",
          "type": "bool"
        }
      ],
      "name": "add",
      "outputs": [],
      "stateMutability": "nonpayable",
      "type": "function"
    },
    {
      "inputs": [
        {
          "internalType": "uint256",
          "name": "_amount",
          "type": "uint256"
        },
        {
          "internalType": "uint256",
          "name": "_id",
          "type": "uint256"
        }
      ],
      "name": "deposit",
      "outputs": [],
      "stateMutability": "payable",
      "type": "function",
      "payable": true
    },
    {
      "inputs": [
        {
          "internalType": "uint256",
          "name": "_amount",
          "type": "uint256"
        },
        {
          "internalType": "uint256",
          "name": "_id",
          "type": "uint256"
        }
      ],
      "name": "withdraw",
      "outputs": [],
      "stateMutability": "payable",
      "type": "function",
      "payable": true
    },
    {
      "inputs": [
        {
          "internalType": "uint256",
          "name": "_pid",
          "type": "uint256"
        }
      ],
      "name": "updatePool",
      "outputs": [],
      "stateMutability": "nonpayable",
      "type": "function"
    },
    {
      "inputs": [],
      "name": "massUpdatePools",
      "outputs": [],
      "stateMutability": "nonpayable",
      "type": "function"
    },
    {
      "inputs": [
        {
          "internalType": "uint256",
          "name": "_from",
          "type": "uint256"
        },
        {
          "internalType": "uint256",
          "name": "_to",
          "type": "uint256"
        }
      ],
      "name": "getMultiplier",
      "outputs": [
        {
          "internalType": "uint256",
          "name": "",
          "type": "uint256"
        }
      ],
      "stateMutability": "view",
      "type": "function",
      "constant": true
    },
    {
      "inputs": [
        {
          "internalType": "uint256",
          "name": "_id",
          "type": "uint256"
        },
        {
          "internalType": "address",
          "name": "_user",
          "type": "address"
        }
      ],
      "name": "stackingBalanceOf",
      "outputs": [
        {
          "internalType": "uint256",
          "name": "",
          "type": "uint256"
        }
      ],
      "stateMutability": "view",
      "type": "function",
      "constant": true
    },
    {
      "inputs": [
        {
          "internalType": "address",
          "name": "_token",
          "type": "address"
        }
      ],
      "name": "balanceOfPool",
      "outputs": [
        {
          "internalType": "uint256",
          "name": "",
          "type": "uint256"
        }
      ],
      "stateMutability": "view",
      "type": "function",
      "constant": true
    },
    {
      "inputs": [
        {
          "internalType": "uint256",
          "name": "_pid",
          "type": "uint256"
        }
      ],
      "name": "pendingIDT",
      "outputs": [
        {
          "internalType": "uint256",
          "name": "",
          "type": "uint256"
        }
      ],
      "stateMutability": "nonpayable",
      "type": "function"
    },
    {
      "inputs": [
        {
          "internalType": "address",
          "name": "_token",
          "type": "address"
        },
        {
          "internalType": "address",
          "name": "_spender",
          "type": "address"
        },
        {
          "internalType": "uint256",
          "name": "_value",
          "type": "uint256"
        }
      ],
      "name": "getERCapprove",
      "outputs": [
        {
          "internalType": "bool",
          "name": "",
          "type": "bool"
        }
      ],
      "stateMutability": "nonpayable",
      "type": "function"
    },
    {
      "inputs": [
        {
          "internalType": "address",
          "name": "_token",
          "type": "address"
        },
        {
          "internalType": "address",
          "name": "_from",
          "type": "address"
        },
        {
          "internalType": "address",
          "name": "_to",
          "type": "address"
        },
        {
          "internalType": "uint256",
          "name": "_value",
          "type": "uint256"
        }
      ],
      "name": "getERCtransferFrom",
      "outputs": [
        {
          "internalType": "bool",
          "name": "",
          "type": "bool"
        }
      ],
      "stateMutability": "nonpayable",
      "type": "function"
    },
    {
      "inputs": [
        {
          "internalType": "address",
          "name": "_token",
          "type": "address"
        },
        {
          "internalType": "address",
          "name": "_owner",
          "type": "address"
        }
      ],
      "name": "getERCBalance",
      "outputs": [
        {
          "internalType": "uint256",
          "name": "",
          "type": "uint256"
        }
      ],
      "stateMutability": "nonpayable",
      "type": "function"
    },
    {
      "inputs": [
        {
          "internalType": "address",
          "name": "_token",
          "type": "address"
        },
        {
          "internalType": "address",
          "name": "_to",
          "type": "address"
        },
        {
          "internalType": "uint256",
          "name": "_value",
          "type": "uint256"
        }
      ],
      "name": "getERCtransfer",
      "outputs": [
        {
          "internalType": "bool",
          "name": "",
          "type": "bool"
        }
      ],
      "stateMutability": "nonpayable",
      "type": "function"
    },
    {
      "inputs": [
        {
          "internalType": "address",
          "name": "_token",
          "type": "address"
        }
      ],
      "name": "getERCname",
      "outputs": [
        {
          "internalType": "string",
          "name": "",
          "type": "string"
        }
      ],
      "stateMutability": "nonpayable",
      "type": "function"
    },
    {
      "inputs": [
        {
          "internalType": "address",
          "name": "_token",
          "type": "address"
        }
      ],
      "name": "getERCsymbol",
      "outputs": [
        {
          "internalType": "string",
          "name": "",
          "type": "string"
        }
      ],
      "stateMutability": "nonpayable",
      "type": "function"
    },
    {
      "inputs": [
        {
          "internalType": "uint256",
          "name": "_pid",
          "type": "uint256"
        }
      ],
      "name": "getLPSupply",
      "outputs": [
        {
          "internalType": "uint256",
          "name": "",
          "type": "uint256"
        }
      ],
      "stateMutability": "nonpayable",
      "type": "function"
    },
    {
      "inputs": [
        {
          "internalType": "uint256",
          "name": "_pid",
          "type": "uint256"
        }
      ],
      "name": "getLastRewardBlock",
      "outputs": [
        {
          "internalType": "uint256",
          "name": "",
          "type": "uint256"
        }
      ],
      "stateMutability": "view",
      "type": "function",
      "constant": true
    },
    {
      "inputs": [
        {
          "internalType": "uint256",
          "name": "_pid",
          "type": "uint256"
        }
      ],
      "name": "getMultiplierView",
      "outputs": [
        {
          "internalType": "uint256",
          "name": "",
          "type": "uint256"
        }
      ],
      "stateMutability": "view",
      "type": "function",
      "constant": true
    },
    {
      "inputs": [
        {
          "internalType": "uint256",
          "name": "_pid",
          "type": "uint256"
        }
      ],
      "name": "getAccIDTPerShare",
      "outputs": [
        {
          "internalType": "uint256",
          "name": "",
          "type": "uint256"
        }
      ],
      "stateMutability": "view",
      "type": "function",
      "constant": true
    },
    {
      "inputs": [
        {
          "internalType": "uint256",
          "name": "_pid",
          "type": "uint256"
        }
      ],
      "name": "getIdtReward",
      "outputs": [
        {
          "internalType": "uint256",
          "name": "",
          "type": "uint256"
        }
      ],
      "stateMutability": "view",
      "type": "function",
      "constant": true
    }
  ],
  "bytecode": "0x6080604052604051620000129062000236565b604051809103906000f0801580156200002f573d6000803e3d6000fd5b50600660006101000a81548173ffffffffffffffffffffffffffffffffffffffff021916908373ffffffffffffffffffffffffffffffffffffffff1602179055506000600b553480156200008257600080fd5b5060405162004b9338038062004b938339818101604052810190620000a8919062000289565b620000c8620000bc6200016a60201b60201c565b6200017260201b60201c565b84600560006101000a81548173ffffffffffffffffffffffffffffffffffffffff021916908373ffffffffffffffffffffffffffffffffffffffff16021790555083600a60006101000a81548173ffffffffffffffffffffffffffffffffffffffff021916908373ffffffffffffffffffffffffffffffffffffffff1602179055508260098190555080600881905550816004819055505050505050620003ab565b600033905090565b60008060009054906101000a900473ffffffffffffffffffffffffffffffffffffffff169050816000806101000a81548173ffffffffffffffffffffffffffffffffffffffff021916908373ffffffffffffffffffffffffffffffffffffffff1602179055508173ffffffffffffffffffffffffffffffffffffffff168173ffffffffffffffffffffffffffffffffffffffff167f8be0079c531659141344cd1fd0a4f28419497f9722a3daafe3b4186f6b6457e060405160405180910390a35050565b6118e980620032aa83390190565b60008151905062000255816200035d565b92915050565b6000815190506200026c8162000377565b92915050565b600081519050620002838162000391565b92915050565b600080600080600060a08688031215620002a257600080fd5b6000620002b2888289016200025b565b9550506020620002c58882890162000244565b9450506040620002d88882890162000272565b9350506060620002eb8882890162000272565b9250506080620002fe8882890162000272565b9150509295509295909350565b6000620003188262000333565b9050919050565b60006200032c826200030b565b9050919050565b600073ffffffffffffffffffffffffffffffffffffffff82169050919050565b6000819050919050565b62000368816200030b565b81146200037457600080fd5b50565b62000382816200031f565b81146200038e57600080fd5b50565b6200039c8162000353565b8114620003a857600080fd5b50565b612eef80620003bb6000396000f3fe6080604052600436106102045760003560e01c80636d7af5b111610118578063b9ca62e4116100a0578063e2bbb1581161006f578063e2bbb158146107e9578063ed0816de14610805578063efd1a44414610842578063f2fde38b1461087f578063f36ab037146108a857610204565b8063b9ca62e414610719578063bcc320e314610756578063d4708fc414610793578063df9dac75146107be57610204565b80638da5cb5b116100e75780638da5cb5b146105fa5780638dbb1e3a146106255780639409ac9f14610662578063b0f637941461069f578063b5cbf3b0146106dc57610204565b80636d7af5b11461053e578063715018a61461057b578063749400ff146105925780638aa28550146105cf57610204565b80633ad10ef61161019b5780635bfa898b1161016a5780635bfa898b14610445578063630b5ba114610482578063653c39141461049957806366f2ac52146104d657806368abb5e01461050157610204565b80633ad10ef6146103aa578063441a3e70146103d557806348cd4cb1146103f157806351eb05a61461041c57610204565b80631622c554116101d75780631622c554146102ee57806317caf6f11461032b5780631aed6553146103565780631eaaa0451461038157610204565b8063081e3eda146102095780630b0cc9571461023457806313cc367e146102715780631526fe27146102ae575b600080fd5b34801561021557600080fd5b5061021e6108e5565b60405161022b9190612b41565b60405180910390f35b34801561024057600080fd5b5061025b600480360381019061025691906126fc565b6108f2565b6040516102689190612aa9565b60405180910390f35b34801561027d57600080fd5b5061029860048036038101906102939190612634565b6109ed565b6040516102a59190612adf565b60405180910390f35b3480156102ba57600080fd5b506102d560048036038101906102d091906127b5565b610adc565b6040516102e59493929190612a64565b60405180910390f35b3480156102fa57600080fd5b50610315600480360381019061031091906127b5565b610b3c565b6040516103229190612b41565b60405180910390f35b34801561033757600080fd5b50610340610c48565b60405161034d9190612b41565b60405180910390f35b34801561036257600080fd5b5061036b610c4e565b6040516103789190612b41565b60405180910390f35b34801561038d57600080fd5b506103a860048036038101906103a39190612843565b610c54565b005b3480156103b657600080fd5b506103bf610d6d565b6040516103cc91906129e9565b60405180910390f35b6103ef60048036038101906103ea9190612892565b610d93565b005b3480156103fd57600080fd5b50610406611024565b6040516104139190612b41565b60405180910390f35b34801561042857600080fd5b50610443600480360381019061043e91906127b5565b61102a565b005b34801561045157600080fd5b5061046c600480360381019061046791906126fc565b6112d6565b6040516104799190612aa9565b60405180910390f35b34801561048e57600080fd5b506104976113d1565b005b3480156104a557600080fd5b506104c060048036038101906104bb91906127b5565b611404565b6040516104cd9190612b41565b60405180910390f35b3480156104e257600080fd5b506104eb6115c5565b6040516104f89190612ac4565b60405180910390f35b34801561050d57600080fd5b5061052860048036038101906105239190612634565b6115eb565b6040516105359190612b41565b60405180910390f35b34801561054a57600080fd5b5061056560048036038101906105609190612807565b611603565b6040516105729190612b41565b60405180910390f35b34801561058757600080fd5b5061059061165e565b005b34801561059e57600080fd5b506105b960048036038101906105b4919061265d565b611672565b6040516105c69190612b41565b60405180910390f35b3480156105db57600080fd5b506105e4611768565b6040516105f19190612b41565b60405180910390f35b34801561060657600080fd5b5061060f61176d565b60405161061c91906129e9565b60405180910390f35b34801561063157600080fd5b5061064c60048036038101906106479190612892565b611796565b6040516106599190612b41565b60405180910390f35b34801561066e57600080fd5b50610689600480360381019061068491906127b5565b611848565b6040516106969190612b41565b60405180910390f35b3480156106ab57600080fd5b506106c660048036038101906106c19190612634565b611921565b6040516106d39190612b41565b60405180910390f35b3480156106e857600080fd5b5061070360048036038101906106fe91906127b5565b61196a565b6040516107109190612b41565b60405180910390f35b34801561072557600080fd5b50610740600480360381019061073b9190612807565b611ac7565b60405161074d9190612b41565b60405180910390f35b34801561076257600080fd5b5061077d600480360381019061077891906127b5565b611aec565b60405161078a9190612b41565b60405180910390f35b34801561079f57600080fd5b506107a8611bc5565b6040516107b59190612b41565b60405180910390f35b3480156107ca57600080fd5b506107d3611bcb565b6040516107e09190612b41565b60405180910390f35b61080360048036038101906107fe9190612892565b611bd1565b005b34801561081157600080fd5b5061082c60048036038101906108279190612699565b611d6a565b6040516108399190612aa9565b60405180910390f35b34801561084e57600080fd5b50610869600480360381019061086491906127b5565b611e68565b6040516108769190612b41565b60405180910390f35b34801561088b57600080fd5b506108a660048036038101906108a19190612634565b61202c565b005b3480156108b457600080fd5b506108cf60048036038101906108ca9190612634565b6120b0565b6040516108dc9190612adf565b60405180910390f35b6000600780549050905090565b600083600660006101000a81548173ffffffffffffffffffffffffffffffffffffffff021916908373ffffffffffffffffffffffffffffffffffffffff160217905550600660009054906101000a900473ffffffffffffffffffffffffffffffffffffffff1673ffffffffffffffffffffffffffffffffffffffff1663a9059cbb84846040518363ffffffff1660e01b8152600401610992929190612a3b565b602060405180830381600087803b1580156109ac57600080fd5b505af11580156109c0573d6000803e3d6000fd5b505050506040513d601f19601f820116820180604052508101906109e4919061274b565b90509392505050565b606081600660006101000a81548173ffffffffffffffffffffffffffffffffffffffff021916908373ffffffffffffffffffffffffffffffffffffffff160217905550600660009054906101000a900473ffffffffffffffffffffffffffffffffffffffff1673ffffffffffffffffffffffffffffffffffffffff166395d89b416040518163ffffffff1660e01b815260040160006040518083038186803b158015610a9857600080fd5b505afa158015610aac573d6000803e3d6000fd5b505050506040513d6000823e3d601f19601f82011682018060405250810190610ad59190612774565b9050919050565b60078181548110610aec57600080fd5b90600052602060002090600402016000915090508060000160009054906101000a900473ffffffffffffffffffffffffffffffffffffffff16908060010154908060020154908060030154905084565b60008060078381548110610b79577f4e487b7100000000000000000000000000000000000000000000000000000000600052603260045260246000fd5b90600052602060002090600402016040518060800160405290816000820160009054906101000a900473ffffffffffffffffffffffffffffffffffffffff1673ffffffffffffffffffffffffffffffffffffffff1673ffffffffffffffffffffffffffffffffffffffff168152602001600182015481526020016002820154815260200160038201548152505090506000600b548260200151600954610c1e8761196a565b610c289190612c60565b610c329190612c60565b610c3c9190612c2f565b90508092505050919050565b600b5481565b60085481565b610c5c61219f565b8015610c6b57610c6a6113d1565b5b60006004544311610c7e57600454610c80565b435b9050610c9784600b5461221d90919063ffffffff16565b600b81905550600760405180608001604052808573ffffffffffffffffffffffffffffffffffffffff1681526020018681526020018381526020016000815250908060018154018082558091505060019003906000526020600020906004020160009091909190915060008201518160000160006101000a81548173ffffffffffffffffffffffffffffffffffffffff021916908373ffffffffffffffffffffffffffffffffffffffff160217905550602082015181600101556040820151816002015560608201518160030155505050505050565b600a60009054906101000a900473ffffffffffffffffffffffffffffffffffffffff1681565b600060078281548110610dcf577f4e487b7100000000000000000000000000000000000000000000000000000000600052603260045260246000fd5b90600052602060002090600402019050826002600084815260200190815260200160002060003373ffffffffffffffffffffffffffffffffffffffff1673ffffffffffffffffffffffffffffffffffffffff168152602001908152602001600020541015610e3c57600080fd5b610e458261102a565b6000610ec8670de0b6b3a7640000610eba84600301546002600088815260200190815260200160002060003373ffffffffffffffffffffffffffffffffffffffff1673ffffffffffffffffffffffffffffffffffffffff1681526020019081526020016000205461223390919063ffffffff16565b61224990919063ffffffff16565b90506000811115610ede57610edd338261225f565b5b6000841115610fcf57610f4a846002600086815260200190815260200160002060003373ffffffffffffffffffffffffffffffffffffffff1673ffffffffffffffffffffffffffffffffffffffff1681526020019081526020016000205461248190919063ffffffff16565b6002600085815260200190815260200160002060003373ffffffffffffffffffffffffffffffffffffffff1673ffffffffffffffffffffffffffffffffffffffff16815260200190815260200160002081905550610fcd8260000160009054906101000a900473ffffffffffffffffffffffffffffffffffffffff1633866108f2565b505b823373ffffffffffffffffffffffffffffffffffffffff167ff279e6a1f5e320cca91135676d9cb6e44ca8a08c0b88342bcdb1144f6511b568866040516110169190612b41565b60405180910390a350505050565b60045481565b600060078281548110611066577f4e487b7100000000000000000000000000000000000000000000000000000000600052603260045260246000fd5b906000526020600020906004020190508060020154431161108757506112d3565b60006110b78260000160009054906101000a900473ffffffffffffffffffffffffffffffffffffffff1630611672565b905060008114156110d25743826002018190555050506112d3565b60006110e2836002015443611796565b90506000611125600b5461111786600101546111096009548761223390919063ffffffff16565b61223390919063ffffffff16565b61224990919063ffffffff16565b9050600560009054906101000a900473ffffffffffffffffffffffffffffffffffffffff1673ffffffffffffffffffffffffffffffffffffffff166340c10f19600a60009054906101000a900473ffffffffffffffffffffffffffffffffffffffff1661119c600a8561224990919063ffffffff16565b6040518363ffffffff1660e01b81526004016111b9929190612a3b565b600060405180830381600087803b1580156111d357600080fd5b505af11580156111e7573d6000803e3d6000fd5b50505050600560009054906101000a900473ffffffffffffffffffffffffffffffffffffffff1673ffffffffffffffffffffffffffffffffffffffff166340c10f1930836040518363ffffffff1660e01b8152600401611248929190612a3b565b600060405180830381600087803b15801561126257600080fd5b505af1158015611276573d6000803e3d6000fd5b505050506112bd6112aa8461129c670de0b6b3a76400008561223390919063ffffffff16565b61224990919063ffffffff16565b856003015461221d90919063ffffffff16565b8460030181905550438460020181905550505050505b50565b600083600660006101000a81548173ffffffffffffffffffffffffffffffffffffffff021916908373ffffffffffffffffffffffffffffffffffffffff160217905550600660009054906101000a900473ffffffffffffffffffffffffffffffffffffffff1673ffffffffffffffffffffffffffffffffffffffff1663095ea7b384846040518363ffffffff1660e01b8152600401611376929190612a3b565b602060405180830381600087803b15801561139057600080fd5b505af11580156113a4573d6000803e3d6000fd5b505050506040513d601f19601f820116820180604052508101906113c8919061274b565b90509392505050565b6000600780549050905060005b81811015611400576113ef8161102a565b806113f990612d8d565b90506113de565b5050565b60008060078381548110611441577f4e487b7100000000000000000000000000000000000000000000000000000000600052603260045260246000fd5b90600052602060002090600402019050600081600301549050600061148a8360000160009054906101000a900473ffffffffffffffffffffffffffffffffffffffff1630611672565b90508260020154431180156114a0575060008114155b1561153e5760006114b5846002015443611796565b905060006114f8600b546114ea87600101546114dc6009548761223390919063ffffffff16565b61223390919063ffffffff16565b61224990919063ffffffff16565b905061153961152a8461151c670de0b6b3a76400008561223390919063ffffffff16565b61224990919063ffffffff16565b8561221d90919063ffffffff16565b935050505b6115bb670de0b6b3a76400006115ad84600260008a815260200190815260200160002060003373ffffffffffffffffffffffffffffffffffffffff1673ffffffffffffffffffffffffffffffffffffffff1681526020019081526020016000205461223390919063ffffffff16565b61224990919063ffffffff16565b9350505050919050565b600560009054906101000a900473ffffffffffffffffffffffffffffffffffffffff1681565b60016020528060005260406000206000915090505481565b60006002600084815260200190815260200160002060008373ffffffffffffffffffffffffffffffffffffffff1673ffffffffffffffffffffffffffffffffffffffff16815260200190815260200160002054905092915050565b61166661219f565b6116706000612497565b565b600082600660006101000a81548173ffffffffffffffffffffffffffffffffffffffff021916908373ffffffffffffffffffffffffffffffffffffffff160217905550600660009054906101000a900473ffffffffffffffffffffffffffffffffffffffff1673ffffffffffffffffffffffffffffffffffffffff166370a08231836040518263ffffffff1660e01b815260040161171091906129e9565b60206040518083038186803b15801561172857600080fd5b505afa15801561173c573d6000803e3d6000fd5b505050506040513d601f19601f8201168201806040525081019061176091906127de565b905092915050565b600a81565b60008060009054906101000a900473ffffffffffffffffffffffffffffffffffffffff16905090565b600060085482116117ce576117c7600a6117b9858561248190919063ffffffff16565b61223390919063ffffffff16565b9050611842565b60085483106117f1576117ea838361248190919063ffffffff16565b9050611842565b61183f6118096008548461248190919063ffffffff16565b611831600a6118238760085461248190919063ffffffff16565b61223390919063ffffffff16565b61221d90919063ffffffff16565b90505b92915050565b60008060078381548110611885577f4e487b7100000000000000000000000000000000000000000000000000000000600052603260045260246000fd5b90600052602060002090600402016040518060800160405290816000820160009054906101000a900473ffffffffffffffffffffffffffffffffffffffff1673ffffffffffffffffffffffffffffffffffffffff1673ffffffffffffffffffffffffffffffffffffffff168152602001600182015481526020016002820154815260200160038201548152505090508060600151915050919050565b6000600160008373ffffffffffffffffffffffffffffffffffffffff1673ffffffffffffffffffffffffffffffffffffffff168152602001908152602001600020549050919050565b600080600783815481106119a7577f4e487b7100000000000000000000000000000000000000000000000000000000600052603260045260246000fd5b90600052602060002090600402016040518060800160405290816000820160009054906101000a900473ffffffffffffffffffffffffffffffffffffffff1673ffffffffffffffffffffffffffffffffffffffff1673ffffffffffffffffffffffffffffffffffffffff168152602001600182015481526020016002820154815260200160038201548152505090506008544311611a6357600a816040015143611a519190612cba565b611a5b9190612c60565b915050611ac2565b600854816040015110611a8857806040015143611a809190612cba565b915050611ac2565b60085443611a969190612cba565b600a8260400151600854611aaa9190612cba565b611ab49190612c60565b611abe9190612bd9565b9150505b919050565b6002602052816000526040600020602052806000526040600020600091509150505481565b60008060078381548110611b29577f4e487b7100000000000000000000000000000000000000000000000000000000600052603260045260246000fd5b90600052602060002090600402016040518060800160405290816000820160009054906101000a900473ffffffffffffffffffffffffffffffffffffffff1673ffffffffffffffffffffffffffffffffffffffff1673ffffffffffffffffffffffffffffffffffffffff168152602001600182015481526020016002820154815260200160038201548152505090508060400151915050919050565b60095481565b60035481565b600060078281548110611c0d577f4e487b7100000000000000000000000000000000000000000000000000000000600052603260045260246000fd5b90600052602060002090600402019050611c268261102a565b611c89836002600085815260200190815260200160002060003373ffffffffffffffffffffffffffffffffffffffff1673ffffffffffffffffffffffffffffffffffffffff1681526020019081526020016000205461221d90919063ffffffff16565b6002600084815260200190815260200160002060003373ffffffffffffffffffffffffffffffffffffffff1673ffffffffffffffffffffffffffffffffffffffff16815260200190815260200160002081905550611d0d8160000160009054906101000a900473ffffffffffffffffffffffffffffffffffffffff16333086611d6a565b611d1657600080fd5b813373ffffffffffffffffffffffffffffffffffffffff167f90890809c654f11d6e72a28fa60149770a0d11ec6c92319d6ceb2bb0a4ea1a1585604051611d5d9190612b41565b60405180910390a3505050565b600084600660006101000a81548173ffffffffffffffffffffffffffffffffffffffff021916908373ffffffffffffffffffffffffffffffffffffffff160217905550600660009054906101000a900473ffffffffffffffffffffffffffffffffffffffff1673ffffffffffffffffffffffffffffffffffffffff166323b872dd8585856040518463ffffffff1660e01b8152600401611e0c93929190612a04565b602060405180830381600087803b158015611e2657600080fd5b505af1158015611e3a573d6000803e3d6000fd5b505050506040513d601f19601f82011682018060405250810190611e5e919061274b565b9050949350505050565b60008060078381548110611ea5577f4e487b7100000000000000000000000000000000000000000000000000000000600052603260045260246000fd5b90600052602060002090600402016040518060800160405290816000820160009054906101000a900473ffffffffffffffffffffffffffffffffffffffff1673ffffffffffffffffffffffffffffffffffffffff1673ffffffffffffffffffffffffffffffffffffffff168152602001600182015481526020016002820154815260200160038201548152505090508060000151600660006101000a81548173ffffffffffffffffffffffffffffffffffffffff021916908373ffffffffffffffffffffffffffffffffffffffff160217905550600660009054906101000a900473ffffffffffffffffffffffffffffffffffffffff1673ffffffffffffffffffffffffffffffffffffffff166370a08231306040518263ffffffff1660e01b8152600401611fd491906129e9565b60206040518083038186803b158015611fec57600080fd5b505afa158015612000573d6000803e3d6000fd5b505050506040513d601f19601f8201168201806040525081019061202491906127de565b915050919050565b61203461219f565b600073ffffffffffffffffffffffffffffffffffffffff168173ffffffffffffffffffffffffffffffffffffffff1614156120a4576040517f08c379a000000000000000000000000000000000000000000000000000000000815260040161209b90612b01565b60405180910390fd5b6120ad81612497565b50565b606081600660006101000a81548173ffffffffffffffffffffffffffffffffffffffff021916908373ffffffffffffffffffffffffffffffffffffffff160217905550600660009054906101000a900473ffffffffffffffffffffffffffffffffffffffff1673ffffffffffffffffffffffffffffffffffffffff166306fdde036040518163ffffffff1660e01b815260040160006040518083038186803b15801561215b57600080fd5b505afa15801561216f573d6000803e3d6000fd5b505050506040513d6000823e3d601f19601f820116820180604052508101906121989190612774565b9050919050565b6121a761255b565b73ffffffffffffffffffffffffffffffffffffffff166121c561176d565b73ffffffffffffffffffffffffffffffffffffffff161461221b576040517f08c379a000000000000000000000000000000000000000000000000000000000815260040161221290612b21565b60405180910390fd5b565b6000818361222b9190612bd9565b905092915050565b600081836122419190612c60565b905092915050565b600081836122579190612c2f565b905092915050565b6000600560009054906101000a900473ffffffffffffffffffffffffffffffffffffffff1673ffffffffffffffffffffffffffffffffffffffff166370a08231306040518263ffffffff1660e01b81526004016122bc91906129e9565b60206040518083038186803b1580156122d457600080fd5b505afa1580156122e8573d6000803e3d6000fd5b505050506040513d601f19601f8201168201806040525081019061230c91906127de565b9050808211156123cb57600560009054906101000a900473ffffffffffffffffffffffffffffffffffffffff1673ffffffffffffffffffffffffffffffffffffffff1663a9059cbb84836040518363ffffffff1660e01b8152600401612373929190612a3b565b602060405180830381600087803b15801561238d57600080fd5b505af11580156123a1573d6000803e3d6000fd5b505050506040513d601f19601f820116820180604052508101906123c5919061274b565b5061247c565b600560009054906101000a900473ffffffffffffffffffffffffffffffffffffffff1673ffffffffffffffffffffffffffffffffffffffff1663a9059cbb84846040518363ffffffff1660e01b8152600401612428929190612a3b565b602060405180830381600087803b15801561244257600080fd5b505af1158015612456573d6000803e3d6000fd5b505050506040513d601f19601f8201168201806040525081019061247a919061274b565b505b505050565b6000818361248f9190612cba565b905092915050565b60008060009054906101000a900473ffffffffffffffffffffffffffffffffffffffff169050816000806101000a81548173ffffffffffffffffffffffffffffffffffffffff021916908373ffffffffffffffffffffffffffffffffffffffff1602179055508173ffffffffffffffffffffffffffffffffffffffff168173ffffffffffffffffffffffffffffffffffffffff167f8be0079c531659141344cd1fd0a4f28419497f9722a3daafe3b4186f6b6457e060405160405180910390a35050565b600033905090565b600061257661257184612b8d565b612b5c565b90508281526020810184848401111561258e57600080fd5b612599848285612d5a565b509392505050565b6000813590506125b081612e74565b92915050565b6000813590506125c581612e8b565b92915050565b6000815190506125da81612e8b565b92915050565b600082601f8301126125f157600080fd5b8151612601848260208601612563565b91505092915050565b60008135905061261981612ea2565b92915050565b60008151905061262e81612ea2565b92915050565b60006020828403121561264657600080fd5b6000612654848285016125a1565b91505092915050565b6000806040838503121561267057600080fd5b600061267e858286016125a1565b925050602061268f858286016125a1565b9150509250929050565b600080600080608085870312156126af57600080fd5b60006126bd878288016125a1565b94505060206126ce878288016125a1565b93505060406126df878288016125a1565b92505060606126f08782880161260a565b91505092959194509250565b60008060006060848603121561271157600080fd5b600061271f868287016125a1565b9350506020612730868287016125a1565b92505060406127418682870161260a565b9150509250925092565b60006020828403121561275d57600080fd5b600061276b848285016125cb565b91505092915050565b60006020828403121561278657600080fd5b600082015167ffffffffffffffff8111156127a057600080fd5b6127ac848285016125e0565b91505092915050565b6000602082840312156127c757600080fd5b60006127d58482850161260a565b91505092915050565b6000602082840312156127f057600080fd5b60006127fe8482850161261f565b91505092915050565b6000806040838503121561281a57600080fd5b60006128288582860161260a565b9250506020612839858286016125a1565b9150509250929050565b60008060006060848603121561285857600080fd5b60006128668682870161260a565b9350506020612877868287016125a1565b9250506040612888868287016125b6565b9150509250925092565b600080604083850312156128a557600080fd5b60006128b38582860161260a565b92505060206128c48582860161260a565b9150509250929050565b6128d781612cee565b82525050565b6128e681612d00565b82525050565b6128f581612d36565b82525050565b600061290682612bbd565b6129108185612bc8565b9350612920818560208601612d5a565b61292981612e63565b840191505092915050565b6000612941602683612bc8565b91507f4f776e61626c653a206e6577206f776e657220697320746865207a65726f206160008301527f64647265737300000000000000000000000000000000000000000000000000006020830152604082019050919050565b60006129a7602083612bc8565b91507f4f776e61626c653a2063616c6c6572206973206e6f7420746865206f776e65726000830152602082019050919050565b6129e381612d2c565b82525050565b60006020820190506129fe60008301846128ce565b92915050565b6000606082019050612a1960008301866128ce565b612a2660208301856128ce565b612a3360408301846129da565b949350505050565b6000604082019050612a5060008301856128ce565b612a5d60208301846129da565b9392505050565b6000608082019050612a7960008301876128ce565b612a8660208301866129da565b612a9360408301856129da565b612aa060608301846129da565b95945050505050565b6000602082019050612abe60008301846128dd565b92915050565b6000602082019050612ad960008301846128ec565b92915050565b60006020820190508181036000830152612af981846128fb565b905092915050565b60006020820190508181036000830152612b1a81612934565b9050919050565b60006020820190508181036000830152612b3a8161299a565b9050919050565b6000602082019050612b5660008301846129da565b92915050565b6000604051905081810181811067ffffffffffffffff82111715612b8357612b82612e34565b5b8060405250919050565b600067ffffffffffffffff821115612ba857612ba7612e34565b5b601f19601f8301169050602081019050919050565b600081519050919050565b600082825260208201905092915050565b6000612be482612d2c565b9150612bef83612d2c565b9250827fffffffffffffffffffffffffffffffffffffffffffffffffffffffffffffffff03821115612c2457612c23612dd6565b5b828201905092915050565b6000612c3a82612d2c565b9150612c4583612d2c565b925082612c5557612c54612e05565b5b828204905092915050565b6000612c6b82612d2c565b9150612c7683612d2c565b9250817fffffffffffffffffffffffffffffffffffffffffffffffffffffffffffffffff0483118215151615612caf57612cae612dd6565b5b828202905092915050565b6000612cc582612d2c565b9150612cd083612d2c565b925082821015612ce357612ce2612dd6565b5b828203905092915050565b6000612cf982612d0c565b9050919050565b60008115159050919050565b600073ffffffffffffffffffffffffffffffffffffffff82169050919050565b6000819050919050565b6000612d4182612d48565b9050919050565b6000612d5382612d0c565b9050919050565b60005b83811015612d78578082015181840152602081019050612d5d565b83811115612d87576000848401525b50505050565b6000612d9882612d2c565b91507fffffffffffffffffffffffffffffffffffffffffffffffffffffffffffffffff821415612dcb57612dca612dd6565b5b600182019050919050565b7f4e487b7100000000000000000000000000000000000000000000000000000000600052601160045260246000fd5b7f4e487b7100000000000000000000000000000000000000000000000000000000600052601260045260246000fd5b7f4e487b7100000000000000000000000000000000000000000000000000000000600052604160045260246000fd5b6000601f19601f8301169050919050565b612e7d81612cee565b8114612e8857600080fd5b50565b612e9481612d00565b8114612e9f57600080fd5b50565b612eab81612d2c565b8114612eb657600080fd5b5056fea2646970667358221220ebc4e20d817262de2277983de199733b91cc6e4e7525a3bafedcb7775aeb7c5c64736f6c6343000800003360806040523480156200001157600080fd5b506040518060400160405280600781526020017f4d794552433230000000000000000000000000000000000000000000000000008152506040518060400160405280600481526020017f4d4552430000000000000000000000000000000000000000000000000000000081525081600390805190602001906200009692919062000286565b508060049080519060200190620000af92919062000286565b505050620000f433620000c7620000fa60201b60201c565b60ff16600a620000d8919062000491565b620f4240620000e89190620005ce565b6200010360201b60201c565b620006da565b60006012905090565b600073ffffffffffffffffffffffffffffffffffffffff168273ffffffffffffffffffffffffffffffffffffffff16141562000176576040517f08c379a00000000000000000000000000000000000000000000000000000000081526004016200016d9062000389565b60405180910390fd5b6200018a600083836200027c60201b60201c565b80600260008282546200019e9190620003d9565b92505081905550806000808473ffffffffffffffffffffffffffffffffffffffff1673ffffffffffffffffffffffffffffffffffffffff1681526020019081526020016000206000828254620001f59190620003d9565b925050819055508173ffffffffffffffffffffffffffffffffffffffff16600073ffffffffffffffffffffffffffffffffffffffff167fddf252ad1be2c89b69c2b068fc378daa952ba7f163c4a11628f55a4df523b3ef836040516200025c9190620003ab565b60405180910390a362000278600083836200028160201b60201c565b5050565b505050565b505050565b828054620002949062000639565b90600052602060002090601f016020900481019282620002b8576000855562000304565b82601f10620002d357805160ff191683800117855562000304565b8280016001018555821562000304579182015b8281111562000303578251825591602001919060010190620002e6565b5b50905062000313919062000317565b5090565b5b808211156200033257600081600090555060010162000318565b5090565b600062000345601f83620003c8565b91507f45524332303a206d696e7420746f20746865207a65726f2061646472657373006000830152602082019050919050565b62000383816200062f565b82525050565b60006020820190508181036000830152620003a48162000336565b9050919050565b6000602082019050620003c2600083018462000378565b92915050565b600082825260208201905092915050565b6000620003e6826200062f565b9150620003f3836200062f565b9250827fffffffffffffffffffffffffffffffffffffffffffffffffffffffffffffffff038211156200042b576200042a6200066f565b5b828201905092915050565b6000808291508390505b6001851115620004885780860481111562000460576200045f6200066f565b5b6001851615620004705780820291505b80810290506200048085620006cd565b945062000440565b94509492505050565b60006200049e826200062f565b9150620004ab836200062f565b9250620004da7fffffffffffffffffffffffffffffffffffffffffffffffffffffffffffffffff8484620004e2565b905092915050565b600082620004f45760019050620005c7565b81620005045760009050620005c7565b81600181146200051d576002811462000528576200055e565b6001915050620005c7565b60ff8411156200053d576200053c6200066f565b5b8360020a9150848211156200055757620005566200066f565b5b50620005c7565b5060208310610133831016604e8410600b8410161715620005985782820a9050838111156200059257620005916200066f565b5b620005c7565b620005a7848484600162000436565b92509050818404811115620005c157620005c06200066f565b5b81810290505b9392505050565b6000620005db826200062f565b9150620005e8836200062f565b9250817fffffffffffffffffffffffffffffffffffffffffffffffffffffffffffffffff04831182151516156200062457620006236200066f565b5b828202905092915050565b6000819050919050565b600060028204905060018216806200065257607f821691505b602082108114156200066957620006686200069e565b5b50919050565b7f4e487b7100000000000000000000000000000000000000000000000000000000600052601160045260246000fd5b7f4e487b7100000000000000000000000000000000000000000000000000000000600052602260045260246000fd5b60008160011c9050919050565b6111ff80620006ea6000396000f3fe608060405234801561001057600080fd5b50600436106100a95760003560e01c80633950935111610071578063395093511461016857806370a082311461019857806395d89b41146101c8578063a457c2d7146101e6578063a9059cbb14610216578063dd62ed3e14610246576100a9565b806306fdde03146100ae578063095ea7b3146100cc57806318160ddd146100fc57806323b872dd1461011a578063313ce5671461014a575b600080fd5b6100b6610276565b6040516100c39190610ec8565b60405180910390f35b6100e660048036038101906100e19190610b67565b610308565b6040516100f39190610ead565b60405180910390f35b61010461032b565b6040516101119190610fca565b60405180910390f35b610134600480360381019061012f9190610b18565b610335565b6040516101419190610ead565b60405180910390f35b610152610364565b60405161015f9190610fe5565b60405180910390f35b610182600480360381019061017d9190610b67565b61036d565b60405161018f9190610ead565b60405180910390f35b6101b260048036038101906101ad9190610ab3565b6103a4565b6040516101bf9190610fca565b60405180910390f35b6101d06103ec565b6040516101dd9190610ec8565b60405180910390f35b61020060048036038101906101fb9190610b67565b61047e565b60405161020d9190610ead565b60405180910390f35b610230600480360381019061022b9190610b67565b6104f5565b60405161023d9190610ead565b60405180910390f35b610260600480360381019061025b9190610adc565b610518565b60405161026d9190610fca565b60405180910390f35b606060038054610285906110fa565b80601f01602080910402602001604051908101604052809291908181526020018280546102b1906110fa565b80156102fe5780601f106102d3576101008083540402835291602001916102fe565b820191906000526020600020905b8154815290600101906020018083116102e157829003601f168201915b5050505050905090565b60008061031361059f565b90506103208185856105a7565b600191505092915050565b6000600254905090565b60008061034061059f565b905061034d858285610772565b6103588585856107fe565b60019150509392505050565b60006012905090565b60008061037861059f565b905061039981858561038a8589610518565b610394919061101c565b6105a7565b600191505092915050565b60008060008373ffffffffffffffffffffffffffffffffffffffff1673ffffffffffffffffffffffffffffffffffffffff168152602001908152602001600020549050919050565b6060600480546103fb906110fa565b80601f0160208091040260200160405190810160405280929190818152602001828054610427906110fa565b80156104745780601f1061044957610100808354040283529160200191610474565b820191906000526020600020905b81548152906001019060200180831161045757829003601f168201915b5050505050905090565b60008061048961059f565b905060006104978286610518565b9050838110156104dc576040517f08c379a00000000000000000000000000000000000000000000000000000000081526004016104d390610faa565b60405180910390fd5b6104e982868684036105a7565b60019250505092915050565b60008061050061059f565b905061050d8185856107fe565b600191505092915050565b6000600160008473ffffffffffffffffffffffffffffffffffffffff1673ffffffffffffffffffffffffffffffffffffffff16815260200190815260200160002060008373ffffffffffffffffffffffffffffffffffffffff1673ffffffffffffffffffffffffffffffffffffffff16815260200190815260200160002054905092915050565b600033905090565b600073ffffffffffffffffffffffffffffffffffffffff168373ffffffffffffffffffffffffffffffffffffffff161415610617576040517f08c379a000000000000000000000000000000000000000000000000000000000815260040161060e90610f8a565b60405180910390fd5b600073ffffffffffffffffffffffffffffffffffffffff168273ffffffffffffffffffffffffffffffffffffffff161415610687576040517f08c379a000000000000000000000000000000000000000000000000000000000815260040161067e90610f0a565b60405180910390fd5b80600160008573ffffffffffffffffffffffffffffffffffffffff1673ffffffffffffffffffffffffffffffffffffffff16815260200190815260200160002060008473ffffffffffffffffffffffffffffffffffffffff1673ffffffffffffffffffffffffffffffffffffffff168152602001908152602001600020819055508173ffffffffffffffffffffffffffffffffffffffff168373ffffffffffffffffffffffffffffffffffffffff167f8c5be1e5ebec7d5bd14f71427d1e84f3dd0314c0f7b2291e5b200ac8c7c3b925836040516107659190610fca565b60405180910390a3505050565b600061077e8484610518565b90507fffffffffffffffffffffffffffffffffffffffffffffffffffffffffffffffff81146107f857818110156107ea576040517f08c379a00000000000000000000000000000000000000000000000000000000081526004016107e190610f2a565b60405180910390fd5b6107f784848484036105a7565b5b50505050565b600073ffffffffffffffffffffffffffffffffffffffff168373ffffffffffffffffffffffffffffffffffffffff16141561086e576040517f08c379a000000000000000000000000000000000000000000000000000000000815260040161086590610f6a565b60405180910390fd5b600073ffffffffffffffffffffffffffffffffffffffff168273ffffffffffffffffffffffffffffffffffffffff1614156108de576040517f08c379a00000000000000000000000000000000000000000000000000000000081526004016108d590610eea565b60405180910390fd5b6108e9838383610a7f565b60008060008573ffffffffffffffffffffffffffffffffffffffff1673ffffffffffffffffffffffffffffffffffffffff1681526020019081526020016000205490508181101561096f576040517f08c379a000000000000000000000000000000000000000000000000000000000815260040161096690610f4a565b60405180910390fd5b8181036000808673ffffffffffffffffffffffffffffffffffffffff1673ffffffffffffffffffffffffffffffffffffffff16815260200190815260200160002081905550816000808573ffffffffffffffffffffffffffffffffffffffff1673ffffffffffffffffffffffffffffffffffffffff1681526020019081526020016000206000828254610a02919061101c565b925050819055508273ffffffffffffffffffffffffffffffffffffffff168473ffffffffffffffffffffffffffffffffffffffff167fddf252ad1be2c89b69c2b068fc378daa952ba7f163c4a11628f55a4df523b3ef84604051610a669190610fca565b60405180910390a3610a79848484610a84565b50505050565b505050565b505050565b600081359050610a988161119b565b92915050565b600081359050610aad816111b2565b92915050565b600060208284031215610ac557600080fd5b6000610ad384828501610a89565b91505092915050565b60008060408385031215610aef57600080fd5b6000610afd85828601610a89565b9250506020610b0e85828601610a89565b9150509250929050565b600080600060608486031215610b2d57600080fd5b6000610b3b86828701610a89565b9350506020610b4c86828701610a89565b9250506040610b5d86828701610a9e565b9150509250925092565b60008060408385031215610b7a57600080fd5b6000610b8885828601610a89565b9250506020610b9985828601610a9e565b9150509250929050565b610bac81611084565b82525050565b6000610bbd82611000565b610bc7818561100b565b9350610bd78185602086016110c7565b610be08161118a565b840191505092915050565b6000610bf860238361100b565b91507f45524332303a207472616e7366657220746f20746865207a65726f206164647260008301527f65737300000000000000000000000000000000000000000000000000000000006020830152604082019050919050565b6000610c5e60228361100b565b91507f45524332303a20617070726f766520746f20746865207a65726f20616464726560008301527f73730000000000000000000000000000000000000000000000000000000000006020830152604082019050919050565b6000610cc4601d8361100b565b91507f45524332303a20696e73756666696369656e7420616c6c6f77616e63650000006000830152602082019050919050565b6000610d0460268361100b565b91507f45524332303a207472616e7366657220616d6f756e742065786365656473206260008301527f616c616e636500000000000000000000000000000000000000000000000000006020830152604082019050919050565b6000610d6a60258361100b565b91507f45524332303a207472616e736665722066726f6d20746865207a65726f20616460008301527f64726573730000000000000000000000000000000000000000000000000000006020830152604082019050919050565b6000610dd060248361100b565b91507f45524332303a20617070726f76652066726f6d20746865207a65726f2061646460008301527f72657373000000000000000000000000000000000000000000000000000000006020830152604082019050919050565b6000610e3660258361100b565b91507f45524332303a2064656372656173656420616c6c6f77616e63652062656c6f7760008301527f207a65726f0000000000000000000000000000000000000000000000000000006020830152604082019050919050565b610e98816110b0565b82525050565b610ea7816110ba565b82525050565b6000602082019050610ec26000830184610ba3565b92915050565b60006020820190508181036000830152610ee28184610bb2565b905092915050565b60006020820190508181036000830152610f0381610beb565b9050919050565b60006020820190508181036000830152610f2381610c51565b9050919050565b60006020820190508181036000830152610f4381610cb7565b9050919050565b60006020820190508181036000830152610f6381610cf7565b9050919050565b60006020820190508181036000830152610f8381610d5d565b9050919050565b60006020820190508181036000830152610fa381610dc3565b9050919050565b60006020820190508181036000830152610fc381610e29565b9050919050565b6000602082019050610fdf6000830184610e8f565b92915050565b6000602082019050610ffa6000830184610e9e565b92915050565b600081519050919050565b600082825260208201905092915050565b6000611027826110b0565b9150611032836110b0565b9250827fffffffffffffffffffffffffffffffffffffffffffffffffffffffffffffffff038211156110675761106661112c565b5b828201905092915050565b600061107d82611090565b9050919050565b60008115159050919050565b600073ffffffffffffffffffffffffffffffffffffffff82169050919050565b6000819050919050565b600060ff82169050919050565b60005b838110156110e55780820151818401526020810190506110ca565b838111156110f4576000848401525b50505050565b6000600282049050600182168061111257607f821691505b602082108114156111265761112561115b565b5b50919050565b7f4e487b7100000000000000000000000000000000000000000000000000000000600052601160045260246000fd5b7f4e487b7100000000000000000000000000000000000000000000000000000000600052602260045260246000fd5b6000601f19601f8301169050919050565b6111a481611072565b81146111af57600080fd5b50565b6111bb816110b0565b81146111c657600080fd5b5056fea264697066735822122057b8c0cea74ffd00fb0ca303295f1caa4602e9b8fd0066f717ed84b56eb7532e64736f6c63430008000033",
  "immutableReferences": {},
  "source": "// SPDX-License-Identifier: MIT\npragma solidity ^0.8.0;\n\nimport \"@openzeppelin/contracts/token/ERC20/IERC20.sol\";\n//import \"@openzeppelin/contracts/token/ERC20/SafeERC20.sol\";\n//import \"@openzeppelin/contracts/utils/EnumerableSet.sol\";\nimport \"@openzeppelin/contracts/utils/math/SafeMath.sol\";\nimport \"@openzeppelin/contracts/access/Ownable.sol\";\nimport \"./MyERC20.sol\";\nimport \"./IDTToken.sol\";\n\n//import \"./NFT.sol\";\n//import \"./Exchange.sol\";\n\n// TODO:\n// [x] SET THE POOL ACCOUNT\n// [x] DEPOSIT TOKEN\n// [x] WITHDRAW TOKEN WITH INTEREST\n// [x] GENERATE TOKEN ON EACH BLOCK\n// [x] REWARD USER FOR STACKING\n// [X] I WANT MORE\n\ncontract Stacking is Ownable {\n     using SafeMath for uint256;\n    //using SafeERC20 for IERC20;\n\n    mapping(address => uint256) public poolBalance; //mapping of token address and amount\n\n    address constant ETHER = address(0);\n    mapping(uint256 => mapping(address => uint256)) public stackers;\n\n    uint256 public stackCount;\n    uint256 public startBlock;\n    IDTToken public idt;\n    MyERC20 stk = new MyERC20(); //***/ */\n    PoolInfo[] public poolInfo;\n    uint256 public bonusEndBlock;\n    uint256 public constant BONUS_MULTIPLIER = 10;\n    uint256 public idtPerBlock;\n    // Dev address.\n    address public devAddress;\n\n    uint256 public totalAllocPoint = 0;\n\n    event Deposit(address indexed user, uint256 indexed pid, uint256 amount);\n    event Withdraw(address indexed user, uint256 indexed pid, uint256 amount);\n\n    struct PoolInfo {\n        address tokenStack; // Address of LP token contract.\n        uint256 allocPoint; // How many allocation points assigned to this pool. SUSHIs to distribute per block.\n        uint256 lastRewardBlock; // Last block number that SUSHIs distribution occurs.\n        uint256 accIDTPerShare; // Accumulated SUSHIs per share, times 1e12. See below.\n    }\n\n    constructor(\n        IDTToken _token,\n        address _devAddress,\n        uint256 _idtPerBlock,\n        uint256 _startBlock,\n        uint256 _bonusEndBlock\n    )  {\n        idt = _token;\n        devAddress = _devAddress;\n        idtPerBlock = _idtPerBlock;\n        bonusEndBlock = _bonusEndBlock;\n        startBlock = _startBlock;\n    }\n\n    function poolLength() external view returns (uint256) {\n        return poolInfo.length;\n    }\n\n    // Add a new lp to the pool. Can only be called by the owner.\n    // XXX DO NOT add the same LP token more than once. Rewards will be messed up if you do.\n    function add(\n        uint256 _allocPoint,\n        address _lpToken,\n        bool _withUpdate\n    ) public onlyOwner {\n        if (_withUpdate) {\n            massUpdatePools();\n        }\n        uint256 lastRewardBlock = block.number > startBlock\n            ? block.number\n            : startBlock;\n        totalAllocPoint = totalAllocPoint.add(_allocPoint);\n        poolInfo.push(\n            PoolInfo({\n                tokenStack: _lpToken,\n                allocPoint: _allocPoint,\n                lastRewardBlock: lastRewardBlock,\n                accIDTPerShare: 0\n            })\n        );\n    }\n\n    function deposit(uint256 _amount, uint256 _id) public payable {\n        //require token is approved\n        PoolInfo storage pool = poolInfo[_id];\n        updatePool(_id);\n        stackers[_id][msg.sender] = stackers[_id][msg.sender].add(_amount);\n        require(\n            getERCtransferFrom(\n                pool.tokenStack,\n                msg.sender,\n                address(this),\n                _amount\n            )\n        );\n\n        emit Deposit(msg.sender, _id, _amount);\n    }\n\n    function withdraw(uint256 _amount, uint256 _id) public payable {\n        PoolInfo storage pool = poolInfo[_id];\n        require(stackers[_id][msg.sender] >= _amount);\n        updatePool(_id);\n        uint256 pending = stackers[_id][msg.sender]\n            .mul(pool.accIDTPerShare)\n            .div(1e18);\n        if (pending > 0) {\n            safeIDTTransfer(msg.sender, pending);\n        }\n        if (_amount > 0) {\n            stackers[_id][msg.sender] = stackers[_id][msg.sender].sub(_amount);\n\n            getERCtransfer(pool.tokenStack, address(msg.sender), _amount);\n        }\n        emit Withdraw(msg.sender, _id, _amount);\n    }\n\n    // Safe IDT transfer function, just in case if rounding error causes pool to not have enough IDTs.\n    function safeIDTTransfer(address _to, uint256 _amount) internal {\n        uint256 idtBal = idt.balanceOf(address(this));\n        if (_amount > idtBal) {\n            idt.transfer(_to, idtBal);\n        } else {\n            idt.transfer(_to, _amount);\n        }\n    }\n\n    // mint some tokens\n\n    function updatePool(uint256 _pid) public {\n        PoolInfo storage pool = poolInfo[_pid];\n        if (block.number <= pool.lastRewardBlock) {\n            return;\n        }\n        uint256 supply = getERCBalance(pool.tokenStack, address(this));\n        if (supply == 0) {\n            pool.lastRewardBlock = block.number;\n            return;\n        }\n        uint256 multiplier = getMultiplier(pool.lastRewardBlock, block.number);\n        uint256 idtReward = multiplier\n            .mul(idtPerBlock)\n            .mul(pool.allocPoint)\n            .div(totalAllocPoint);\n        idt.mint(devAddress, idtReward.div(10));\n        idt.mint(address(this), idtReward);\n        pool.accIDTPerShare = pool.accIDTPerShare.add(\n            idtReward.mul(1e18).div(supply)\n        );\n        pool.lastRewardBlock = block.number;\n    }\n\n    // Update reward variables for all pools. Be careful of gas spending!\n    function massUpdatePools() public {\n        uint256 length = poolInfo.length;\n        for (uint256 pid = 0; pid < length; ++pid) {\n            updatePool(pid);\n        }\n    }\n\n    // Return reward multiplier over the given _from to _to block.\n    function getMultiplier(uint256 _from, uint256 _to)\n        public\n        view\n        returns (uint256)\n    {\n        if (_to <= bonusEndBlock) {\n            return _to.sub(_from).mul(BONUS_MULTIPLIER);\n        } else if (_from >= bonusEndBlock) {\n            return _to.sub(_from);\n        } else {\n            return\n                bonusEndBlock.sub(_from).mul(BONUS_MULTIPLIER).add(\n                    _to.sub(bonusEndBlock)\n                );\n        }\n    }\n\n    // return the balance of stacker\n    function stackingBalanceOf(uint256 _id, address _user)\n        public\n        view\n        returns (uint256)\n    {\n        return stackers[_id][_user];\n    }\n\n    // return the balance of the pool for this token\n\n    function balanceOfPool(address _token) public view returns (uint256) {\n        return poolBalance[_token];\n    }\n\n    // View function to see pending SUSHIs on frontend.\n    function pendingIDT(uint256 _pid) public returns (uint256) {\n        PoolInfo storage pool = poolInfo[_pid];\n        uint256 accIDTPerShare = pool.accIDTPerShare;\n        uint256 lpSupply = getERCBalance(pool.tokenStack, address(this));\n        if (block.number > pool.lastRewardBlock && lpSupply != 0) {\n            uint256 multiplier = getMultiplier(\n                pool.lastRewardBlock,\n                block.number\n            );\n            uint256 idtReward = multiplier\n                .mul(idtPerBlock)\n                .mul(pool.allocPoint)\n                .div(totalAllocPoint);\n            accIDTPerShare = accIDTPerShare.add(\n                idtReward.mul(1e18).div(lpSupply)\n            );\n        }\n        return stackers[_pid][msg.sender].mul(accIDTPerShare).div(1e18);\n    }\n\n    // EXTERNaL CALL TO ERC20 Contract\n    function getERCapprove(\n        address _token,\n        address _spender,\n        uint256 _value\n    ) public returns (bool) {\n        stk = MyERC20(_token);\n        return stk.approve(_spender, _value);\n    }\n\n    function getERCtransferFrom(\n        address _token,\n        address _from,\n        address _to,\n        uint256 _value\n    ) public returns (bool) {\n        stk = MyERC20(_token);\n        return stk.transferFrom(_from, _to, _value);\n    }\n\n    function getERCBalance(address _token, address _owner)\n        public\n        returns (uint256)\n    {\n        stk = MyERC20(_token);\n        return stk.balanceOf(_owner);\n    }\n\n    function getERCtransfer(\n        address _token,\n        address _to,\n        uint256 _value\n    ) public returns (bool) {\n        stk = MyERC20(_token);\n        return stk.transfer(_to, _value);\n    }\n\n    function getERCname(address _token) public returns (string memory) {\n        stk = MyERC20(_token);\n        return stk.name();\n    }\n\n    function getERCsymbol(address _token) public returns (string memory) {\n        stk = MyERC20(_token);\n        return stk.symbol();\n    }\n\n     function getLPSupply(uint256 _pid) public returns (uint256) {\n        PoolInfo memory pool = poolInfo[_pid];\n        stk = MyERC20(pool.tokenStack);\n        return stk.balanceOf(address(this));\n    }\n\n    function getLastRewardBlock(uint256 _pid) public view returns (uint256) {\n        PoolInfo memory pool = poolInfo[_pid];\n\n        return pool.lastRewardBlock;\n    }\n\n    function getMultiplierView(uint256 _pid) public view returns (uint256) {\n        PoolInfo memory pool = poolInfo[_pid];\n\n        if (block.number <= bonusEndBlock) {\n            return ((block.number - pool.lastRewardBlock) * BONUS_MULTIPLIER);\n        } else if (pool.lastRewardBlock >=  bonusEndBlock) {\n            return block.number - pool.lastRewardBlock;\n        } else {\n            return\n                (bonusEndBlock - pool.lastRewardBlock) *\n                BONUS_MULTIPLIER +\n                (block.number - bonusEndBlock);\n        }\n    }\n\n    function getAccIDTPerShare(uint256 _pid) public view returns (uint256) {\n        PoolInfo memory pool = poolInfo[_pid];\n        return pool.accIDTPerShare;\n    }\n\n    function getIdtReward(uint256 _pid) public view returns (uint256) {\n        PoolInfo memory pool = poolInfo[_pid];\n        uint256 idtReward = ((getMultiplierView(_pid) * idtPerBlock) *\n            pool.allocPoint) / totalAllocPoint;\n        return idtReward;\n    }\n}\n",
  "sourcePath": "D:\\projetos\\blockchain\\dex-next\\src\\contracts\\Stacking.sol",
  "compiler": {
    "name": "solc",
    "version": "0.8.0+commit.c7dfd78e.Emscripten.clang"
  },
  "schemaVersion": "3.4.3",
  "updatedAt": "2022-08-20T15:37:54.760Z",
  "networkType": "ethereum",
  "devdoc": {
    "kind": "dev",
    "methods": {
      "owner()": {
        "details": "Returns the address of the current owner."
      },
      "renounceOwnership()": {
        "details": "Leaves the contract without owner. It will not be possible to call `onlyOwner` functions anymore. Can only be called by the current owner. NOTE: Renouncing ownership will leave the contract without an owner, thereby removing any functionality that is only available to the owner."
      },
      "transferOwnership(address)": {
        "details": "Transfers ownership of the contract to a new account (`newOwner`). Can only be called by the current owner."
      }
    },
    "version": 1
  },
  "userdoc": {
    "kind": "user",
    "methods": {},
    "version": 1
  }
}