{
  "contractName": "Stacking",
  "abi": [
    {
      "inputs": [
        {
          "internalType": "contract IDTToken",
          "name": "_token",
          "type": "address"
        },
        {
          "internalType": "address",
          "name": "_devAddress",
          "type": "address"
        },
        {
          "internalType": "uint256",
          "name": "_idtPerBlock",
          "type": "uint256"
        },
        {
          "internalType": "uint256",
          "name": "_startBlock",
          "type": "uint256"
        },
        {
          "internalType": "uint256",
          "name": "_bonusEndBlock",
          "type": "uint256"
        }
      ],
      "stateMutability": "nonpayable",
      "type": "constructor"
    },
    {
      "anonymous": false,
      "inputs": [
        {
          "indexed": true,
          "internalType": "address",
          "name": "user",
          "type": "address"
        },
        {
          "indexed": true,
          "internalType": "uint256",
          "name": "pid",
          "type": "uint256"
        },
        {
          "indexed": false,
          "internalType": "uint256",
          "name": "amount",
          "type": "uint256"
        }
      ],
      "name": "Deposit",
      "type": "event"
    },
    {
      "anonymous": false,
      "inputs": [
        {
          "indexed": true,
          "internalType": "address",
          "name": "previousOwner",
          "type": "address"
        },
        {
          "indexed": true,
          "internalType": "address",
          "name": "newOwner",
          "type": "address"
        }
      ],
      "name": "OwnershipTransferred",
      "type": "event"
    },
    {
      "anonymous": false,
      "inputs": [
        {
          "indexed": true,
          "internalType": "address",
          "name": "user",
          "type": "address"
        },
        {
          "indexed": true,
          "internalType": "uint256",
          "name": "pid",
          "type": "uint256"
        },
        {
          "indexed": false,
          "internalType": "uint256",
          "name": "amount",
          "type": "uint256"
        }
      ],
      "name": "Withdraw",
      "type": "event"
    },
    {
      "inputs": [],
      "name": "BONUS_MULTIPLIER",
      "outputs": [
        {
          "internalType": "uint256",
          "name": "",
          "type": "uint256"
        }
      ],
      "stateMutability": "view",
      "type": "function",
      "constant": true
    },
    {
      "inputs": [],
      "name": "bonusEndBlock",
      "outputs": [
        {
          "internalType": "uint256",
          "name": "",
          "type": "uint256"
        }
      ],
      "stateMutability": "view",
      "type": "function",
      "constant": true
    },
    {
      "inputs": [],
      "name": "devAddress",
      "outputs": [
        {
          "internalType": "address",
          "name": "",
          "type": "address"
        }
      ],
      "stateMutability": "view",
      "type": "function",
      "constant": true
    },
    {
      "inputs": [],
      "name": "idt",
      "outputs": [
        {
          "internalType": "contract IDTToken",
          "name": "",
          "type": "address"
        }
      ],
      "stateMutability": "view",
      "type": "function",
      "constant": true
    },
    {
      "inputs": [],
      "name": "idtPerBlock",
      "outputs": [
        {
          "internalType": "uint256",
          "name": "",
          "type": "uint256"
        }
      ],
      "stateMutability": "view",
      "type": "function",
      "constant": true
    },
    {
      "inputs": [],
      "name": "owner",
      "outputs": [
        {
          "internalType": "address",
          "name": "",
          "type": "address"
        }
      ],
      "stateMutability": "view",
      "type": "function",
      "constant": true
    },
    {
      "inputs": [
        {
          "internalType": "address",
          "name": "",
          "type": "address"
        }
      ],
      "name": "poolBalance",
      "outputs": [
        {
          "internalType": "uint256",
          "name": "",
          "type": "uint256"
        }
      ],
      "stateMutability": "view",
      "type": "function",
      "constant": true
    },
    {
      "inputs": [
        {
          "internalType": "uint256",
          "name": "",
          "type": "uint256"
        }
      ],
      "name": "poolInfo",
      "outputs": [
        {
          "internalType": "address",
          "name": "tokenStack",
          "type": "address"
        },
        {
          "internalType": "uint256",
          "name": "allocPoint",
          "type": "uint256"
        },
        {
          "internalType": "uint256",
          "name": "lastRewardBlock",
          "type": "uint256"
        },
        {
          "internalType": "uint256",
          "name": "accIDTPerShare",
          "type": "uint256"
        }
      ],
      "stateMutability": "view",
      "type": "function",
      "constant": true
    },
    {
      "inputs": [],
      "name": "renounceOwnership",
      "outputs": [],
      "stateMutability": "nonpayable",
      "type": "function"
    },
    {
      "inputs": [],
      "name": "stackCount",
      "outputs": [
        {
          "internalType": "uint256",
          "name": "",
          "type": "uint256"
        }
      ],
      "stateMutability": "view",
      "type": "function",
      "constant": true
    },
    {
      "inputs": [
        {
          "internalType": "uint256",
          "name": "",
          "type": "uint256"
        },
        {
          "internalType": "address",
          "name": "",
          "type": "address"
        }
      ],
      "name": "stackers",
      "outputs": [
        {
          "internalType": "uint256",
          "name": "",
          "type": "uint256"
        }
      ],
      "stateMutability": "view",
      "type": "function",
      "constant": true
    },
    {
      "inputs": [],
      "name": "startBlock",
      "outputs": [
        {
          "internalType": "uint256",
          "name": "",
          "type": "uint256"
        }
      ],
      "stateMutability": "view",
      "type": "function",
      "constant": true
    },
    {
      "inputs": [],
      "name": "totalAllocPoint",
      "outputs": [
        {
          "internalType": "uint256",
          "name": "",
          "type": "uint256"
        }
      ],
      "stateMutability": "view",
      "type": "function",
      "constant": true
    },
    {
      "inputs": [
        {
          "internalType": "address",
          "name": "newOwner",
          "type": "address"
        }
      ],
      "name": "transferOwnership",
      "outputs": [],
      "stateMutability": "nonpayable",
      "type": "function"
    },
    {
      "inputs": [],
      "name": "poolLength",
      "outputs": [
        {
          "internalType": "uint256",
          "name": "",
          "type": "uint256"
        }
      ],
      "stateMutability": "view",
      "type": "function",
      "constant": true
    },
    {
      "inputs": [
        {
          "internalType": "uint256",
          "name": "_allocPoint",
          "type": "uint256"
        },
        {
          "internalType": "address",
          "name": "_lpToken",
          "type": "address"
        },
        {
          "internalType": "bool",
          "name": "_withUpdate",
          "type": "bool"
        }
      ],
      "name": "add",
      "outputs": [],
      "stateMutability": "nonpayable",
      "type": "function"
    },
    {
      "inputs": [
        {
          "internalType": "uint256",
          "name": "_amount",
          "type": "uint256"
        },
        {
          "internalType": "uint256",
          "name": "_id",
          "type": "uint256"
        }
      ],
      "name": "deposit",
      "outputs": [],
      "stateMutability": "payable",
      "type": "function",
      "payable": true
    },
    {
      "inputs": [
        {
          "internalType": "uint256",
          "name": "_amount",
          "type": "uint256"
        },
        {
          "internalType": "uint256",
          "name": "_id",
          "type": "uint256"
        }
      ],
      "name": "withdraw",
      "outputs": [],
      "stateMutability": "payable",
      "type": "function",
      "payable": true
    },
    {
      "inputs": [
        {
          "internalType": "uint256",
          "name": "_pid",
          "type": "uint256"
        }
      ],
      "name": "updatePool",
      "outputs": [],
      "stateMutability": "nonpayable",
      "type": "function"
    },
    {
      "inputs": [],
      "name": "massUpdatePools",
      "outputs": [],
      "stateMutability": "nonpayable",
      "type": "function"
    },
    {
      "inputs": [
        {
          "internalType": "uint256",
          "name": "_from",
          "type": "uint256"
        },
        {
          "internalType": "uint256",
          "name": "_to",
          "type": "uint256"
        }
      ],
      "name": "getMultiplier",
      "outputs": [
        {
          "internalType": "uint256",
          "name": "",
          "type": "uint256"
        }
      ],
      "stateMutability": "view",
      "type": "function",
      "constant": true
    },
    {
      "inputs": [
        {
          "internalType": "uint256",
          "name": "_id",
          "type": "uint256"
        },
        {
          "internalType": "address",
          "name": "_user",
          "type": "address"
        }
      ],
      "name": "stackingBalanceOf",
      "outputs": [
        {
          "internalType": "uint256",
          "name": "",
          "type": "uint256"
        }
      ],
      "stateMutability": "view",
      "type": "function",
      "constant": true
    },
    {
      "inputs": [
        {
          "internalType": "address",
          "name": "_token",
          "type": "address"
        }
      ],
      "name": "balanceOfPool",
      "outputs": [
        {
          "internalType": "uint256",
          "name": "",
          "type": "uint256"
        }
      ],
      "stateMutability": "view",
      "type": "function",
      "constant": true
    },
    {
      "inputs": [
        {
          "internalType": "uint256",
          "name": "_pid",
          "type": "uint256"
        }
      ],
      "name": "pendingIDT",
      "outputs": [
        {
          "internalType": "uint256",
          "name": "",
          "type": "uint256"
        }
      ],
      "stateMutability": "nonpayable",
      "type": "function"
    },
    {
      "inputs": [
        {
          "internalType": "address",
          "name": "_token",
          "type": "address"
        },
        {
          "internalType": "address",
          "name": "_spender",
          "type": "address"
        },
        {
          "internalType": "uint256",
          "name": "_value",
          "type": "uint256"
        }
      ],
      "name": "getERCapprove",
      "outputs": [
        {
          "internalType": "bool",
          "name": "",
          "type": "bool"
        }
      ],
      "stateMutability": "nonpayable",
      "type": "function"
    },
    {
      "inputs": [
        {
          "internalType": "address",
          "name": "_token",
          "type": "address"
        },
        {
          "internalType": "address",
          "name": "_from",
          "type": "address"
        },
        {
          "internalType": "address",
          "name": "_to",
          "type": "address"
        },
        {
          "internalType": "uint256",
          "name": "_value",
          "type": "uint256"
        }
      ],
      "name": "getERCtransferFrom",
      "outputs": [
        {
          "internalType": "bool",
          "name": "",
          "type": "bool"
        }
      ],
      "stateMutability": "nonpayable",
      "type": "function"
    },
    {
      "inputs": [
        {
          "internalType": "address",
          "name": "_token",
          "type": "address"
        },
        {
          "internalType": "address",
          "name": "_owner",
          "type": "address"
        }
      ],
      "name": "getERCBalance",
      "outputs": [
        {
          "internalType": "uint256",
          "name": "",
          "type": "uint256"
        }
      ],
      "stateMutability": "nonpayable",
      "type": "function"
    },
    {
      "inputs": [
        {
          "internalType": "address",
          "name": "_token",
          "type": "address"
        },
        {
          "internalType": "address",
          "name": "_to",
          "type": "address"
        },
        {
          "internalType": "uint256",
          "name": "_value",
          "type": "uint256"
        }
      ],
      "name": "getERCtransfer",
      "outputs": [
        {
          "internalType": "bool",
          "name": "",
          "type": "bool"
        }
      ],
      "stateMutability": "nonpayable",
      "type": "function"
    },
    {
      "inputs": [
        {
          "internalType": "address",
          "name": "_token",
          "type": "address"
        }
      ],
      "name": "getERCname",
      "outputs": [
        {
          "internalType": "string",
          "name": "",
          "type": "string"
        }
      ],
      "stateMutability": "nonpayable",
      "type": "function"
    },
    {
      "inputs": [
        {
          "internalType": "address",
          "name": "_token",
          "type": "address"
        }
      ],
      "name": "getERCsymbol",
      "outputs": [
        {
          "internalType": "string",
          "name": "",
          "type": "string"
        }
      ],
      "stateMutability": "nonpayable",
      "type": "function"
    }
  ],
  "bytecode": "0x6080604052604051620000129062000236565b604051809103906000f0801580156200002f573d6000803e3d6000fd5b50600660006101000a81548173ffffffffffffffffffffffffffffffffffffffff021916908373ffffffffffffffffffffffffffffffffffffffff1602179055506000600b553480156200008257600080fd5b5060405162004440380380620044408339818101604052810190620000a8919062000289565b620000c8620000bc6200016a60201b60201c565b6200017260201b60201c565b84600560006101000a81548173ffffffffffffffffffffffffffffffffffffffff021916908373ffffffffffffffffffffffffffffffffffffffff16021790555083600a60006101000a81548173ffffffffffffffffffffffffffffffffffffffff021916908373ffffffffffffffffffffffffffffffffffffffff1602179055508260098190555080600881905550816004819055505050505050620003ab565b600033905090565b60008060009054906101000a900473ffffffffffffffffffffffffffffffffffffffff169050816000806101000a81548173ffffffffffffffffffffffffffffffffffffffff021916908373ffffffffffffffffffffffffffffffffffffffff1602179055508173ffffffffffffffffffffffffffffffffffffffff168173ffffffffffffffffffffffffffffffffffffffff167f8be0079c531659141344cd1fd0a4f28419497f9722a3daafe3b4186f6b6457e060405160405180910390a35050565b6118e98062002b5783390190565b60008151905062000255816200035d565b92915050565b6000815190506200026c8162000377565b92915050565b600081519050620002838162000391565b92915050565b600080600080600060a08688031215620002a257600080fd5b6000620002b2888289016200025b565b9550506020620002c58882890162000244565b9450506040620002d88882890162000272565b9350506060620002eb8882890162000272565b9250506080620002fe8882890162000272565b9150509295509295909350565b6000620003188262000333565b9050919050565b60006200032c826200030b565b9050919050565b600073ffffffffffffffffffffffffffffffffffffffff82169050919050565b6000819050919050565b62000368816200030b565b81146200037457600080fd5b50565b62000382816200031f565b81146200038e57600080fd5b50565b6200039c8162000353565b8114620003a857600080fd5b50565b61279c80620003bb6000396000f3fe6080604052600436106101cd5760003560e01c806368abb5e0116100f7578063b0f6379411610095578063e2bbb15811610064578063e2bbb158146106be578063ed0816de146106da578063f2fde38b14610717578063f36ab03714610740576101cd565b8063b0f63794146105ee578063b9ca62e41461062b578063d4708fc414610668578063df9dac7514610693576101cd565b8063749400ff116100d1578063749400ff1461051e5780638aa285501461055b5780638da5cb5b146105865780638dbb1e3a146105b1576101cd565b806368abb5e01461048d5780636d7af5b1146104ca578063715018a614610507576101cd565b80633ad10ef61161016f5780635bfa898b1161013e5780635bfa898b146103d1578063630b5ba11461040e578063653c39141461042557806366f2ac5214610462576101cd565b80633ad10ef614610336578063441a3e701461036157806348cd4cb11461037d57806351eb05a6146103a8576101cd565b80631526fe27116101ab5780631526fe271461027757806317caf6f1146102b75780631aed6553146102e25780631eaaa0451461030d576101cd565b8063081e3eda146101d25780630b0cc957146101fd57806313cc367e1461023a575b600080fd5b3480156101de57600080fd5b506101e761077d565b6040516101f491906123ee565b60405180910390f35b34801561020957600080fd5b50610224600480360381019061021f9190611fa9565b61078a565b6040516102319190612356565b60405180910390f35b34801561024657600080fd5b50610261600480360381019061025c9190611ee1565b610885565b60405161026e919061238c565b60405180910390f35b34801561028357600080fd5b5061029e60048036038101906102999190612062565b610974565b6040516102ae9493929190612311565b60405180910390f35b3480156102c357600080fd5b506102cc6109d4565b6040516102d991906123ee565b60405180910390f35b3480156102ee57600080fd5b506102f76109da565b60405161030491906123ee565b60405180910390f35b34801561031957600080fd5b50610334600480360381019061032f91906120f0565b6109e0565b005b34801561034257600080fd5b5061034b610af9565b6040516103589190612296565b60405180910390f35b61037b6004803603810190610376919061213f565b610b1f565b005b34801561038957600080fd5b50610392610dad565b60405161039f91906123ee565b60405180910390f35b3480156103b457600080fd5b506103cf60048036038101906103ca9190612062565b610db3565b005b3480156103dd57600080fd5b506103f860048036038101906103f39190611fa9565b61105c565b6040516104059190612356565b60405180910390f35b34801561041a57600080fd5b50610423611157565b005b34801561043157600080fd5b5061044c60048036038101906104479190612062565b61118a565b60405161045991906123ee565b60405180910390f35b34801561046e57600080fd5b50610477611345565b6040516104849190612371565b60405180910390f35b34801561049957600080fd5b506104b460048036038101906104af9190611ee1565b61136b565b6040516104c191906123ee565b60405180910390f35b3480156104d657600080fd5b506104f160048036038101906104ec91906120b4565b611383565b6040516104fe91906123ee565b60405180910390f35b34801561051357600080fd5b5061051c6113de565b005b34801561052a57600080fd5b5061054560048036038101906105409190611f0a565b6113f2565b60405161055291906123ee565b60405180910390f35b34801561056757600080fd5b506105706114e8565b60405161057d91906123ee565b60405180910390f35b34801561059257600080fd5b5061059b6114ed565b6040516105a89190612296565b60405180910390f35b3480156105bd57600080fd5b506105d860048036038101906105d3919061213f565b611516565b6040516105e591906123ee565b60405180910390f35b3480156105fa57600080fd5b5061061560048036038101906106109190611ee1565b6115c8565b60405161062291906123ee565b60405180910390f35b34801561063757600080fd5b50610652600480360381019061064d91906120b4565b611611565b60405161065f91906123ee565b60405180910390f35b34801561067457600080fd5b5061067d611636565b60405161068a91906123ee565b60405180910390f35b34801561069f57600080fd5b506106a861163c565b6040516106b591906123ee565b60405180910390f35b6106d860048036038101906106d3919061213f565b611642565b005b3480156106e657600080fd5b5061070160048036038101906106fc9190611f46565b6117db565b60405161070e9190612356565b60405180910390f35b34801561072357600080fd5b5061073e60048036038101906107399190611ee1565b6118d9565b005b34801561074c57600080fd5b5061076760048036038101906107629190611ee1565b61195d565b604051610774919061238c565b60405180910390f35b6000600780549050905090565b600083600660006101000a81548173ffffffffffffffffffffffffffffffffffffffff021916908373ffffffffffffffffffffffffffffffffffffffff160217905550600660009054906101000a900473ffffffffffffffffffffffffffffffffffffffff1673ffffffffffffffffffffffffffffffffffffffff1663a9059cbb84846040518363ffffffff1660e01b815260040161082a9291906122e8565b602060405180830381600087803b15801561084457600080fd5b505af1158015610858573d6000803e3d6000fd5b505050506040513d601f19601f8201168201806040525081019061087c9190611ff8565b90509392505050565b606081600660006101000a81548173ffffffffffffffffffffffffffffffffffffffff021916908373ffffffffffffffffffffffffffffffffffffffff160217905550600660009054906101000a900473ffffffffffffffffffffffffffffffffffffffff1673ffffffffffffffffffffffffffffffffffffffff166395d89b416040518163ffffffff1660e01b815260040160006040518083038186803b15801561093057600080fd5b505afa158015610944573d6000803e3d6000fd5b505050506040513d6000823e3d601f19601f8201168201806040525081019061096d9190612021565b9050919050565b6007818154811061098457600080fd5b90600052602060002090600402016000915090508060000160009054906101000a900473ffffffffffffffffffffffffffffffffffffffff16908060010154908060020154908060030154905084565b600b5481565b60085481565b6109e8611a4c565b80156109f7576109f6611157565b5b60006004544311610a0a57600454610a0c565b435b9050610a2384600b54611aca90919063ffffffff16565b600b81905550600760405180608001604052808573ffffffffffffffffffffffffffffffffffffffff1681526020018681526020018381526020016000815250908060018154018082558091505060019003906000526020600020906004020160009091909190915060008201518160000160006101000a81548173ffffffffffffffffffffffffffffffffffffffff021916908373ffffffffffffffffffffffffffffffffffffffff160217905550602082015181600101556040820151816002015560608201518160030155505050505050565b600a60009054906101000a900473ffffffffffffffffffffffffffffffffffffffff1681565b600060078281548110610b5b577f4e487b7100000000000000000000000000000000000000000000000000000000600052603260045260246000fd5b90600052602060002090600402019050826002600084815260200190815260200160002060003373ffffffffffffffffffffffffffffffffffffffff1673ffffffffffffffffffffffffffffffffffffffff168152602001908152602001600020541015610bc857600080fd5b610bd182610db3565b6000610c5164e8d4a51000610c4384600301546002600088815260200190815260200160002060003373ffffffffffffffffffffffffffffffffffffffff1673ffffffffffffffffffffffffffffffffffffffff16815260200190815260200160002054611ae090919063ffffffff16565b611af690919063ffffffff16565b90506000811115610c6757610c663382611b0c565b5b6000841115610d5857610cd3846002600086815260200190815260200160002060003373ffffffffffffffffffffffffffffffffffffffff1673ffffffffffffffffffffffffffffffffffffffff16815260200190815260200160002054611d2e90919063ffffffff16565b6002600085815260200190815260200160002060003373ffffffffffffffffffffffffffffffffffffffff1673ffffffffffffffffffffffffffffffffffffffff16815260200190815260200160002081905550610d568260000160009054906101000a900473ffffffffffffffffffffffffffffffffffffffff16338661078a565b505b823373ffffffffffffffffffffffffffffffffffffffff167ff279e6a1f5e320cca91135676d9cb6e44ca8a08c0b88342bcdb1144f6511b56886604051610d9f91906123ee565b60405180910390a350505050565b60045481565b600060078281548110610def577f4e487b7100000000000000000000000000000000000000000000000000000000600052603260045260246000fd5b9060005260206000209060040201905080600201544311610e105750611059565b6000610e408260000160009054906101000a900473ffffffffffffffffffffffffffffffffffffffff16306113f2565b90506000811415610e5b574382600201819055505050611059565b6000610e6b836002015443611516565b90506000610eae600b54610ea08660010154610e9260095487611ae090919063ffffffff16565b611ae090919063ffffffff16565b611af690919063ffffffff16565b9050600560009054906101000a900473ffffffffffffffffffffffffffffffffffffffff1673ffffffffffffffffffffffffffffffffffffffff166340c10f19600a60009054906101000a900473ffffffffffffffffffffffffffffffffffffffff16610f25600a85611af690919063ffffffff16565b6040518363ffffffff1660e01b8152600401610f429291906122e8565b600060405180830381600087803b158015610f5c57600080fd5b505af1158015610f70573d6000803e3d6000fd5b50505050600560009054906101000a900473ffffffffffffffffffffffffffffffffffffffff1673ffffffffffffffffffffffffffffffffffffffff166340c10f1930836040518363ffffffff1660e01b8152600401610fd19291906122e8565b600060405180830381600087803b158015610feb57600080fd5b505af1158015610fff573d6000803e3d6000fd5b505050506110436110308461102264e8d4a5100085611ae090919063ffffffff16565b611af690919063ffffffff16565b8560030154611aca90919063ffffffff16565b8460030181905550438460020181905550505050505b50565b600083600660006101000a81548173ffffffffffffffffffffffffffffffffffffffff021916908373ffffffffffffffffffffffffffffffffffffffff160217905550600660009054906101000a900473ffffffffffffffffffffffffffffffffffffffff1673ffffffffffffffffffffffffffffffffffffffff1663095ea7b384846040518363ffffffff1660e01b81526004016110fc9291906122e8565b602060405180830381600087803b15801561111657600080fd5b505af115801561112a573d6000803e3d6000fd5b505050506040513d601f19601f8201168201806040525081019061114e9190611ff8565b90509392505050565b6000600780549050905060005b818110156111865761117581610db3565b8061117f9061263a565b9050611164565b5050565b600080600783815481106111c7577f4e487b7100000000000000000000000000000000000000000000000000000000600052603260045260246000fd5b9060005260206000209060040201905060008160030154905060006112108360000160009054906101000a900473ffffffffffffffffffffffffffffffffffffffff16306113f2565b9050826002015443118015611226575060008114155b156112c157600061123b846002015443611516565b9050600061127e600b54611270876001015461126260095487611ae090919063ffffffff16565b611ae090919063ffffffff16565b611af690919063ffffffff16565b90506112bc6112ad8461129f64e8d4a5100085611ae090919063ffffffff16565b611af690919063ffffffff16565b85611aca90919063ffffffff16565b935050505b61133b64e8d4a5100061132d84600260008a815260200190815260200160002060003373ffffffffffffffffffffffffffffffffffffffff1673ffffffffffffffffffffffffffffffffffffffff16815260200190815260200160002054611ae090919063ffffffff16565b611af690919063ffffffff16565b9350505050919050565b600560009054906101000a900473ffffffffffffffffffffffffffffffffffffffff1681565b60016020528060005260406000206000915090505481565b60006002600084815260200190815260200160002060008373ffffffffffffffffffffffffffffffffffffffff1673ffffffffffffffffffffffffffffffffffffffff16815260200190815260200160002054905092915050565b6113e6611a4c565b6113f06000611d44565b565b600082600660006101000a81548173ffffffffffffffffffffffffffffffffffffffff021916908373ffffffffffffffffffffffffffffffffffffffff160217905550600660009054906101000a900473ffffffffffffffffffffffffffffffffffffffff1673ffffffffffffffffffffffffffffffffffffffff166370a08231836040518263ffffffff1660e01b81526004016114909190612296565b60206040518083038186803b1580156114a857600080fd5b505afa1580156114bc573d6000803e3d6000fd5b505050506040513d601f19601f820116820180604052508101906114e0919061208b565b905092915050565b600a81565b60008060009054906101000a900473ffffffffffffffffffffffffffffffffffffffff16905090565b6000600854821161154e57611547600a6115398585611d2e90919063ffffffff16565b611ae090919063ffffffff16565b90506115c2565b60085483106115715761156a8383611d2e90919063ffffffff16565b90506115c2565b6115bf61158960085484611d2e90919063ffffffff16565b6115b1600a6115a387600854611d2e90919063ffffffff16565b611ae090919063ffffffff16565b611aca90919063ffffffff16565b90505b92915050565b6000600160008373ffffffffffffffffffffffffffffffffffffffff1673ffffffffffffffffffffffffffffffffffffffff168152602001908152602001600020549050919050565b6002602052816000526040600020602052806000526040600020600091509150505481565b60095481565b60035481565b60006007828154811061167e577f4e487b7100000000000000000000000000000000000000000000000000000000600052603260045260246000fd5b9060005260206000209060040201905061169782610db3565b6116fa836002600085815260200190815260200160002060003373ffffffffffffffffffffffffffffffffffffffff1673ffffffffffffffffffffffffffffffffffffffff16815260200190815260200160002054611aca90919063ffffffff16565b6002600084815260200190815260200160002060003373ffffffffffffffffffffffffffffffffffffffff1673ffffffffffffffffffffffffffffffffffffffff1681526020019081526020016000208190555061177e8160000160009054906101000a900473ffffffffffffffffffffffffffffffffffffffff163330866117db565b61178757600080fd5b813373ffffffffffffffffffffffffffffffffffffffff167f90890809c654f11d6e72a28fa60149770a0d11ec6c92319d6ceb2bb0a4ea1a15856040516117ce91906123ee565b60405180910390a3505050565b600084600660006101000a81548173ffffffffffffffffffffffffffffffffffffffff021916908373ffffffffffffffffffffffffffffffffffffffff160217905550600660009054906101000a900473ffffffffffffffffffffffffffffffffffffffff1673ffffffffffffffffffffffffffffffffffffffff166323b872dd8585856040518463ffffffff1660e01b815260040161187d939291906122b1565b602060405180830381600087803b15801561189757600080fd5b505af11580156118ab573d6000803e3d6000fd5b505050506040513d601f19601f820116820180604052508101906118cf9190611ff8565b9050949350505050565b6118e1611a4c565b600073ffffffffffffffffffffffffffffffffffffffff168173ffffffffffffffffffffffffffffffffffffffff161415611951576040517f08c379a0000000000000000000000000000000000000000000000000000000008152600401611948906123ae565b60405180910390fd5b61195a81611d44565b50565b606081600660006101000a81548173ffffffffffffffffffffffffffffffffffffffff021916908373ffffffffffffffffffffffffffffffffffffffff160217905550600660009054906101000a900473ffffffffffffffffffffffffffffffffffffffff1673ffffffffffffffffffffffffffffffffffffffff166306fdde036040518163ffffffff1660e01b815260040160006040518083038186803b158015611a0857600080fd5b505afa158015611a1c573d6000803e3d6000fd5b505050506040513d6000823e3d601f19601f82011682018060405250810190611a459190612021565b9050919050565b611a54611e08565b73ffffffffffffffffffffffffffffffffffffffff16611a726114ed565b73ffffffffffffffffffffffffffffffffffffffff1614611ac8576040517f08c379a0000000000000000000000000000000000000000000000000000000008152600401611abf906123ce565b60405180910390fd5b565b60008183611ad89190612486565b905092915050565b60008183611aee919061250d565b905092915050565b60008183611b0491906124dc565b905092915050565b6000600560009054906101000a900473ffffffffffffffffffffffffffffffffffffffff1673ffffffffffffffffffffffffffffffffffffffff166370a08231306040518263ffffffff1660e01b8152600401611b699190612296565b60206040518083038186803b158015611b8157600080fd5b505afa158015611b95573d6000803e3d6000fd5b505050506040513d601f19601f82011682018060405250810190611bb9919061208b565b905080821115611c7857600560009054906101000a900473ffffffffffffffffffffffffffffffffffffffff1673ffffffffffffffffffffffffffffffffffffffff1663a9059cbb84836040518363ffffffff1660e01b8152600401611c209291906122e8565b602060405180830381600087803b158015611c3a57600080fd5b505af1158015611c4e573d6000803e3d6000fd5b505050506040513d601f19601f82011682018060405250810190611c729190611ff8565b50611d29565b600560009054906101000a900473ffffffffffffffffffffffffffffffffffffffff1673ffffffffffffffffffffffffffffffffffffffff1663a9059cbb84846040518363ffffffff1660e01b8152600401611cd59291906122e8565b602060405180830381600087803b158015611cef57600080fd5b505af1158015611d03573d6000803e3d6000fd5b505050506040513d601f19601f82011682018060405250810190611d279190611ff8565b505b505050565b60008183611d3c9190612567565b905092915050565b60008060009054906101000a900473ffffffffffffffffffffffffffffffffffffffff169050816000806101000a81548173ffffffffffffffffffffffffffffffffffffffff021916908373ffffffffffffffffffffffffffffffffffffffff1602179055508173ffffffffffffffffffffffffffffffffffffffff168173ffffffffffffffffffffffffffffffffffffffff167f8be0079c531659141344cd1fd0a4f28419497f9722a3daafe3b4186f6b6457e060405160405180910390a35050565b600033905090565b6000611e23611e1e8461243a565b612409565b905082815260208101848484011115611e3b57600080fd5b611e46848285612607565b509392505050565b600081359050611e5d81612721565b92915050565b600081359050611e7281612738565b92915050565b600081519050611e8781612738565b92915050565b600082601f830112611e9e57600080fd5b8151611eae848260208601611e10565b91505092915050565b600081359050611ec68161274f565b92915050565b600081519050611edb8161274f565b92915050565b600060208284031215611ef357600080fd5b6000611f0184828501611e4e565b91505092915050565b60008060408385031215611f1d57600080fd5b6000611f2b85828601611e4e565b9250506020611f3c85828601611e4e565b9150509250929050565b60008060008060808587031215611f5c57600080fd5b6000611f6a87828801611e4e565b9450506020611f7b87828801611e4e565b9350506040611f8c87828801611e4e565b9250506060611f9d87828801611eb7565b91505092959194509250565b600080600060608486031215611fbe57600080fd5b6000611fcc86828701611e4e565b9350506020611fdd86828701611e4e565b9250506040611fee86828701611eb7565b9150509250925092565b60006020828403121561200a57600080fd5b600061201884828501611e78565b91505092915050565b60006020828403121561203357600080fd5b600082015167ffffffffffffffff81111561204d57600080fd5b61205984828501611e8d565b91505092915050565b60006020828403121561207457600080fd5b600061208284828501611eb7565b91505092915050565b60006020828403121561209d57600080fd5b60006120ab84828501611ecc565b91505092915050565b600080604083850312156120c757600080fd5b60006120d585828601611eb7565b92505060206120e685828601611e4e565b9150509250929050565b60008060006060848603121561210557600080fd5b600061211386828701611eb7565b935050602061212486828701611e4e565b925050604061213586828701611e63565b9150509250925092565b6000806040838503121561215257600080fd5b600061216085828601611eb7565b925050602061217185828601611eb7565b9150509250929050565b6121848161259b565b82525050565b612193816125ad565b82525050565b6121a2816125e3565b82525050565b60006121b38261246a565b6121bd8185612475565b93506121cd818560208601612607565b6121d681612710565b840191505092915050565b60006121ee602683612475565b91507f4f776e61626c653a206e6577206f776e657220697320746865207a65726f206160008301527f64647265737300000000000000000000000000000000000000000000000000006020830152604082019050919050565b6000612254602083612475565b91507f4f776e61626c653a2063616c6c6572206973206e6f7420746865206f776e65726000830152602082019050919050565b612290816125d9565b82525050565b60006020820190506122ab600083018461217b565b92915050565b60006060820190506122c6600083018661217b565b6122d3602083018561217b565b6122e06040830184612287565b949350505050565b60006040820190506122fd600083018561217b565b61230a6020830184612287565b9392505050565b6000608082019050612326600083018761217b565b6123336020830186612287565b6123406040830185612287565b61234d6060830184612287565b95945050505050565b600060208201905061236b600083018461218a565b92915050565b60006020820190506123866000830184612199565b92915050565b600060208201905081810360008301526123a681846121a8565b905092915050565b600060208201905081810360008301526123c7816121e1565b9050919050565b600060208201905081810360008301526123e781612247565b9050919050565b60006020820190506124036000830184612287565b92915050565b6000604051905081810181811067ffffffffffffffff821117156124305761242f6126e1565b5b8060405250919050565b600067ffffffffffffffff821115612455576124546126e1565b5b601f19601f8301169050602081019050919050565b600081519050919050565b600082825260208201905092915050565b6000612491826125d9565b915061249c836125d9565b9250827fffffffffffffffffffffffffffffffffffffffffffffffffffffffffffffffff038211156124d1576124d0612683565b5b828201905092915050565b60006124e7826125d9565b91506124f2836125d9565b925082612502576125016126b2565b5b828204905092915050565b6000612518826125d9565b9150612523836125d9565b9250817fffffffffffffffffffffffffffffffffffffffffffffffffffffffffffffffff048311821515161561255c5761255b612683565b5b828202905092915050565b6000612572826125d9565b915061257d836125d9565b9250828210156125905761258f612683565b5b828203905092915050565b60006125a6826125b9565b9050919050565b60008115159050919050565b600073ffffffffffffffffffffffffffffffffffffffff82169050919050565b6000819050919050565b60006125ee826125f5565b9050919050565b6000612600826125b9565b9050919050565b60005b8381101561262557808201518184015260208101905061260a565b83811115612634576000848401525b50505050565b6000612645826125d9565b91507fffffffffffffffffffffffffffffffffffffffffffffffffffffffffffffffff82141561267857612677612683565b5b600182019050919050565b7f4e487b7100000000000000000000000000000000000000000000000000000000600052601160045260246000fd5b7f4e487b7100000000000000000000000000000000000000000000000000000000600052601260045260246000fd5b7f4e487b7100000000000000000000000000000000000000000000000000000000600052604160045260246000fd5b6000601f19601f8301169050919050565b61272a8161259b565b811461273557600080fd5b50565b612741816125ad565b811461274c57600080fd5b50565b612758816125d9565b811461276357600080fd5b5056fea2646970667358221220a4afc46bb4791301e531c854b380700b7458437d3bc526e81d80a5725927624864736f6c6343000800003360806040523480156200001157600080fd5b506040518060400160405280600781526020017f4d794552433230000000000000000000000000000000000000000000000000008152506040518060400160405280600481526020017f4d4552430000000000000000000000000000000000000000000000000000000081525081600390805190602001906200009692919062000286565b508060049080519060200190620000af92919062000286565b505050620000f433620000c7620000fa60201b60201c565b60ff16600a620000d8919062000491565b620f4240620000e89190620005ce565b6200010360201b60201c565b620006da565b60006012905090565b600073ffffffffffffffffffffffffffffffffffffffff168273ffffffffffffffffffffffffffffffffffffffff16141562000176576040517f08c379a00000000000000000000000000000000000000000000000000000000081526004016200016d9062000389565b60405180910390fd5b6200018a600083836200027c60201b60201c565b80600260008282546200019e9190620003d9565b92505081905550806000808473ffffffffffffffffffffffffffffffffffffffff1673ffffffffffffffffffffffffffffffffffffffff1681526020019081526020016000206000828254620001f59190620003d9565b925050819055508173ffffffffffffffffffffffffffffffffffffffff16600073ffffffffffffffffffffffffffffffffffffffff167fddf252ad1be2c89b69c2b068fc378daa952ba7f163c4a11628f55a4df523b3ef836040516200025c9190620003ab565b60405180910390a362000278600083836200028160201b60201c565b5050565b505050565b505050565b828054620002949062000639565b90600052602060002090601f016020900481019282620002b8576000855562000304565b82601f10620002d357805160ff191683800117855562000304565b8280016001018555821562000304579182015b8281111562000303578251825591602001919060010190620002e6565b5b50905062000313919062000317565b5090565b5b808211156200033257600081600090555060010162000318565b5090565b600062000345601f83620003c8565b91507f45524332303a206d696e7420746f20746865207a65726f2061646472657373006000830152602082019050919050565b62000383816200062f565b82525050565b60006020820190508181036000830152620003a48162000336565b9050919050565b6000602082019050620003c2600083018462000378565b92915050565b600082825260208201905092915050565b6000620003e6826200062f565b9150620003f3836200062f565b9250827fffffffffffffffffffffffffffffffffffffffffffffffffffffffffffffffff038211156200042b576200042a6200066f565b5b828201905092915050565b6000808291508390505b6001851115620004885780860481111562000460576200045f6200066f565b5b6001851615620004705780820291505b80810290506200048085620006cd565b945062000440565b94509492505050565b60006200049e826200062f565b9150620004ab836200062f565b9250620004da7fffffffffffffffffffffffffffffffffffffffffffffffffffffffffffffffff8484620004e2565b905092915050565b600082620004f45760019050620005c7565b81620005045760009050620005c7565b81600181146200051d576002811462000528576200055e565b6001915050620005c7565b60ff8411156200053d576200053c6200066f565b5b8360020a9150848211156200055757620005566200066f565b5b50620005c7565b5060208310610133831016604e8410600b8410161715620005985782820a9050838111156200059257620005916200066f565b5b620005c7565b620005a7848484600162000436565b92509050818404811115620005c157620005c06200066f565b5b81810290505b9392505050565b6000620005db826200062f565b9150620005e8836200062f565b9250817fffffffffffffffffffffffffffffffffffffffffffffffffffffffffffffffff04831182151516156200062457620006236200066f565b5b828202905092915050565b6000819050919050565b600060028204905060018216806200065257607f821691505b602082108114156200066957620006686200069e565b5b50919050565b7f4e487b7100000000000000000000000000000000000000000000000000000000600052601160045260246000fd5b7f4e487b7100000000000000000000000000000000000000000000000000000000600052602260045260246000fd5b60008160011c9050919050565b6111ff80620006ea6000396000f3fe608060405234801561001057600080fd5b50600436106100a95760003560e01c80633950935111610071578063395093511461016857806370a082311461019857806395d89b41146101c8578063a457c2d7146101e6578063a9059cbb14610216578063dd62ed3e14610246576100a9565b806306fdde03146100ae578063095ea7b3146100cc57806318160ddd146100fc57806323b872dd1461011a578063313ce5671461014a575b600080fd5b6100b6610276565b6040516100c39190610ec8565b60405180910390f35b6100e660048036038101906100e19190610b67565b610308565b6040516100f39190610ead565b60405180910390f35b61010461032b565b6040516101119190610fca565b60405180910390f35b610134600480360381019061012f9190610b18565b610335565b6040516101419190610ead565b60405180910390f35b610152610364565b60405161015f9190610fe5565b60405180910390f35b610182600480360381019061017d9190610b67565b61036d565b60405161018f9190610ead565b60405180910390f35b6101b260048036038101906101ad9190610ab3565b6103a4565b6040516101bf9190610fca565b60405180910390f35b6101d06103ec565b6040516101dd9190610ec8565b60405180910390f35b61020060048036038101906101fb9190610b67565b61047e565b60405161020d9190610ead565b60405180910390f35b610230600480360381019061022b9190610b67565b6104f5565b60405161023d9190610ead565b60405180910390f35b610260600480360381019061025b9190610adc565b610518565b60405161026d9190610fca565b60405180910390f35b606060038054610285906110fa565b80601f01602080910402602001604051908101604052809291908181526020018280546102b1906110fa565b80156102fe5780601f106102d3576101008083540402835291602001916102fe565b820191906000526020600020905b8154815290600101906020018083116102e157829003601f168201915b5050505050905090565b60008061031361059f565b90506103208185856105a7565b600191505092915050565b6000600254905090565b60008061034061059f565b905061034d858285610772565b6103588585856107fe565b60019150509392505050565b60006012905090565b60008061037861059f565b905061039981858561038a8589610518565b610394919061101c565b6105a7565b600191505092915050565b60008060008373ffffffffffffffffffffffffffffffffffffffff1673ffffffffffffffffffffffffffffffffffffffff168152602001908152602001600020549050919050565b6060600480546103fb906110fa565b80601f0160208091040260200160405190810160405280929190818152602001828054610427906110fa565b80156104745780601f1061044957610100808354040283529160200191610474565b820191906000526020600020905b81548152906001019060200180831161045757829003601f168201915b5050505050905090565b60008061048961059f565b905060006104978286610518565b9050838110156104dc576040517f08c379a00000000000000000000000000000000000000000000000000000000081526004016104d390610faa565b60405180910390fd5b6104e982868684036105a7565b60019250505092915050565b60008061050061059f565b905061050d8185856107fe565b600191505092915050565b6000600160008473ffffffffffffffffffffffffffffffffffffffff1673ffffffffffffffffffffffffffffffffffffffff16815260200190815260200160002060008373ffffffffffffffffffffffffffffffffffffffff1673ffffffffffffffffffffffffffffffffffffffff16815260200190815260200160002054905092915050565b600033905090565b600073ffffffffffffffffffffffffffffffffffffffff168373ffffffffffffffffffffffffffffffffffffffff161415610617576040517f08c379a000000000000000000000000000000000000000000000000000000000815260040161060e90610f8a565b60405180910390fd5b600073ffffffffffffffffffffffffffffffffffffffff168273ffffffffffffffffffffffffffffffffffffffff161415610687576040517f08c379a000000000000000000000000000000000000000000000000000000000815260040161067e90610f0a565b60405180910390fd5b80600160008573ffffffffffffffffffffffffffffffffffffffff1673ffffffffffffffffffffffffffffffffffffffff16815260200190815260200160002060008473ffffffffffffffffffffffffffffffffffffffff1673ffffffffffffffffffffffffffffffffffffffff168152602001908152602001600020819055508173ffffffffffffffffffffffffffffffffffffffff168373ffffffffffffffffffffffffffffffffffffffff167f8c5be1e5ebec7d5bd14f71427d1e84f3dd0314c0f7b2291e5b200ac8c7c3b925836040516107659190610fca565b60405180910390a3505050565b600061077e8484610518565b90507fffffffffffffffffffffffffffffffffffffffffffffffffffffffffffffffff81146107f857818110156107ea576040517f08c379a00000000000000000000000000000000000000000000000000000000081526004016107e190610f2a565b60405180910390fd5b6107f784848484036105a7565b5b50505050565b600073ffffffffffffffffffffffffffffffffffffffff168373ffffffffffffffffffffffffffffffffffffffff16141561086e576040517f08c379a000000000000000000000000000000000000000000000000000000000815260040161086590610f6a565b60405180910390fd5b600073ffffffffffffffffffffffffffffffffffffffff168273ffffffffffffffffffffffffffffffffffffffff1614156108de576040517f08c379a00000000000000000000000000000000000000000000000000000000081526004016108d590610eea565b60405180910390fd5b6108e9838383610a7f565b60008060008573ffffffffffffffffffffffffffffffffffffffff1673ffffffffffffffffffffffffffffffffffffffff1681526020019081526020016000205490508181101561096f576040517f08c379a000000000000000000000000000000000000000000000000000000000815260040161096690610f4a565b60405180910390fd5b8181036000808673ffffffffffffffffffffffffffffffffffffffff1673ffffffffffffffffffffffffffffffffffffffff16815260200190815260200160002081905550816000808573ffffffffffffffffffffffffffffffffffffffff1673ffffffffffffffffffffffffffffffffffffffff1681526020019081526020016000206000828254610a02919061101c565b925050819055508273ffffffffffffffffffffffffffffffffffffffff168473ffffffffffffffffffffffffffffffffffffffff167fddf252ad1be2c89b69c2b068fc378daa952ba7f163c4a11628f55a4df523b3ef84604051610a669190610fca565b60405180910390a3610a79848484610a84565b50505050565b505050565b505050565b600081359050610a988161119b565b92915050565b600081359050610aad816111b2565b92915050565b600060208284031215610ac557600080fd5b6000610ad384828501610a89565b91505092915050565b60008060408385031215610aef57600080fd5b6000610afd85828601610a89565b9250506020610b0e85828601610a89565b9150509250929050565b600080600060608486031215610b2d57600080fd5b6000610b3b86828701610a89565b9350506020610b4c86828701610a89565b9250506040610b5d86828701610a9e565b9150509250925092565b60008060408385031215610b7a57600080fd5b6000610b8885828601610a89565b9250506020610b9985828601610a9e565b9150509250929050565b610bac81611084565b82525050565b6000610bbd82611000565b610bc7818561100b565b9350610bd78185602086016110c7565b610be08161118a565b840191505092915050565b6000610bf860238361100b565b91507f45524332303a207472616e7366657220746f20746865207a65726f206164647260008301527f65737300000000000000000000000000000000000000000000000000000000006020830152604082019050919050565b6000610c5e60228361100b565b91507f45524332303a20617070726f766520746f20746865207a65726f20616464726560008301527f73730000000000000000000000000000000000000000000000000000000000006020830152604082019050919050565b6000610cc4601d8361100b565b91507f45524332303a20696e73756666696369656e7420616c6c6f77616e63650000006000830152602082019050919050565b6000610d0460268361100b565b91507f45524332303a207472616e7366657220616d6f756e742065786365656473206260008301527f616c616e636500000000000000000000000000000000000000000000000000006020830152604082019050919050565b6000610d6a60258361100b565b91507f45524332303a207472616e736665722066726f6d20746865207a65726f20616460008301527f64726573730000000000000000000000000000000000000000000000000000006020830152604082019050919050565b6000610dd060248361100b565b91507f45524332303a20617070726f76652066726f6d20746865207a65726f2061646460008301527f72657373000000000000000000000000000000000000000000000000000000006020830152604082019050919050565b6000610e3660258361100b565b91507f45524332303a2064656372656173656420616c6c6f77616e63652062656c6f7760008301527f207a65726f0000000000000000000000000000000000000000000000000000006020830152604082019050919050565b610e98816110b0565b82525050565b610ea7816110ba565b82525050565b6000602082019050610ec26000830184610ba3565b92915050565b60006020820190508181036000830152610ee28184610bb2565b905092915050565b60006020820190508181036000830152610f0381610beb565b9050919050565b60006020820190508181036000830152610f2381610c51565b9050919050565b60006020820190508181036000830152610f4381610cb7565b9050919050565b60006020820190508181036000830152610f6381610cf7565b9050919050565b60006020820190508181036000830152610f8381610d5d565b9050919050565b60006020820190508181036000830152610fa381610dc3565b9050919050565b60006020820190508181036000830152610fc381610e29565b9050919050565b6000602082019050610fdf6000830184610e8f565b92915050565b6000602082019050610ffa6000830184610e9e565b92915050565b600081519050919050565b600082825260208201905092915050565b6000611027826110b0565b9150611032836110b0565b9250827fffffffffffffffffffffffffffffffffffffffffffffffffffffffffffffffff038211156110675761106661112c565b5b828201905092915050565b600061107d82611090565b9050919050565b60008115159050919050565b600073ffffffffffffffffffffffffffffffffffffffff82169050919050565b6000819050919050565b600060ff82169050919050565b60005b838110156110e55780820151818401526020810190506110ca565b838111156110f4576000848401525b50505050565b6000600282049050600182168061111257607f821691505b602082108114156111265761112561115b565b5b50919050565b7f4e487b7100000000000000000000000000000000000000000000000000000000600052601160045260246000fd5b7f4e487b7100000000000000000000000000000000000000000000000000000000600052602260045260246000fd5b6000601f19601f8301169050919050565b6111a481611072565b81146111af57600080fd5b50565b6111bb816110b0565b81146111c657600080fd5b5056fea264697066735822122057b8c0cea74ffd00fb0ca303295f1caa4602e9b8fd0066f717ed84b56eb7532e64736f6c63430008000033",
  "immutableReferences": {},
  "source": "// SPDX-License-Identifier: MIT\npragma solidity ^0.8.0;\n\nimport \"@openzeppelin/contracts/token/ERC20/IERC20.sol\";\n//import \"@openzeppelin/contracts/token/ERC20/SafeERC20.sol\";\n//import \"@openzeppelin/contracts/utils/EnumerableSet.sol\";\nimport \"@openzeppelin/contracts/utils/math/SafeMath.sol\";\nimport \"@openzeppelin/contracts/access/Ownable.sol\";\nimport \"./MyERC20.sol\";\nimport \"./IDTToken.sol\";\n\n//import \"./NFT.sol\";\n//import \"./Exchange.sol\";\n\n// TODO:\n// [x] SET THE POOL ACCOUNT\n// [x] DEPOSIT TOKEN\n// [x] WITHDRAW TOKEN WITH INTEREST\n// [x] GENERATE TOKEN ON EACH BLOCK\n// [x] REWARD USER FOR STACKING\n// [X] I WANT MORE\n\ncontract Stacking is Ownable {\n     using SafeMath for uint256;\n    //using SafeERC20 for IERC20;\n\n    mapping(address => uint256) public poolBalance; //mapping of token address and amount\n\n    address constant ETHER = address(0);\n    mapping(uint256 => mapping(address => uint256)) public stackers;\n\n    uint256 public stackCount;\n    uint256 public startBlock;\n    IDTToken public idt;\n    MyERC20 stk = new MyERC20(); //***/ */\n    PoolInfo[] public poolInfo;\n    uint256 public bonusEndBlock;\n    uint256 public constant BONUS_MULTIPLIER = 10;\n    uint256 public idtPerBlock;\n    // Dev address.\n    address public devAddress;\n\n    uint256 public totalAllocPoint = 0;\n\n    event Deposit(address indexed user, uint256 indexed pid, uint256 amount);\n    event Withdraw(address indexed user, uint256 indexed pid, uint256 amount);\n\n    struct PoolInfo {\n        address tokenStack; // Address of LP token contract.\n        uint256 allocPoint; // How many allocation points assigned to this pool. SUSHIs to distribute per block.\n        uint256 lastRewardBlock; // Last block number that SUSHIs distribution occurs.\n        uint256 accIDTPerShare; // Accumulated SUSHIs per share, times 1e12. See below.\n    }\n\n    constructor(\n        IDTToken _token,\n        address _devAddress,\n        uint256 _idtPerBlock,\n        uint256 _startBlock,\n        uint256 _bonusEndBlock\n    )  {\n        idt = _token;\n        devAddress = _devAddress;\n        idtPerBlock = _idtPerBlock;\n        bonusEndBlock = _bonusEndBlock;\n        startBlock = _startBlock;\n    }\n\n    function poolLength() external view returns (uint256) {\n        return poolInfo.length;\n    }\n\n    // Add a new lp to the pool. Can only be called by the owner.\n    // XXX DO NOT add the same LP token more than once. Rewards will be messed up if you do.\n    function add(\n        uint256 _allocPoint,\n        address _lpToken,\n        bool _withUpdate\n    ) public onlyOwner {\n        if (_withUpdate) {\n            massUpdatePools();\n        }\n        uint256 lastRewardBlock = block.number > startBlock\n            ? block.number\n            : startBlock;\n        totalAllocPoint = totalAllocPoint.add(_allocPoint);\n        poolInfo.push(\n            PoolInfo({\n                tokenStack: _lpToken,\n                allocPoint: _allocPoint,\n                lastRewardBlock: lastRewardBlock,\n                accIDTPerShare: 0\n            })\n        );\n    }\n\n    function deposit(uint256 _amount, uint256 _id) public payable {\n        //require token is approved\n        PoolInfo storage pool = poolInfo[_id];\n        updatePool(_id);\n        stackers[_id][msg.sender] = stackers[_id][msg.sender].add(_amount);\n        require(\n            getERCtransferFrom(\n                pool.tokenStack,\n                msg.sender,\n                address(this),\n                _amount\n            )\n        );\n\n        emit Deposit(msg.sender, _id, _amount);\n    }\n\n    function withdraw(uint256 _amount, uint256 _id) public payable {\n        PoolInfo storage pool = poolInfo[_id];\n        require(stackers[_id][msg.sender] >= _amount);\n        updatePool(_id);\n        uint256 pending = stackers[_id][msg.sender]\n            .mul(pool.accIDTPerShare)\n            .div(1e12);\n        if (pending > 0) {\n            safeIDTTransfer(msg.sender, pending);\n        }\n        if (_amount > 0) {\n            stackers[_id][msg.sender] = stackers[_id][msg.sender].sub(_amount);\n\n            getERCtransfer(pool.tokenStack, address(msg.sender), _amount);\n        }\n        emit Withdraw(msg.sender, _id, _amount);\n    }\n\n    // Safe IDT transfer function, just in case if rounding error causes pool to not have enough IDTs.\n    function safeIDTTransfer(address _to, uint256 _amount) internal {\n        uint256 idtBal = idt.balanceOf(address(this));\n        if (_amount > idtBal) {\n            idt.transfer(_to, idtBal);\n        } else {\n            idt.transfer(_to, _amount);\n        }\n    }\n\n    // mint some tokens\n\n    function updatePool(uint256 _pid) public {\n        PoolInfo storage pool = poolInfo[_pid];\n        if (block.number <= pool.lastRewardBlock) {\n            return;\n        }\n        uint256 supply = getERCBalance(pool.tokenStack, address(this));\n        if (supply == 0) {\n            pool.lastRewardBlock = block.number;\n            return;\n        }\n        uint256 multiplier = getMultiplier(pool.lastRewardBlock, block.number);\n        uint256 idtReward = multiplier\n            .mul(idtPerBlock)\n            .mul(pool.allocPoint)\n            .div(totalAllocPoint);\n        idt.mint(devAddress, idtReward.div(10));\n        idt.mint(address(this), idtReward);\n        pool.accIDTPerShare = pool.accIDTPerShare.add(\n            idtReward.mul(1e12).div(supply)\n        );\n        pool.lastRewardBlock = block.number;\n    }\n\n    // Update reward variables for all pools. Be careful of gas spending!\n    function massUpdatePools() public {\n        uint256 length = poolInfo.length;\n        for (uint256 pid = 0; pid < length; ++pid) {\n            updatePool(pid);\n        }\n    }\n\n    // Return reward multiplier over the given _from to _to block.\n    function getMultiplier(uint256 _from, uint256 _to)\n        public\n        view\n        returns (uint256)\n    {\n        if (_to <= bonusEndBlock) {\n            return _to.sub(_from).mul(BONUS_MULTIPLIER);\n        } else if (_from >= bonusEndBlock) {\n            return _to.sub(_from);\n        } else {\n            return\n                bonusEndBlock.sub(_from).mul(BONUS_MULTIPLIER).add(\n                    _to.sub(bonusEndBlock)\n                );\n        }\n    }\n\n    // return the balance of stacker\n    function stackingBalanceOf(uint256 _id, address _user)\n        public\n        view\n        returns (uint256)\n    {\n        return stackers[_id][_user];\n    }\n\n    // return the balance of the pool for this token\n\n    function balanceOfPool(address _token) public view returns (uint256) {\n        return poolBalance[_token];\n    }\n\n    // View function to see pending SUSHIs on frontend.\n    function pendingIDT(uint256 _pid) public returns (uint256) {\n        PoolInfo storage pool = poolInfo[_pid];\n        uint256 accIDTPerShare = pool.accIDTPerShare;\n        uint256 lpSupply = getERCBalance(pool.tokenStack, address(this));\n        if (block.number > pool.lastRewardBlock && lpSupply != 0) {\n            uint256 multiplier = getMultiplier(\n                pool.lastRewardBlock,\n                block.number\n            );\n            uint256 idtReward = multiplier\n                .mul(idtPerBlock)\n                .mul(pool.allocPoint)\n                .div(totalAllocPoint);\n            accIDTPerShare = accIDTPerShare.add(\n                idtReward.mul(1e12).div(lpSupply)\n            );\n        }\n        return stackers[_pid][msg.sender].mul(accIDTPerShare).div(1e12);\n    }\n\n    // EXTERNaL CALL TO ERC20 Contract\n    function getERCapprove(\n        address _token,\n        address _spender,\n        uint256 _value\n    ) public returns (bool) {\n        stk = MyERC20(_token);\n        return stk.approve(_spender, _value);\n    }\n\n    function getERCtransferFrom(\n        address _token,\n        address _from,\n        address _to,\n        uint256 _value\n    ) public returns (bool) {\n        stk = MyERC20(_token);\n        return stk.transferFrom(_from, _to, _value);\n    }\n\n    function getERCBalance(address _token, address _owner)\n        public\n        returns (uint256)\n    {\n        stk = MyERC20(_token);\n        return stk.balanceOf(_owner);\n    }\n\n    function getERCtransfer(\n        address _token,\n        address _to,\n        uint256 _value\n    ) public returns (bool) {\n        stk = MyERC20(_token);\n        return stk.transfer(_to, _value);\n    }\n\n    function getERCname(address _token) public returns (string memory) {\n        stk = MyERC20(_token);\n        return stk.name();\n    }\n\n    function getERCsymbol(address _token) public returns (string memory) {\n        stk = MyERC20(_token);\n        return stk.symbol();\n    }\n}\n",
  "sourcePath": "D:\\projetos\\blockchain\\dex-next\\src\\contracts\\Stacking.sol",
  "compiler": {
    "name": "solc",
    "version": "0.8.0+commit.c7dfd78e.Emscripten.clang"
  },
  "schemaVersion": "3.4.3",
  "updatedAt": "2022-08-14T18:28:04.698Z",
  "networkType": "ethereum",
  "devdoc": {
    "kind": "dev",
    "methods": {
      "owner()": {
        "details": "Returns the address of the current owner."
      },
      "renounceOwnership()": {
        "details": "Leaves the contract without owner. It will not be possible to call `onlyOwner` functions anymore. Can only be called by the current owner. NOTE: Renouncing ownership will leave the contract without an owner, thereby removing any functionality that is only available to the owner."
      },
      "transferOwnership(address)": {
        "details": "Transfers ownership of the contract to a new account (`newOwner`). Can only be called by the current owner."
      }
    },
    "version": 1
  },
  "userdoc": {
    "kind": "user",
    "methods": {},
    "version": 1
  }
}