{
  "contractName": "Staker",
  "abi": [
    {
      "inputs": [
        {
          "internalType": "address",
          "name": "_depositToken",
          "type": "address"
        },
        {
          "internalType": "address",
          "name": "_rewardToken",
          "type": "address"
        }
      ],
      "stateMutability": "nonpayable",
      "type": "constructor"
    },
    {
      "anonymous": false,
      "inputs": [
        {
          "indexed": false,
          "internalType": "uint256",
          "name": "amount",
          "type": "uint256"
        },
        {
          "indexed": false,
          "internalType": "uint256",
          "name": "lengthInDays",
          "type": "uint256"
        }
      ],
      "name": "AddRewards",
      "type": "event"
    },
    {
      "anonymous": false,
      "inputs": [
        {
          "indexed": true,
          "internalType": "address",
          "name": "user",
          "type": "address"
        },
        {
          "indexed": false,
          "internalType": "uint256",
          "name": "amount",
          "type": "uint256"
        }
      ],
      "name": "ClaimReward",
      "type": "event"
    },
    {
      "anonymous": false,
      "inputs": [
        {
          "indexed": true,
          "internalType": "address",
          "name": "user",
          "type": "address"
        },
        {
          "indexed": false,
          "internalType": "uint256",
          "name": "amount",
          "type": "uint256"
        }
      ],
      "name": "Deposit",
      "type": "event"
    },
    {
      "anonymous": false,
      "inputs": [
        {
          "indexed": true,
          "internalType": "address",
          "name": "previousOwner",
          "type": "address"
        },
        {
          "indexed": true,
          "internalType": "address",
          "name": "newOwner",
          "type": "address"
        }
      ],
      "name": "OwnershipTransferred",
      "type": "event"
    },
    {
      "anonymous": false,
      "inputs": [
        {
          "indexed": false,
          "internalType": "uint256",
          "name": "amount",
          "type": "uint256"
        }
      ],
      "name": "Skim",
      "type": "event"
    },
    {
      "anonymous": false,
      "inputs": [
        {
          "indexed": true,
          "internalType": "address",
          "name": "user",
          "type": "address"
        },
        {
          "indexed": false,
          "internalType": "uint256",
          "name": "amount",
          "type": "uint256"
        }
      ],
      "name": "Withdraw",
      "type": "event"
    },
    {
      "inputs": [],
      "name": "accumulatedRewardPerShare",
      "outputs": [
        {
          "internalType": "uint256",
          "name": "",
          "type": "uint256"
        }
      ],
      "stateMutability": "view",
      "type": "function",
      "constant": true
    },
    {
      "inputs": [],
      "name": "depositToken",
      "outputs": [
        {
          "internalType": "contract IERC20",
          "name": "",
          "type": "address"
        }
      ],
      "stateMutability": "view",
      "type": "function",
      "constant": true
    },
    {
      "inputs": [],
      "name": "lastRewardTimestamp",
      "outputs": [
        {
          "internalType": "uint256",
          "name": "",
          "type": "uint256"
        }
      ],
      "stateMutability": "view",
      "type": "function",
      "constant": true
    },
    {
      "inputs": [],
      "name": "owner",
      "outputs": [
        {
          "internalType": "address",
          "name": "",
          "type": "address"
        }
      ],
      "stateMutability": "view",
      "type": "function",
      "constant": true
    },
    {
      "inputs": [],
      "name": "renounceOwnership",
      "outputs": [],
      "stateMutability": "nonpayable",
      "type": "function"
    },
    {
      "inputs": [],
      "name": "rewardPerSecond",
      "outputs": [
        {
          "internalType": "uint256",
          "name": "",
          "type": "uint256"
        }
      ],
      "stateMutability": "view",
      "type": "function",
      "constant": true
    },
    {
      "inputs": [],
      "name": "rewardPeriodEndTimestamp",
      "outputs": [
        {
          "internalType": "uint256",
          "name": "",
          "type": "uint256"
        }
      ],
      "stateMutability": "view",
      "type": "function",
      "constant": true
    },
    {
      "inputs": [],
      "name": "rewardToken",
      "outputs": [
        {
          "internalType": "contract IERC20",
          "name": "",
          "type": "address"
        }
      ],
      "stateMutability": "view",
      "type": "function",
      "constant": true
    },
    {
      "inputs": [],
      "name": "totalStaked",
      "outputs": [
        {
          "internalType": "uint256",
          "name": "",
          "type": "uint256"
        }
      ],
      "stateMutability": "view",
      "type": "function",
      "constant": true
    },
    {
      "inputs": [
        {
          "internalType": "address",
          "name": "newOwner",
          "type": "address"
        }
      ],
      "name": "transferOwnership",
      "outputs": [],
      "stateMutability": "nonpayable",
      "type": "function"
    },
    {
      "inputs": [
        {
          "internalType": "uint256",
          "name": "_rewardsAmount",
          "type": "uint256"
        },
        {
          "internalType": "uint256",
          "name": "_lengthInDays",
          "type": "uint256"
        }
      ],
      "name": "addRewards",
      "outputs": [],
      "stateMutability": "nonpayable",
      "type": "function"
    },
    {
      "inputs": [],
      "name": "updateRewards",
      "outputs": [],
      "stateMutability": "nonpayable",
      "type": "function"
    },
    {
      "inputs": [
        {
          "internalType": "uint256",
          "name": "_amount",
          "type": "uint256"
        }
      ],
      "name": "deposit",
      "outputs": [],
      "stateMutability": "nonpayable",
      "type": "function"
    },
    {
      "inputs": [
        {
          "internalType": "uint256",
          "name": "_amount",
          "type": "uint256"
        }
      ],
      "name": "withdraw",
      "outputs": [],
      "stateMutability": "nonpayable",
      "type": "function"
    },
    {
      "inputs": [],
      "name": "claim",
      "outputs": [],
      "stateMutability": "nonpayable",
      "type": "function"
    },
    {
      "inputs": [],
      "name": "skim",
      "outputs": [],
      "stateMutability": "nonpayable",
      "type": "function"
    },
    {
      "inputs": [
        {
          "internalType": "address",
          "name": "_user",
          "type": "address"
        }
      ],
      "name": "pendingRewards",
      "outputs": [
        {
          "internalType": "uint256",
          "name": "",
          "type": "uint256"
        }
      ],
      "stateMutability": "view",
      "type": "function",
      "constant": true
    },
    {
      "inputs": [],
      "name": "getFrontendView",
      "outputs": [
        {
          "internalType": "uint256",
          "name": "_rewardPerSecond",
          "type": "uint256"
        },
        {
          "internalType": "uint256",
          "name": "_secondsLeft",
          "type": "uint256"
        },
        {
          "internalType": "uint256",
          "name": "_deposited",
          "type": "uint256"
        },
        {
          "internalType": "uint256",
          "name": "_pending",
          "type": "uint256"
        }
      ],
      "stateMutability": "view",
      "type": "function",
      "constant": true
    }
  ],
  "bytecode": "0x60806040523480156200001157600080fd5b5060405162002157380380620021578339818101604052810190620000379190620001c4565b620000576200004b620000e160201b60201c565b620000e960201b60201c565b81600260006101000a81548173ffffffffffffffffffffffffffffffffffffffff021916908373ffffffffffffffffffffffffffffffffffffffff16021790555080600360006101000a81548173ffffffffffffffffffffffffffffffffffffffff021916908373ffffffffffffffffffffffffffffffffffffffff160217905550505062000253565b600033905090565b60008060009054906101000a900473ffffffffffffffffffffffffffffffffffffffff169050816000806101000a81548173ffffffffffffffffffffffffffffffffffffffff021916908373ffffffffffffffffffffffffffffffffffffffff1602179055508173ffffffffffffffffffffffffffffffffffffffff168173ffffffffffffffffffffffffffffffffffffffff167f8be0079c531659141344cd1fd0a4f28419497f9722a3daafe3b4186f6b6457e060405160405180910390a35050565b600081519050620001be8162000239565b92915050565b60008060408385031215620001d857600080fd5b6000620001e885828601620001ad565b9250506020620001fb85828601620001ad565b9150509250929050565b6000620002128262000219565b9050919050565b600073ffffffffffffffffffffffffffffffffffffffff82169050919050565b620002448162000205565b81146200025057600080fd5b50565b611ef480620002636000396000f3fe608060405234801561001057600080fd5b50600436106101165760003560e01c80638f10369a116100a2578063cfc2b32011610071578063cfc2b32014610262578063f2fde38b14610280578063f7c618c11461029c578063f8077fae146102ba578063fc41aa09146102d857610116565b80638f10369a146101e9578063abed2e7f14610207578063b6b55f2514610228578063c89039c51461024457610116565b80633e158b0c116100e95780633e158b0c1461018f5780634e71d92d14610199578063715018a6146101a3578063817b1cd2146101ad5780638da5cb5b146101cb57610116565b80631dd19cb41461011b5780632e1a7d4d1461012557806331d7a2621461014157806336d4219514610171575b600080fd5b6101236102f4565b005b61013f600480360381019061013a919061173d565b6104f8565b005b61015b600480360381019061015691906116eb565b6108ed565b6040516101689190611c00565b60405180910390f35b610179610a53565b6040516101869190611c00565b60405180910390f35b610197610a59565b005b6101a1610b3e565b005b6101ab610d89565b005b6101b5610d9d565b6040516101c29190611c00565b60405180910390f35b6101d3610da3565b6040516101e09190611a6a565b60405180910390f35b6101f1610dcc565b6040516101fe9190611c00565b60405180910390f35b61020f610dd2565b60405161021f9493929190611c44565b60405180910390f35b610242600480360381019061023d919061173d565b610e69565b005b61024c611227565b6040516102599190611ae5565b60405180910390f35b61026a61124d565b6040516102779190611c00565b60405180910390f35b61029a600480360381019061029591906116eb565b611253565b005b6102a46112d7565b6040516102b19190611ae5565b60405180910390f35b6102c26112fd565b6040516102cf9190611c00565b60405180910390f35b6102f260048036038101906102ed919061178f565b611303565b005b6102fc6114f5565b6000600260009054906101000a900473ffffffffffffffffffffffffffffffffffffffff1673ffffffffffffffffffffffffffffffffffffffff166370a08231306040518263ffffffff1660e01b81526004016103599190611a6a565b60206040518083038186803b15801561037157600080fd5b505afa158015610385573d6000803e3d6000fd5b505050506040513d601f19601f820116820180604052508101906103a99190611766565b90506004548111156104f55760006103cc6004548361157390919063ffffffff16565b9050600260009054906101000a900473ffffffffffffffffffffffffffffffffffffffff1673ffffffffffffffffffffffffffffffffffffffff1663a9059cbb33836040518363ffffffff1660e01b815260040161042b929190611abc565b602060405180830381600087803b15801561044557600080fd5b505af1158015610459573d6000803e3d6000fd5b505050506040513d601f19601f8201168201806040525081019061047d9190611714565b6104bc576040517f08c379a00000000000000000000000000000000000000000000000000000000081526004016104b390611be0565b60405180910390fd5b7f09639ca13db231feb5ad02aa7a3e9d59549523814fbf88e0f7b51412c7d48251816040516104eb9190611c00565b60405180910390a1505b50565b6000600160003373ffffffffffffffffffffffffffffffffffffffff1673ffffffffffffffffffffffffffffffffffffffff16815260200190815260200160002090508181600001541015610582576040517f08c379a000000000000000000000000000000000000000000000000000000000815260040161057990611bc0565b60405180910390fd5b61058a610a59565b60006105e782600101546105d9629896806105cb64e8d4a510006105bd600854896000015461158990919063ffffffff16565b61159f90919063ffffffff16565b61159f90919063ffffffff16565b61157390919063ffffffff16565b9050600360009054906101000a900473ffffffffffffffffffffffffffffffffffffffff1673ffffffffffffffffffffffffffffffffffffffff1663a9059cbb33836040518363ffffffff1660e01b8152600401610646929190611abc565b602060405180830381600087803b15801561066057600080fd5b505af1158015610674573d6000803e3d6000fd5b505050506040513d601f19601f820116820180604052508101906106989190611714565b6106d7576040517f08c379a00000000000000000000000000000000000000000000000000000000081526004016106ce90611b60565b60405180910390fd5b3373ffffffffffffffffffffffffffffffffffffffff167fba8de60c3403ec381d1d484652ea1980e3c3e56359195c92525bff4ce47ad98e8260405161071d9190611c00565b60405180910390a261073c83836000015461157390919063ffffffff16565b82600001819055506107598360045461157390919063ffffffff16565b6004819055506107a46298968061079664e8d4a51000610788600854876000015461158990919063ffffffff16565b61159f90919063ffffffff16565b61159f90919063ffffffff16565b8260010181905550600260009054906101000a900473ffffffffffffffffffffffffffffffffffffffff1673ffffffffffffffffffffffffffffffffffffffff1663a9059cbb33856040518363ffffffff1660e01b8152600401610809929190611abc565b602060405180830381600087803b15801561082357600080fd5b505af1158015610837573d6000803e3d6000fd5b505050506040513d601f19601f8201168201806040525081019061085b9190611714565b61089a576040517f08c379a000000000000000000000000000000000000000000000000000000000815260040161089190611b00565b60405180910390fd5b3373ffffffffffffffffffffffffffffffffffffffff167f884edad9ce6fa2440d8a54cc123490eb96d2768479d49ff9c7366125a9424364846040516108e09190611c00565b60405180910390a2505050565b600080600160008473ffffffffffffffffffffffffffffffffffffffff1673ffffffffffffffffffffffffffffffffffffffff1681526020019081526020016000209050600060085490506007544211801561094d575060055460075411155b801561095c5750600060045414155b156109f157600060055442111561097757600554905061097b565b4290505b60006109926007548361157390919063ffffffff16565b905060006109ab6006548361158990919063ffffffff16565b90506109eb6109dc6004546109ce64e8d4a510008561158990919063ffffffff16565b61159f90919063ffffffff16565b856115b590919063ffffffff16565b93505050505b610a4a8260010154610a3c62989680610a2e64e8d4a51000610a2087896000015461158990919063ffffffff16565b61159f90919063ffffffff16565b61159f90919063ffffffff16565b61157390919063ffffffff16565b92505050919050565b60085481565b6007544211610a6757610b3c565b60006004541480610a7b5750600554600754115b15610a8c5742600781905550610b3c565b6000600554421115610aa2576005549050610aa6565b4290505b6000610abd6007548361157390919063ffffffff16565b90506000610ad66006548361158990919063ffffffff16565b9050610b18610b07600454610af964e8d4a510008561158990919063ffffffff16565b61159f90919063ffffffff16565b6008546115b590919063ffffffff16565b60088190555042600781905550600554421115610b385760006006819055505b5050505b565b6000600160003373ffffffffffffffffffffffffffffffffffffffff1673ffffffffffffffffffffffffffffffffffffffff1681526020019081526020016000209050600081600001541415610b945750610d87565b610b9c610a59565b6000610bf98260010154610beb62989680610bdd64e8d4a51000610bcf600854896000015461158990919063ffffffff16565b61159f90919063ffffffff16565b61159f90919063ffffffff16565b61157390919063ffffffff16565b9050600360009054906101000a900473ffffffffffffffffffffffffffffffffffffffff1673ffffffffffffffffffffffffffffffffffffffff1663a9059cbb33836040518363ffffffff1660e01b8152600401610c58929190611abc565b602060405180830381600087803b158015610c7257600080fd5b505af1158015610c86573d6000803e3d6000fd5b505050506040513d601f19601f82011682018060405250810190610caa9190611714565b610ce9576040517f08c379a0000000000000000000000000000000000000000000000000000000008152600401610ce090611be0565b60405180910390fd5b3373ffffffffffffffffffffffffffffffffffffffff167fba8de60c3403ec381d1d484652ea1980e3c3e56359195c92525bff4ce47ad98e82604051610d2f9190611c00565b60405180910390a2610d7c62989680610d6e64e8d4a51000610d60600854876000015461158990919063ffffffff16565b61159f90919063ffffffff16565b61159f90919063ffffffff16565b826001018190555050505b565b610d916114f5565b610d9b60006115cb565b565b60045481565b60008060009054906101000a900473ffffffffffffffffffffffffffffffffffffffff16905090565b60065481565b6000806000806005544211610e1357610df64260055461157390919063ffffffff16565b9250610e106298968060065461159f90919063ffffffff16565b93505b600160003373ffffffffffffffffffffffffffffffffffffffff1673ffffffffffffffffffffffffffffffffffffffff168152602001908152602001600020600001549150610e61336108ed565b905090919293565b6000600160003373ffffffffffffffffffffffffffffffffffffffff1673ffffffffffffffffffffffffffffffffffffffff1681526020019081526020016000209050610eb4610a59565b60008160000154111561105e576000610f1e8260010154610f1062989680610f0264e8d4a51000610ef4600854896000015461158990919063ffffffff16565b61159f90919063ffffffff16565b61159f90919063ffffffff16565b61157390919063ffffffff16565b9050600360009054906101000a900473ffffffffffffffffffffffffffffffffffffffff1673ffffffffffffffffffffffffffffffffffffffff1663a9059cbb33836040518363ffffffff1660e01b8152600401610f7d929190611abc565b602060405180830381600087803b158015610f9757600080fd5b505af1158015610fab573d6000803e3d6000fd5b505050506040513d601f19601f82011682018060405250810190610fcf9190611714565b61100e576040517f08c379a000000000000000000000000000000000000000000000000000000000815260040161100590611be0565b60405180910390fd5b3373ffffffffffffffffffffffffffffffffffffffff167fba8de60c3403ec381d1d484652ea1980e3c3e56359195c92525bff4ce47ad98e826040516110549190611c00565b60405180910390a2505b6110758282600001546115b590919063ffffffff16565b8160000181905550611092826004546115b590919063ffffffff16565b6004819055506110dd629896806110cf64e8d4a510006110c1600854866000015461158990919063ffffffff16565b61159f90919063ffffffff16565b61159f90919063ffffffff16565b8160010181905550600260009054906101000a900473ffffffffffffffffffffffffffffffffffffffff1673ffffffffffffffffffffffffffffffffffffffff166323b872dd3330856040518463ffffffff1660e01b815260040161114493929190611a85565b602060405180830381600087803b15801561115e57600080fd5b505af1158015611172573d6000803e3d6000fd5b505050506040513d601f19601f820116820180604052508101906111969190611714565b6111d5576040517f08c379a00000000000000000000000000000000000000000000000000000000081526004016111cc90611b40565b60405180910390fd5b3373ffffffffffffffffffffffffffffffffffffffff167fe1fffcc4923d04b559f4d29a8bfc6cda04eb5b0d3c460751c2402c5c5cc9109c8360405161121b9190611c00565b60405180910390a25050565b600260009054906101000a900473ffffffffffffffffffffffffffffffffffffffff1681565b60055481565b61125b6114f5565b600073ffffffffffffffffffffffffffffffffffffffff168173ffffffffffffffffffffffffffffffffffffffff1614156112cb576040517f08c379a00000000000000000000000000000000000000000000000000000000081526004016112c290611b20565b60405180910390fd5b6112d4816115cb565b50565b600360009054906101000a900473ffffffffffffffffffffffffffffffffffffffff1681565b60075481565b61130b6114f5565b600554421161134f576040517f08c379a000000000000000000000000000000000000000000000000000000000815260040161134690611b80565b60405180910390fd5b611357610a59565b61137f611370620151808361158990919063ffffffff16565b426115b590919063ffffffff16565b6005819055506113c2620151806113b4836113a6629896808761158990919063ffffffff16565b61159f90919063ffffffff16565b61159f90919063ffffffff16565b600681905550600360009054906101000a900473ffffffffffffffffffffffffffffffffffffffff1673ffffffffffffffffffffffffffffffffffffffff166323b872dd3330856040518463ffffffff1660e01b815260040161142793929190611a85565b602060405180830381600087803b15801561144157600080fd5b505af1158015611455573d6000803e3d6000fd5b505050506040513d601f19601f820116820180604052508101906114799190611714565b6114b8576040517f08c379a00000000000000000000000000000000000000000000000000000000081526004016114af90611be0565b60405180910390fd5b7f035a6817755d9d163087d4649b27315908b801d1f5e33071a44f1fc0f7a871b382826040516114e9929190611c1b565b60405180910390a15050565b6114fd61168f565b73ffffffffffffffffffffffffffffffffffffffff1661151b610da3565b73ffffffffffffffffffffffffffffffffffffffff1614611571576040517f08c379a000000000000000000000000000000000000000000000000000000000815260040161156890611ba0565b60405180910390fd5b565b600081836115819190611d7b565b905092915050565b600081836115979190611d21565b905092915050565b600081836115ad9190611cf0565b905092915050565b600081836115c39190611c9a565b905092915050565b60008060009054906101000a900473ffffffffffffffffffffffffffffffffffffffff169050816000806101000a81548173ffffffffffffffffffffffffffffffffffffffff021916908373ffffffffffffffffffffffffffffffffffffffff1602179055508173ffffffffffffffffffffffffffffffffffffffff168173ffffffffffffffffffffffffffffffffffffffff167f8be0079c531659141344cd1fd0a4f28419497f9722a3daafe3b4186f6b6457e060405160405180910390a35050565b600033905090565b6000813590506116a681611e79565b92915050565b6000815190506116bb81611e90565b92915050565b6000813590506116d081611ea7565b92915050565b6000815190506116e581611ea7565b92915050565b6000602082840312156116fd57600080fd5b600061170b84828501611697565b91505092915050565b60006020828403121561172657600080fd5b6000611734848285016116ac565b91505092915050565b60006020828403121561174f57600080fd5b600061175d848285016116c1565b91505092915050565b60006020828403121561177857600080fd5b6000611786848285016116d6565b91505092915050565b600080604083850312156117a257600080fd5b60006117b0858286016116c1565b92505060206117c1858286016116c1565b9150509250929050565b6117d481611daf565b82525050565b6117e381611df7565b82525050565b60006117f6602183611c89565b91507f5374616b65723a206465706f736974207769746864726177616c206661696c6560008301527f64000000000000000000000000000000000000000000000000000000000000006020830152604082019050919050565b600061185c602683611c89565b91507f4f776e61626c653a206e6577206f776e657220697320746865207a65726f206160008301527f64647265737300000000000000000000000000000000000000000000000000006020830152604082019050919050565b60006118c2601b83611c89565b91507f5374616b65723a207472616e7366657246726f6d206661696c656400000000006000830152602082019050919050565b6000611902601e83611c89565b91507f5374616b65723a20726577617264207472616e73666572206661696c656400006000830152602082019050919050565b6000611942603083611c89565b91507f5374616b65723a2063616e2774206164642072657761726473206265666f726560008301527f20706572696f642066696e6973686564000000000000000000000000000000006020830152604082019050919050565b60006119a8602083611c89565b91507f4f776e61626c653a2063616c6c6572206973206e6f7420746865206f776e65726000830152602082019050919050565b60006119e8601a83611c89565b91507f5374616b65723a2062616c616e6365206e6f7420656e6f7567680000000000006000830152602082019050919050565b6000611a28601783611c89565b91507f5374616b65723a207472616e73666572206661696c65640000000000000000006000830152602082019050919050565b611a6481611ded565b82525050565b6000602082019050611a7f60008301846117cb565b92915050565b6000606082019050611a9a60008301866117cb565b611aa760208301856117cb565b611ab46040830184611a5b565b949350505050565b6000604082019050611ad160008301856117cb565b611ade6020830184611a5b565b9392505050565b6000602082019050611afa60008301846117da565b92915050565b60006020820190508181036000830152611b19816117e9565b9050919050565b60006020820190508181036000830152611b398161184f565b9050919050565b60006020820190508181036000830152611b59816118b5565b9050919050565b60006020820190508181036000830152611b79816118f5565b9050919050565b60006020820190508181036000830152611b9981611935565b9050919050565b60006020820190508181036000830152611bb98161199b565b9050919050565b60006020820190508181036000830152611bd9816119db565b9050919050565b60006020820190508181036000830152611bf981611a1b565b9050919050565b6000602082019050611c156000830184611a5b565b92915050565b6000604082019050611c306000830185611a5b565b611c3d6020830184611a5b565b9392505050565b6000608082019050611c596000830187611a5b565b611c666020830186611a5b565b611c736040830185611a5b565b611c806060830184611a5b565b95945050505050565b600082825260208201905092915050565b6000611ca582611ded565b9150611cb083611ded565b9250827fffffffffffffffffffffffffffffffffffffffffffffffffffffffffffffffff03821115611ce557611ce4611e1b565b5b828201905092915050565b6000611cfb82611ded565b9150611d0683611ded565b925082611d1657611d15611e4a565b5b828204905092915050565b6000611d2c82611ded565b9150611d3783611ded565b9250817fffffffffffffffffffffffffffffffffffffffffffffffffffffffffffffffff0483118215151615611d7057611d6f611e1b565b5b828202905092915050565b6000611d8682611ded565b9150611d9183611ded565b925082821015611da457611da3611e1b565b5b828203905092915050565b6000611dba82611dcd565b9050919050565b60008115159050919050565b600073ffffffffffffffffffffffffffffffffffffffff82169050919050565b6000819050919050565b6000611e0282611e09565b9050919050565b6000611e1482611dcd565b9050919050565b7f4e487b7100000000000000000000000000000000000000000000000000000000600052601160045260246000fd5b7f4e487b7100000000000000000000000000000000000000000000000000000000600052601260045260246000fd5b611e8281611daf565b8114611e8d57600080fd5b50565b611e9981611dc1565b8114611ea457600080fd5b50565b611eb081611ded565b8114611ebb57600080fd5b5056fea26469706673582212204f8ae99af0bc912d736da5b44d112fc3a2c27f44707487eb97e17594d7ec9e3d64736f6c63430008000033",
  "immutableReferences": {},
  "source": "// SPDX-License-Identifier: UNLICENSED\n\npragma solidity ^0.8.0;\n\nimport \"@openzeppelin/contracts/token/ERC20/IERC20.sol\";\nimport \"@openzeppelin/contracts/utils/math/SafeMath.sol\";\nimport \"@openzeppelin/contracts/access/Ownable.sol\";\n\n\n/*\n\n\n    Staker contract for ETB Projects #2\n    ===================================\n\n    Based on Sushiswap MasterChef.\n    The basic idea is to keep an accumulating pool \"share balance\" (accumulatedRewardPerShare):\n    Every unit of this balance represents the proportionate reward of a single wei which is staked in the contract.\n    This balance is updated in updateRewards() (which is called in each deposit/withdraw/claim)\n        according to the time passed from the last update and in proportion to the total tokens staked in the pool.\n        Basically: accumulatedRewardPerShare = accumulatedRewardPerShare + (seconds passed from last update) * (rewards per second) / (total tokens staked)\n    We also save for each user an accumulation of how much he has already claimed so far.\n    And so to calculate a user's rewards, we basically just need to calculate:\n    userRewards = accumulatedRewardPerShare * (user's currently staked tokens) - (user's rewards already claimed) \n    And updated the user's rewards already claimed accordingly.\n\n\n*/\ncontract Staker is Ownable {\n    using SafeMath for uint256;\n\n    struct UserInfo {\n        uint256 deposited;\n        uint256 rewardsAlreadyConsidered;\n    }\n\n    mapping (address => UserInfo) users;\n    \n    IERC20 public depositToken; // eg. PancakeSwap ETB LP token\n    IERC20 public rewardToken;  // eg. ETB\n\n    // We are not using depositToken.balanceOf in order to prevent DOS attacks (attacker can make the total tokens staked very large)\n    // and to add a skim() functionality with which the owner can collect tokens which were transferred outside the stake mechanism.\n    uint256 public totalStaked;\n\n    uint256 public rewardPeriodEndTimestamp;\n    uint256 public rewardPerSecond; // multiplied by 1e7, to make up for division by 24*60*60\n\n    uint256 public lastRewardTimestamp;\n    uint256 public accumulatedRewardPerShare; // multiplied by 1e12, same as MasterChef\n\n    event AddRewards(uint256 amount, uint256 lengthInDays);\n    event ClaimReward(address indexed user, uint256 amount);\n    event Deposit(address indexed user, uint256 amount);\n    event Withdraw(address indexed user, uint256 amount);\n    event Skim(uint256 amount);\n    \n\n    constructor(address _depositToken, address _rewardToken) {\n        depositToken = IERC20(_depositToken);\n        rewardToken = IERC20(_rewardToken);\n    }\n\n    // Owner should have approved ERC20 before.\n    function addRewards(uint256 _rewardsAmount, uint256 _lengthInDays)\n    external onlyOwner {\n        require(block.timestamp > rewardPeriodEndTimestamp, \"Staker: can't add rewards before period finished\");\n        updateRewards();\n        rewardPeriodEndTimestamp = block.timestamp.add(_lengthInDays.mul(24*60*60));\n        rewardPerSecond = _rewardsAmount.mul(1e7).div(_lengthInDays).div(24*60*60);\n        require(rewardToken.transferFrom(msg.sender, address(this), _rewardsAmount), \"Staker: transfer failed\");\n        emit AddRewards(_rewardsAmount, _lengthInDays);\n    }\n\n    // Main function to keep a balance of the rewards.\n    // Is called before each user action (stake, unstake, claim).\n    // See top of file for high level description.\n    function updateRewards()\n    public {\n        // If no staking period active, or already updated rewards after staking ended, or nobody staked anything - nothing to do\n        if (block.timestamp <= lastRewardTimestamp) {\n            return;\n        }\n        if ((totalStaked == 0) || lastRewardTimestamp > rewardPeriodEndTimestamp) {\n            lastRewardTimestamp = block.timestamp;\n            return;\n        }\n\n        // If staking period ended, calculate time delta based on the time the staking ended (and not after)\n        uint256 endingTime;\n        if (block.timestamp > rewardPeriodEndTimestamp) {\n            endingTime = rewardPeriodEndTimestamp;\n        } else {\n            endingTime = block.timestamp;\n        }\n        uint256 secondsSinceLastRewardUpdate = endingTime.sub(lastRewardTimestamp);\n        uint256 totalNewReward = secondsSinceLastRewardUpdate.mul(rewardPerSecond); // For everybody in the pool\n        // The next line will calculate the reward for each staked token in the pool.\n        //  So when a specific user will claim his rewards,\n        //  we will basically multiply this var by the amount the user staked.\n        accumulatedRewardPerShare = accumulatedRewardPerShare.add(totalNewReward.mul(1e12).div(totalStaked));\n        lastRewardTimestamp = block.timestamp;\n        if (block.timestamp > rewardPeriodEndTimestamp) {\n            rewardPerSecond = 0;\n        }\n    }\n\n    // Will deposit specified amount and also send rewards.\n    // User should have approved ERC20 before.\n    function deposit(uint256 _amount)\n    external {\n        UserInfo storage user = users[msg.sender];\n        updateRewards();\n        // Send reward for previous deposits\n        if (user.deposited > 0) {\n            uint256 pending = user.deposited.mul(accumulatedRewardPerShare).div(1e12).div(1e7).sub(user.rewardsAlreadyConsidered);\n            require(rewardToken.transfer(msg.sender, pending), \"Staker: transfer failed\");\n            emit ClaimReward(msg.sender, pending);\n        }\n        user.deposited = user.deposited.add(_amount);\n        totalStaked = totalStaked.add(_amount);\n        user.rewardsAlreadyConsidered = user.deposited.mul(accumulatedRewardPerShare).div(1e12).div(1e7);\n        require(depositToken.transferFrom(msg.sender, address(this), _amount), \"Staker: transferFrom failed\");\n        emit Deposit(msg.sender, _amount);\n    }\n    \n\n    // Will withdraw the specified amount and also send rewards.\n    function withdraw(uint256 _amount)\n    external {\n        UserInfo storage user = users[msg.sender];\n        require(user.deposited >= _amount, \"Staker: balance not enough\");\n        updateRewards();\n        // Send reward for previous deposits\n        uint256 pending = user.deposited.mul(accumulatedRewardPerShare).div(1e12).div(1e7).sub(user.rewardsAlreadyConsidered);\n        require(rewardToken.transfer(msg.sender, pending), \"Staker: reward transfer failed\");\n        emit ClaimReward(msg.sender, pending);\n        user.deposited = user.deposited.sub(_amount);\n        totalStaked = totalStaked.sub(_amount);\n        user.rewardsAlreadyConsidered = user.deposited.mul(accumulatedRewardPerShare).div(1e12).div(1e7);\n        require(depositToken.transfer(msg.sender, _amount), \"Staker: deposit withdrawal failed\");\n        emit Withdraw(msg.sender, _amount);\n    }\n\n    // Will just send rewards.\n    function claim()\n    external {\n        UserInfo storage user = users[msg.sender];\n        if (user.deposited == 0)\n            return;\n\n        updateRewards();\n        uint256 pending = user.deposited.mul(accumulatedRewardPerShare).div(1e12).div(1e7).sub(user.rewardsAlreadyConsidered);\n        require(rewardToken.transfer(msg.sender, pending), \"Staker: transfer failed\");\n        emit ClaimReward(msg.sender, pending);\n        user.rewardsAlreadyConsidered = user.deposited.mul(accumulatedRewardPerShare).div(1e12).div(1e7);\n        \n    }\n\n    // Will collect depositTokens (LP tokens) that were sent to the contract\n    //  Outside of the staking mechanism.\n    function skim()\n    external onlyOwner {\n        uint256 depositTokenBalance = depositToken.balanceOf(address(this));\n        if (depositTokenBalance > totalStaked) {\n            uint256 amount = depositTokenBalance.sub(totalStaked);\n            require(depositToken.transfer(msg.sender, amount), \"Staker: transfer failed\");\n            emit Skim(amount);\n        }\n    }\n\n    /* \n        ####################################################\n        ################## View functions ##################\n        ####################################################\n\n    */\n\n    // Return the user's pending rewards.\n    function pendingRewards(address _user)\n    public view returns (uint256) {\n        UserInfo storage user = users[_user];\n        uint256 accumulated = accumulatedRewardPerShare;\n        if (block.timestamp > lastRewardTimestamp && lastRewardTimestamp <= rewardPeriodEndTimestamp && totalStaked != 0) {\n            uint256 endingTime;\n            if (block.timestamp > rewardPeriodEndTimestamp) {\n                endingTime = rewardPeriodEndTimestamp;\n            } else {\n                endingTime = block.timestamp;\n            }\n            uint256 secondsSinceLastRewardUpdate = endingTime.sub(lastRewardTimestamp);\n            uint256 totalNewReward = secondsSinceLastRewardUpdate.mul(rewardPerSecond);\n            accumulated = accumulated.add(totalNewReward.mul(1e12).div(totalStaked));\n        }\n        return user.deposited.mul(accumulated).div(1e12).div(1e7).sub(user.rewardsAlreadyConsidered);\n    }\n\n    // Returns misc details for the front end.\n    function getFrontendView()\n    external view returns (uint256 _rewardPerSecond, uint256 _secondsLeft, uint256 _deposited, uint256 _pending) {\n        if (block.timestamp <= rewardPeriodEndTimestamp) {\n            _secondsLeft = rewardPeriodEndTimestamp.sub(block.timestamp); \n            _rewardPerSecond = rewardPerSecond.div(1e7);\n        } // else, anyway these values will default to 0\n        _deposited = users[msg.sender].deposited;\n        _pending = pendingRewards(msg.sender);\n    }\n}",
  "sourcePath": "/projetos/dex-next/src/contracts/Staker.sol",
  "compiler": {
    "name": "solc",
    "version": "0.8.0+commit.c7dfd78e.Emscripten.clang"
  },
  "schemaVersion": "3.4.16",
  "updatedAt": "2024-06-17T13:07:27.589Z",
  "networkType": "ethereum",
  "devdoc": {
    "kind": "dev",
    "methods": {
      "owner()": {
        "details": "Returns the address of the current owner."
      },
      "renounceOwnership()": {
        "details": "Leaves the contract without owner. It will not be possible to call `onlyOwner` functions anymore. Can only be called by the current owner. NOTE: Renouncing ownership will leave the contract without an owner, thereby removing any functionality that is only available to the owner."
      },
      "transferOwnership(address)": {
        "details": "Transfers ownership of the contract to a new account (`newOwner`). Can only be called by the current owner."
      }
    },
    "version": 1
  },
  "userdoc": {
    "kind": "user",
    "methods": {},
    "version": 1
  }
}